{"contracts/MutantStaking.sol":{"MutantStaking":{"abi":[{"anonymous":false,"inputs":[{"indexed":false,"internalType":"address","name":"staker","type":"address"},{"indexed":false,"internalType":"uint256","name":"amount","type":"uint256"}],"name":"Harvested","type":"event"},{"anonymous":false,"inputs":[{"indexed":false,"internalType":"uint8","name":"version","type":"uint8"}],"name":"Initialized","type":"event"},{"anonymous":false,"inputs":[{"indexed":true,"internalType":"address","name":"previousOwner","type":"address"},{"indexed":true,"internalType":"address","name":"newOwner","type":"address"}],"name":"OwnershipTransferred","type":"event"},{"anonymous":false,"inputs":[{"indexed":false,"internalType":"address","name":"account","type":"address"}],"name":"Paused","type":"event"},{"anonymous":false,"inputs":[{"indexed":false,"internalType":"address","name":"account","type":"address"}],"name":"Unpaused","type":"event"},{"inputs":[],"name":"allocatedPower","outputs":[{"internalType":"uint256","name":"","type":"uint256"}],"stateMutability":"view","type":"function"},{"inputs":[{"internalType":"uint256[]","name":"tokenIds","type":"uint256[]"}],"name":"deposit","outputs":[],"stateMutability":"nonpayable","type":"function"},{"inputs":[{"internalType":"address","name":"account","type":"address"}],"name":"depositsOf","outputs":[{"internalType":"uint256[]","name":"","type":"uint256[]"}],"stateMutability":"view","type":"function"},{"inputs":[{"internalType":"uint256","name":"_lastReleased","type":"uint256"},{"internalType":"uint256","name":"_power","type":"uint256"}],"name":"earnedLastPeriod","outputs":[{"internalType":"uint256","name":"","type":"uint256"}],"stateMutability":"view","type":"function"},{"inputs":[{"internalType":"address","name":"_staker","type":"address"}],"name":"earnings","outputs":[{"internalType":"uint256","name":"","type":"uint256"}],"stateMutability":"view","type":"function"},{"inputs":[],"name":"harvest","outputs":[],"stateMutability":"nonpayable","type":"function"},{"inputs":[],"name":"initialize","outputs":[],"stateMutability":"nonpayable","type":"function"},{"inputs":[],"name":"nftContract","outputs":[{"internalType":"address","name":"","type":"address"}],"stateMutability":"view","type":"function"},{"inputs":[],"name":"owner","outputs":[{"internalType":"address","name":"","type":"address"}],"stateMutability":"view","type":"function"},{"inputs":[],"name":"pause","outputs":[],"stateMutability":"nonpayable","type":"function"},{"inputs":[],"name":"paused","outputs":[{"internalType":"bool","name":"","type":"bool"}],"stateMutability":"view","type":"function"},{"inputs":[],"name":"rate","outputs":[{"internalType":"uint256","name":"","type":"uint256"}],"stateMutability":"view","type":"function"},{"inputs":[],"name":"reclaimable","outputs":[{"internalType":"uint256","name":"","type":"uint256"}],"stateMutability":"view","type":"function"},{"inputs":[],"name":"reclaimableLastReleased","outputs":[{"internalType":"uint256","name":"","type":"uint256"}],"stateMutability":"view","type":"function"},{"inputs":[],"name":"released","outputs":[{"internalType":"uint256","name":"","type":"uint256"}],"stateMutability":"view","type":"function"},{"inputs":[],"name":"releasedCorrection","outputs":[{"internalType":"uint256","name":"","type":"uint256"}],"stateMutability":"view","type":"function"},{"inputs":[],"name":"renounceOwnership","outputs":[],"stateMutability":"nonpayable","type":"function"},{"inputs":[],"name":"reservedPower","outputs":[{"internalType":"uint256","name":"","type":"uint256"}],"stateMutability":"view","type":"function"},{"inputs":[{"internalType":"address","name":"_nftContract","type":"address"}],"name":"setNftContract","outputs":[],"stateMutability":"nonpayable","type":"function"},{"inputs":[{"internalType":"uint256[]","name":"_ids","type":"uint256[]"},{"internalType":"uint256[]","name":"_power","type":"uint256[]"}],"name":"setPower","outputs":[],"stateMutability":"nonpayable","type":"function"},{"inputs":[{"internalType":"uint256","name":"_rate","type":"uint256"}],"name":"setRate","outputs":[],"stateMutability":"nonpayable","type":"function"},{"inputs":[{"internalType":"address","name":"_tokenContract","type":"address"}],"name":"setTokenContract","outputs":[],"stateMutability":"nonpayable","type":"function"},{"inputs":[],"name":"tokenContract","outputs":[{"internalType":"address","name":"","type":"address"}],"stateMutability":"view","type":"function"},{"inputs":[{"internalType":"address","name":"newOwner","type":"address"}],"name":"transferOwnership","outputs":[],"stateMutability":"nonpayable","type":"function"},{"inputs":[],"name":"unpause","outputs":[],"stateMutability":"nonpayable","type":"function"},{"inputs":[{"internalType":"uint256[]","name":"tokenIds","type":"uint256[]"}],"name":"withdraw","outputs":[],"stateMutability":"nonpayable","type":"function"}],"evm":{"bytecode":{"linkReferences":{},"object":"6080604052600060d481905560d581905560d681905560d75560d8805460ff1916905534801561002e57600080fd5b5061152a8061003e6000396000f3fe608060405234801561001057600080fd5b506004361061018e5760003560e01c80638da5cb5b116100de578063bbcd5bbe11610097578063e3a9db1a11610071578063e3a9db1a146102f9578063ed18a6ba14610319578063ed9074c114610322578063f2fde38b1461032b57600080fd5b8063bbcd5bbe146102ca578063c16e0461146102dd578063d56d229d146102e657600080fd5b80638da5cb5b14610279578063961325211461028a578063983d95ce1461029257806399b72ccb146102a5578063a15d5316146102ae578063b181e5ff146102b757600080fd5b8063543fd3131161014b5780635c975abb116101255780635c975abb1461024b578063715018a6146102615780638129fc1c146102695780638456cb591461027157600080fd5b8063543fd313146101fa57806355a373d61461020d578063598b8e711461023857600080fd5b806317909b7d146101935780632c4e722e146101a857806334fcf437146101c45780633f4ba83a146101d75780634641257d146101df57806352f5ad77146101e7575b600080fd5b6101a66101a136600461125d565b61033e565b005b6101b160cd5481565b6040519081526020015b60405180910390f35b6101a66101d23660046112c1565b6103c2565b6101a66103cf565b6101a66103e5565b6101a66101f53660046112da565b61051b565b6101b16102083660046112da565b610545565b60cc54610220906001600160a01b031681565b6040516001600160a01b0390911681526020016101bb565b6101a6610246366004611303565b61059a565b60975460ff1660405190151581526020016101bb565b6101a66107bc565b6101a66107d0565b6101a6610846565b6033546001600160a01b0316610220565b6101b161084e565b6101a66102a0366004611303565b610899565b6101b160d55481565b6101b160d35481565b6101b16102c5366004611378565b610abf565b6101a66102d83660046112da565b610b16565b6101b160d25481565b60cb54610220906001600160a01b031681565b61030c6103073660046112da565b610b40565b6040516101bb919061139a565b6101b160d65481565b6101b160d45481565b6101a66103393660046112da565b610bfc565b610346610c75565b805182511461035457600080fd5b60005b82518110156103bd57818181518110610372576103726113de565b602002602001015160d16000858481518110610390576103906113de565b602002602001015181526020019081526020016000208190555080806103b59061140a565b915050610357565b505050565b6103ca610c75565b60cd55565b6103d7610c75565b6103df610ccf565b4360d755565b60026065540361043c5760405162461bcd60e51b815260206004820152601f60248201527f5265656e7472616e637947756172643a207265656e7472616e742063616c6c0060448201526064015b60405180910390fd5b6002606555600061044c33610545565b9050600081116104955760405162461bcd60e51b81526020600482015260146024820152734e46545374616b653a204e6f207265776172647360601b6044820152606401610433565b33600090815260cf60205260408120556104ad61084e565b33600090815260cf602052604081206003019190915560d480548392906104d5908490611423565b909155505060408051338152602081018390527f121c5042302bae5fc561fbc64368f297ca60a880878e1e3a7f7e9380377260bf910160405180910390a1506001606555565b610523610c75565b60cb80546001600160a01b0319166001600160a01b0392909216919091179055565b6001600160a01b038116600090815260cf6020526040812060038101546002909101546105949161057591610abf565b6001600160a01b038416600090815260cf602052604090205490610d21565b92915050565b6105a2610d34565b33600090815260cf6020908152604080832081516080810183528154815260018201549381018490526002820154928101929092526003015460608201529103610688576040518060800160405280600081526020014381526020016000815260200161060d61084e565b905233600081815260cf60209081526040808320855181559185015160018084019190915590850151600283015560609094015160039091015560d08054938401815590527fe89d44c8fd6a9bac8af33ce47f56337617d449bf7ff3956b618c646de829cbcb90910180546001600160a01b03191690911790555b604081015160005b838110156107ab5760cb546001600160a01b03166323b872dd33308888868181106106bd576106bd6113de565b6040516001600160e01b031960e088901b1681526001600160a01b03958616600482015294909316602485015250602090910201356044820152606401600060405180830381600087803b15801561071457600080fd5b505af1158015610728573d6000803e3d6000fd5b5050505061075f858583818110610741576107416113de565b33600090815260ce6020908152604090912093910201359050610d7a565b5060d16000868684818110610776576107766113de565b90506020020135815260200190815260200160002054826107979190611423565b9150806107a38161140a565b915050610690565b506107b63382610d86565b50505050565b6107c4610c75565b6107ce6000610e79565b565b60d85460ff16156108195760405162461bcd60e51b8152602060048201526013602482015272105b1c9958591e481a5b9a5d1a585b1a5e9959606a1b6044820152606401610433565b60d8805460ff1916600117905561082e610ecb565b610836610ef9565b61083e610f29565b6107ce610f5c565b61083e610c75565b600060d7546000036108605750600090565b600060d75443610870919061143b565b905061089361088a60cd5483610f9990919063ffffffff16565b60d45490610d21565b91505090565b6108a1610d34565b6002606554036108f35760405162461bcd60e51b815260206004820152601f60248201527f5265656e7472616e637947756172643a207265656e7472616e742063616c6c006044820152606401610433565b6002606581905533600090815260cf6020526040812090910154905b82811015610aaa5761094a84848381811061092c5761092c6113de565b33600090815260ce6020908152604090912093910201359050610fa5565b6109965760405162461bcd60e51b815260206004820181905260248201527f5374616b696e673a20596f7520617265206e6f7420746f6b656e206f776e65726044820152606401610433565b60d160008585848181106109ac576109ac6113de565b90506020020135815260200190815260200160002054826109cd919061143b565b9150610a028484838181106109e4576109e46113de565b33600090815260ce6020908152604090912093910201359050610fbd565b5060cb546001600160a01b03166323b872dd3033878786818110610a2857610a286113de565b6040516001600160e01b031960e088901b1681526001600160a01b03958616600482015294909316602485015250602090910201356044820152606401600060405180830381600087803b158015610a7f57600080fd5b505af1158015610a93573d6000803e3d6000fd5b505050508080610aa29061140a565b91505061090f565b50610ab53382610d86565b5050600160655550565b600081600003610ad157506000610594565b6000610ae584610adf61084e565b90610fc9565b90508015610b0c5760d254610b0490610afe8386610f99565b90610fd5565b915050610594565b5060009392505050565b610b1e610c75565b60cc80546001600160a01b0319166001600160a01b0392909216919091179055565b6001600160a01b038116600090815260ce60205260408120606091610b6482610fe1565b67ffffffffffffffff811115610b7c57610b7c6111ac565b604051908082528060200260200182016040528015610ba5578160200160208202803683370190505b50905060005b610bb483610fe1565b811015610bf457610bc58382610feb565b828281518110610bd757610bd76113de565b602090810291909101015280610bec8161140a565b915050610bab565b509392505050565b610c04610c75565b6001600160a01b038116610c695760405162461bcd60e51b815260206004820152602660248201527f4f776e61626c653a206e6577206f776e657220697320746865207a65726f206160448201526564647265737360d01b6064820152608401610433565b610c7281610e79565b50565b6033546001600160a01b031633146107ce5760405162461bcd60e51b815260206004820181905260248201527f4f776e61626c653a2063616c6c6572206973206e6f7420746865206f776e65726044820152606401610433565b610cd7610ff7565b6097805460ff191690557f5db9ee0a495bf2e6ff9c91a7834c1ba4fdd244a5e8aa4e537bd38aeae4b073aa335b6040516001600160a01b03909116815260200160405180910390a1565b6000610d2d8284611423565b9392505050565b60975460ff16156107ce5760405162461bcd60e51b815260206004820152601060248201526f14185d5cd8589b194e881c185d5cd95960821b6044820152606401610433565b6000610d2d8383611040565b610d8f82610545565b6001600160a01b038316600090815260cf6020526040902055610db061084e565b6001600160a01b038316600090815260cf602052604090206003015560d25460d35411610e0f57610e00610df760d6546102c560d35460d254610fc990919063ffffffff16565b60d55490610d21565b60d555610e0b61084e565b60d6555b6001600160a01b038216600090815260cf602052604090206002015460d354610e43918391610e3d91610fc9565b90610d21565b60d381905560d254811115610e595760d35460d2555b506001600160a01b03909116600090815260cf6020526040902060020155565b603380546001600160a01b038381166001600160a01b0319831681179093556040519116919082907f8be0079c531659141344cd1fd0a4f28419497f9722a3daafe3b4186f6b6457e090600090a35050565b600054610100900460ff16610ef25760405162461bcd60e51b815260040161043390611452565b6001606555565b600054610100900460ff16610f205760405162461bcd60e51b815260040161043390611452565b6107ce33610e79565b600054610100900460ff16610f505760405162461bcd60e51b815260040161043390611452565b6097805460ff19169055565b610f64610d34565b6097805460ff191660011790557f62e78cea01bee320cd4e420270b5ea74000d11b0c9f74754ebdbfc544b05a258610d043390565b6000610d2d828461149d565b60008181526001830160205260408120541515610d2d565b6000610d2d838361108f565b6000610d2d828461143b565b6000610d2d82846114bc565b6000610594825490565b6000610d2d8383611182565b60975460ff166107ce5760405162461bcd60e51b815260206004820152601460248201527314185d5cd8589b194e881b9bdd081c185d5cd95960621b6044820152606401610433565b600081815260018301602052604081205461108757508154600181810184556000848152602080822090930184905584548482528286019093526040902091909155610594565b506000610594565b600081815260018301602052604081205480156111785760006110b360018361143b565b85549091506000906110c79060019061143b565b905081811461112c5760008660000182815481106110e7576110e76113de565b906000526020600020015490508087600001848154811061110a5761110a6113de565b6000918252602080832090910192909255918252600188019052604090208390555b855486908061113d5761113d6114de565b600190038181906000526020600020016000905590558560010160008681526020019081526020016000206000905560019350505050610594565b6000915050610594565b6000826000018281548110611199576111996113de565b9060005260206000200154905092915050565b634e487b7160e01b600052604160045260246000fd5b600082601f8301126111d357600080fd5b8135602067ffffffffffffffff808311156111f0576111f06111ac565b8260051b604051601f19603f83011681018181108482111715611215576112156111ac565b60405293845285810183019383810192508785111561123357600080fd5b83870191505b8482101561125257813583529183019190830190611239565b979650505050505050565b6000806040838503121561127057600080fd5b823567ffffffffffffffff8082111561128857600080fd5b611294868387016111c2565b935060208501359150808211156112aa57600080fd5b506112b7858286016111c2565b9150509250929050565b6000602082840312156112d357600080fd5b5035919050565b6000602082840312156112ec57600080fd5b81356001600160a01b0381168114610d2d57600080fd5b6000806020838503121561131657600080fd5b823567ffffffffffffffff8082111561132e57600080fd5b818501915085601f83011261134257600080fd5b81358181111561135157600080fd5b8660208260051b850101111561136657600080fd5b60209290920196919550909350505050565b6000806040838503121561138b57600080fd5b50508035926020909101359150565b6020808252825182820181905260009190848201906040850190845b818110156113d2578351835292840192918401916001016113b6565b50909695505050505050565b634e487b7160e01b600052603260045260246000fd5b634e487b7160e01b600052601160045260246000fd5b60006001820161141c5761141c6113f4565b5060010190565b60008219821115611436576114366113f4565b500190565b60008282101561144d5761144d6113f4565b500390565b6020808252602b908201527f496e697469616c697a61626c653a20636f6e7472616374206973206e6f74206960408201526a6e697469616c697a696e6760a81b606082015260800190565b60008160001904831182151516156114b7576114b76113f4565b500290565b6000826114d957634e487b7160e01b600052601260045260246000fd5b500490565b634e487b7160e01b600052603160045260246000fdfea26469706673582212207d1879fb70b6e85f0bc555df75d1eb72566e24e11325d2949dfad333ea197f6464736f6c634300080d0033","opcodes":"PUSH1 0x80 PUSH1 0x40 MSTORE PUSH1 0x0 PUSH1 0xD4 DUP2 SWAP1 SSTORE PUSH1 0xD5 DUP2 SWAP1 SSTORE PUSH1 0xD6 DUP2 SWAP1 SSTORE PUSH1 0xD7 SSTORE PUSH1 0xD8 DUP1 SLOAD PUSH1 0xFF NOT AND SWAP1 SSTORE CALLVALUE DUP1 ISZERO PUSH2 0x2E JUMPI PUSH1 0x0 DUP1 REVERT JUMPDEST POP PUSH2 0x152A DUP1 PUSH2 0x3E PUSH1 0x0 CODECOPY PUSH1 0x0 RETURN INVALID PUSH1 0x80 PUSH1 0x40 MSTORE CALLVALUE DUP1 ISZERO PUSH2 0x10 JUMPI PUSH1 0x0 DUP1 REVERT JUMPDEST POP PUSH1 0x4 CALLDATASIZE LT PUSH2 0x18E JUMPI PUSH1 0x0 CALLDATALOAD PUSH1 0xE0 SHR DUP1 PUSH4 0x8DA5CB5B GT PUSH2 0xDE JUMPI DUP1 PUSH4 0xBBCD5BBE GT PUSH2 0x97 JUMPI DUP1 PUSH4 0xE3A9DB1A GT PUSH2 0x71 JUMPI DUP1 PUSH4 0xE3A9DB1A EQ PUSH2 0x2F9 JUMPI DUP1 PUSH4 0xED18A6BA EQ PUSH2 0x319 JUMPI DUP1 PUSH4 0xED9074C1 EQ PUSH2 0x322 JUMPI DUP1 PUSH4 0xF2FDE38B EQ PUSH2 0x32B JUMPI PUSH1 0x0 DUP1 REVERT JUMPDEST DUP1 PUSH4 0xBBCD5BBE EQ PUSH2 0x2CA JUMPI DUP1 PUSH4 0xC16E0461 EQ PUSH2 0x2DD JUMPI DUP1 PUSH4 0xD56D229D EQ PUSH2 0x2E6 JUMPI PUSH1 0x0 DUP1 REVERT JUMPDEST DUP1 PUSH4 0x8DA5CB5B EQ PUSH2 0x279 JUMPI DUP1 PUSH4 0x96132521 EQ PUSH2 0x28A JUMPI DUP1 PUSH4 0x983D95CE EQ PUSH2 0x292 JUMPI DUP1 PUSH4 0x99B72CCB EQ PUSH2 0x2A5 JUMPI DUP1 PUSH4 0xA15D5316 EQ PUSH2 0x2AE JUMPI DUP1 PUSH4 0xB181E5FF EQ PUSH2 0x2B7 JUMPI PUSH1 0x0 DUP1 REVERT JUMPDEST DUP1 PUSH4 0x543FD313 GT PUSH2 0x14B JUMPI DUP1 PUSH4 0x5C975ABB GT PUSH2 0x125 JUMPI DUP1 PUSH4 0x5C975ABB EQ PUSH2 0x24B JUMPI DUP1 PUSH4 0x715018A6 EQ PUSH2 0x261 JUMPI DUP1 PUSH4 0x8129FC1C EQ PUSH2 0x269 JUMPI DUP1 PUSH4 0x8456CB59 EQ PUSH2 0x271 JUMPI PUSH1 0x0 DUP1 REVERT JUMPDEST DUP1 PUSH4 0x543FD313 EQ PUSH2 0x1FA JUMPI DUP1 PUSH4 0x55A373D6 EQ PUSH2 0x20D JUMPI DUP1 PUSH4 0x598B8E71 EQ PUSH2 0x238 JUMPI PUSH1 0x0 DUP1 REVERT JUMPDEST DUP1 PUSH4 0x17909B7D EQ PUSH2 0x193 JUMPI DUP1 PUSH4 0x2C4E722E EQ PUSH2 0x1A8 JUMPI DUP1 PUSH4 0x34FCF437 EQ PUSH2 0x1C4 JUMPI DUP1 PUSH4 0x3F4BA83A EQ PUSH2 0x1D7 JUMPI DUP1 PUSH4 0x4641257D EQ PUSH2 0x1DF JUMPI DUP1 PUSH4 0x52F5AD77 EQ PUSH2 0x1E7 JUMPI JUMPDEST PUSH1 0x0 DUP1 REVERT JUMPDEST PUSH2 0x1A6 PUSH2 0x1A1 CALLDATASIZE PUSH1 0x4 PUSH2 0x125D JUMP JUMPDEST PUSH2 0x33E JUMP JUMPDEST STOP JUMPDEST PUSH2 0x1B1 PUSH1 0xCD SLOAD DUP2 JUMP JUMPDEST PUSH1 0x40 MLOAD SWAP1 DUP2 MSTORE PUSH1 0x20 ADD JUMPDEST PUSH1 0x40 MLOAD DUP1 SWAP2 SUB SWAP1 RETURN JUMPDEST PUSH2 0x1A6 PUSH2 0x1D2 CALLDATASIZE PUSH1 0x4 PUSH2 0x12C1 JUMP JUMPDEST PUSH2 0x3C2 JUMP JUMPDEST PUSH2 0x1A6 PUSH2 0x3CF JUMP JUMPDEST PUSH2 0x1A6 PUSH2 0x3E5 JUMP JUMPDEST PUSH2 0x1A6 PUSH2 0x1F5 CALLDATASIZE PUSH1 0x4 PUSH2 0x12DA JUMP JUMPDEST PUSH2 0x51B JUMP JUMPDEST PUSH2 0x1B1 PUSH2 0x208 CALLDATASIZE PUSH1 0x4 PUSH2 0x12DA JUMP JUMPDEST PUSH2 0x545 JUMP JUMPDEST PUSH1 0xCC SLOAD PUSH2 0x220 SWAP1 PUSH1 0x1 PUSH1 0x1 PUSH1 0xA0 SHL SUB AND DUP2 JUMP JUMPDEST PUSH1 0x40 MLOAD PUSH1 0x1 PUSH1 0x1 PUSH1 0xA0 SHL SUB SWAP1 SWAP2 AND DUP2 MSTORE PUSH1 0x20 ADD PUSH2 0x1BB JUMP JUMPDEST PUSH2 0x1A6 PUSH2 0x246 CALLDATASIZE PUSH1 0x4 PUSH2 0x1303 JUMP JUMPDEST PUSH2 0x59A JUMP JUMPDEST PUSH1 0x97 SLOAD PUSH1 0xFF AND PUSH1 0x40 MLOAD SWAP1 ISZERO ISZERO DUP2 MSTORE PUSH1 0x20 ADD PUSH2 0x1BB JUMP JUMPDEST PUSH2 0x1A6 PUSH2 0x7BC JUMP JUMPDEST PUSH2 0x1A6 PUSH2 0x7D0 JUMP JUMPDEST PUSH2 0x1A6 PUSH2 0x846 JUMP JUMPDEST PUSH1 0x33 SLOAD PUSH1 0x1 PUSH1 0x1 PUSH1 0xA0 SHL SUB AND PUSH2 0x220 JUMP JUMPDEST PUSH2 0x1B1 PUSH2 0x84E JUMP JUMPDEST PUSH2 0x1A6 PUSH2 0x2A0 CALLDATASIZE PUSH1 0x4 PUSH2 0x1303 JUMP JUMPDEST PUSH2 0x899 JUMP JUMPDEST PUSH2 0x1B1 PUSH1 0xD5 SLOAD DUP2 JUMP JUMPDEST PUSH2 0x1B1 PUSH1 0xD3 SLOAD DUP2 JUMP JUMPDEST PUSH2 0x1B1 PUSH2 0x2C5 CALLDATASIZE PUSH1 0x4 PUSH2 0x1378 JUMP JUMPDEST PUSH2 0xABF JUMP JUMPDEST PUSH2 0x1A6 PUSH2 0x2D8 CALLDATASIZE PUSH1 0x4 PUSH2 0x12DA JUMP JUMPDEST PUSH2 0xB16 JUMP JUMPDEST PUSH2 0x1B1 PUSH1 0xD2 SLOAD DUP2 JUMP JUMPDEST PUSH1 0xCB SLOAD PUSH2 0x220 SWAP1 PUSH1 0x1 PUSH1 0x1 PUSH1 0xA0 SHL SUB AND DUP2 JUMP JUMPDEST PUSH2 0x30C PUSH2 0x307 CALLDATASIZE PUSH1 0x4 PUSH2 0x12DA JUMP JUMPDEST PUSH2 0xB40 JUMP JUMPDEST PUSH1 0x40 MLOAD PUSH2 0x1BB SWAP2 SWAP1 PUSH2 0x139A JUMP JUMPDEST PUSH2 0x1B1 PUSH1 0xD6 SLOAD DUP2 JUMP JUMPDEST PUSH2 0x1B1 PUSH1 0xD4 SLOAD DUP2 JUMP JUMPDEST PUSH2 0x1A6 PUSH2 0x339 CALLDATASIZE PUSH1 0x4 PUSH2 0x12DA JUMP JUMPDEST PUSH2 0xBFC JUMP JUMPDEST PUSH2 0x346 PUSH2 0xC75 JUMP JUMPDEST DUP1 MLOAD DUP3 MLOAD EQ PUSH2 0x354 JUMPI PUSH1 0x0 DUP1 REVERT JUMPDEST PUSH1 0x0 JUMPDEST DUP3 MLOAD DUP2 LT ISZERO PUSH2 0x3BD JUMPI DUP2 DUP2 DUP2 MLOAD DUP2 LT PUSH2 0x372 JUMPI PUSH2 0x372 PUSH2 0x13DE JUMP JUMPDEST PUSH1 0x20 MUL PUSH1 0x20 ADD ADD MLOAD PUSH1 0xD1 PUSH1 0x0 DUP6 DUP5 DUP2 MLOAD DUP2 LT PUSH2 0x390 JUMPI PUSH2 0x390 PUSH2 0x13DE JUMP JUMPDEST PUSH1 0x20 MUL PUSH1 0x20 ADD ADD MLOAD DUP2 MSTORE PUSH1 0x20 ADD SWAP1 DUP2 MSTORE PUSH1 0x20 ADD PUSH1 0x0 KECCAK256 DUP2 SWAP1 SSTORE POP DUP1 DUP1 PUSH2 0x3B5 SWAP1 PUSH2 0x140A JUMP JUMPDEST SWAP2 POP POP PUSH2 0x357 JUMP JUMPDEST POP POP POP JUMP JUMPDEST PUSH2 0x3CA PUSH2 0xC75 JUMP JUMPDEST PUSH1 0xCD SSTORE JUMP JUMPDEST PUSH2 0x3D7 PUSH2 0xC75 JUMP JUMPDEST PUSH2 0x3DF PUSH2 0xCCF JUMP JUMPDEST NUMBER PUSH1 0xD7 SSTORE JUMP JUMPDEST PUSH1 0x2 PUSH1 0x65 SLOAD SUB PUSH2 0x43C JUMPI PUSH1 0x40 MLOAD PUSH3 0x461BCD PUSH1 0xE5 SHL DUP2 MSTORE PUSH1 0x20 PUSH1 0x4 DUP3 ADD MSTORE PUSH1 0x1F PUSH1 0x24 DUP3 ADD MSTORE PUSH32 0x5265656E7472616E637947756172643A207265656E7472616E742063616C6C00 PUSH1 0x44 DUP3 ADD MSTORE PUSH1 0x64 ADD JUMPDEST PUSH1 0x40 MLOAD DUP1 SWAP2 SUB SWAP1 REVERT JUMPDEST PUSH1 0x2 PUSH1 0x65 SSTORE PUSH1 0x0 PUSH2 0x44C CALLER PUSH2 0x545 JUMP JUMPDEST SWAP1 POP PUSH1 0x0 DUP2 GT PUSH2 0x495 JUMPI PUSH1 0x40 MLOAD PUSH3 0x461BCD PUSH1 0xE5 SHL DUP2 MSTORE PUSH1 0x20 PUSH1 0x4 DUP3 ADD MSTORE PUSH1 0x14 PUSH1 0x24 DUP3 ADD MSTORE PUSH20 0x4E46545374616B653A204E6F2072657761726473 PUSH1 0x60 SHL PUSH1 0x44 DUP3 ADD MSTORE PUSH1 0x64 ADD PUSH2 0x433 JUMP JUMPDEST CALLER PUSH1 0x0 SWAP1 DUP2 MSTORE PUSH1 0xCF PUSH1 0x20 MSTORE PUSH1 0x40 DUP2 KECCAK256 SSTORE PUSH2 0x4AD PUSH2 0x84E JUMP JUMPDEST CALLER PUSH1 0x0 SWAP1 DUP2 MSTORE PUSH1 0xCF PUSH1 0x20 MSTORE PUSH1 0x40 DUP2 KECCAK256 PUSH1 0x3 ADD SWAP2 SWAP1 SWAP2 SSTORE PUSH1 0xD4 DUP1 SLOAD DUP4 SWAP3 SWAP1 PUSH2 0x4D5 SWAP1 DUP5 SWAP1 PUSH2 0x1423 JUMP JUMPDEST SWAP1 SWAP2 SSTORE POP POP PUSH1 0x40 DUP1 MLOAD CALLER DUP2 MSTORE PUSH1 0x20 DUP2 ADD DUP4 SWAP1 MSTORE PUSH32 0x121C5042302BAE5FC561FBC64368F297CA60A880878E1E3A7F7E9380377260BF SWAP2 ADD PUSH1 0x40 MLOAD DUP1 SWAP2 SUB SWAP1 LOG1 POP PUSH1 0x1 PUSH1 0x65 SSTORE JUMP JUMPDEST PUSH2 0x523 PUSH2 0xC75 JUMP JUMPDEST PUSH1 0xCB DUP1 SLOAD PUSH1 0x1 PUSH1 0x1 PUSH1 0xA0 SHL SUB NOT AND PUSH1 0x1 PUSH1 0x1 PUSH1 0xA0 SHL SUB SWAP3 SWAP1 SWAP3 AND SWAP2 SWAP1 SWAP2 OR SWAP1 SSTORE JUMP JUMPDEST PUSH1 0x1 PUSH1 0x1 PUSH1 0xA0 SHL SUB DUP2 AND PUSH1 0x0 SWAP1 DUP2 MSTORE PUSH1 0xCF PUSH1 0x20 MSTORE PUSH1 0x40 DUP2 KECCAK256 PUSH1 0x3 DUP2 ADD SLOAD PUSH1 0x2 SWAP1 SWAP2 ADD SLOAD PUSH2 0x594 SWAP2 PUSH2 0x575 SWAP2 PUSH2 0xABF JUMP JUMPDEST PUSH1 0x1 PUSH1 0x1 PUSH1 0xA0 SHL SUB DUP5 AND PUSH1 0x0 SWAP1 DUP2 MSTORE PUSH1 0xCF PUSH1 0x20 MSTORE PUSH1 0x40 SWAP1 KECCAK256 SLOAD SWAP1 PUSH2 0xD21 JUMP JUMPDEST SWAP3 SWAP2 POP POP JUMP JUMPDEST PUSH2 0x5A2 PUSH2 0xD34 JUMP JUMPDEST CALLER PUSH1 0x0 SWAP1 DUP2 MSTORE PUSH1 0xCF PUSH1 0x20 SWAP1 DUP2 MSTORE PUSH1 0x40 DUP1 DUP4 KECCAK256 DUP2 MLOAD PUSH1 0x80 DUP2 ADD DUP4 MSTORE DUP2 SLOAD DUP2 MSTORE PUSH1 0x1 DUP3 ADD SLOAD SWAP4 DUP2 ADD DUP5 SWAP1 MSTORE PUSH1 0x2 DUP3 ADD SLOAD SWAP3 DUP2 ADD SWAP3 SWAP1 SWAP3 MSTORE PUSH1 0x3 ADD SLOAD PUSH1 0x60 DUP3 ADD MSTORE SWAP2 SUB PUSH2 0x688 JUMPI PUSH1 0x40 MLOAD DUP1 PUSH1 0x80 ADD PUSH1 0x40 MSTORE DUP1 PUSH1 0x0 DUP2 MSTORE PUSH1 0x20 ADD NUMBER DUP2 MSTORE PUSH1 0x20 ADD PUSH1 0x0 DUP2 MSTORE PUSH1 0x20 ADD PUSH2 0x60D PUSH2 0x84E JUMP JUMPDEST SWAP1 MSTORE CALLER PUSH1 0x0 DUP2 DUP2 MSTORE PUSH1 0xCF PUSH1 0x20 SWAP1 DUP2 MSTORE PUSH1 0x40 DUP1 DUP4 KECCAK256 DUP6 MLOAD DUP2 SSTORE SWAP2 DUP6 ADD MLOAD PUSH1 0x1 DUP1 DUP5 ADD SWAP2 SWAP1 SWAP2 SSTORE SWAP1 DUP6 ADD MLOAD PUSH1 0x2 DUP4 ADD SSTORE PUSH1 0x60 SWAP1 SWAP5 ADD MLOAD PUSH1 0x3 SWAP1 SWAP2 ADD SSTORE PUSH1 0xD0 DUP1 SLOAD SWAP4 DUP5 ADD DUP2 SSTORE SWAP1 MSTORE PUSH32 0xE89D44C8FD6A9BAC8AF33CE47F56337617D449BF7FF3956B618C646DE829CBCB SWAP1 SWAP2 ADD DUP1 SLOAD PUSH1 0x1 PUSH1 0x1 PUSH1 0xA0 SHL SUB NOT AND SWAP1 SWAP2 OR SWAP1 SSTORE JUMPDEST PUSH1 0x40 DUP2 ADD MLOAD PUSH1 0x0 JUMPDEST DUP4 DUP2 LT ISZERO PUSH2 0x7AB JUMPI PUSH1 0xCB SLOAD PUSH1 0x1 PUSH1 0x1 PUSH1 0xA0 SHL SUB AND PUSH4 0x23B872DD CALLER ADDRESS DUP9 DUP9 DUP7 DUP2 DUP2 LT PUSH2 0x6BD JUMPI PUSH2 0x6BD PUSH2 0x13DE JUMP JUMPDEST PUSH1 0x40 MLOAD PUSH1 0x1 PUSH1 0x1 PUSH1 0xE0 SHL SUB NOT PUSH1 0xE0 DUP9 SWAP1 SHL AND DUP2 MSTORE PUSH1 0x1 PUSH1 0x1 PUSH1 0xA0 SHL SUB SWAP6 DUP7 AND PUSH1 0x4 DUP3 ADD MSTORE SWAP5 SWAP1 SWAP4 AND PUSH1 0x24 DUP6 ADD MSTORE POP PUSH1 0x20 SWAP1 SWAP2 MUL ADD CALLDATALOAD PUSH1 0x44 DUP3 ADD MSTORE PUSH1 0x64 ADD PUSH1 0x0 PUSH1 0x40 MLOAD DUP1 DUP4 SUB DUP2 PUSH1 0x0 DUP8 DUP1 EXTCODESIZE ISZERO DUP1 ISZERO PUSH2 0x714 JUMPI PUSH1 0x0 DUP1 REVERT JUMPDEST POP GAS CALL ISZERO DUP1 ISZERO PUSH2 0x728 JUMPI RETURNDATASIZE PUSH1 0x0 DUP1 RETURNDATACOPY RETURNDATASIZE PUSH1 0x0 REVERT JUMPDEST POP POP POP POP PUSH2 0x75F DUP6 DUP6 DUP4 DUP2 DUP2 LT PUSH2 0x741 JUMPI PUSH2 0x741 PUSH2 0x13DE JUMP JUMPDEST CALLER PUSH1 0x0 SWAP1 DUP2 MSTORE PUSH1 0xCE PUSH1 0x20 SWAP1 DUP2 MSTORE PUSH1 0x40 SWAP1 SWAP2 KECCAK256 SWAP4 SWAP2 MUL ADD CALLDATALOAD SWAP1 POP PUSH2 0xD7A JUMP JUMPDEST POP PUSH1 0xD1 PUSH1 0x0 DUP7 DUP7 DUP5 DUP2 DUP2 LT PUSH2 0x776 JUMPI PUSH2 0x776 PUSH2 0x13DE JUMP JUMPDEST SWAP1 POP PUSH1 0x20 MUL ADD CALLDATALOAD DUP2 MSTORE PUSH1 0x20 ADD SWAP1 DUP2 MSTORE PUSH1 0x20 ADD PUSH1 0x0 KECCAK256 SLOAD DUP3 PUSH2 0x797 SWAP2 SWAP1 PUSH2 0x1423 JUMP JUMPDEST SWAP2 POP DUP1 PUSH2 0x7A3 DUP2 PUSH2 0x140A JUMP JUMPDEST SWAP2 POP POP PUSH2 0x690 JUMP JUMPDEST POP PUSH2 0x7B6 CALLER DUP3 PUSH2 0xD86 JUMP JUMPDEST POP POP POP POP JUMP JUMPDEST PUSH2 0x7C4 PUSH2 0xC75 JUMP JUMPDEST PUSH2 0x7CE PUSH1 0x0 PUSH2 0xE79 JUMP JUMPDEST JUMP JUMPDEST PUSH1 0xD8 SLOAD PUSH1 0xFF AND ISZERO PUSH2 0x819 JUMPI PUSH1 0x40 MLOAD PUSH3 0x461BCD PUSH1 0xE5 SHL DUP2 MSTORE PUSH1 0x20 PUSH1 0x4 DUP3 ADD MSTORE PUSH1 0x13 PUSH1 0x24 DUP3 ADD MSTORE PUSH19 0x105B1C9958591E481A5B9A5D1A585B1A5E9959 PUSH1 0x6A SHL PUSH1 0x44 DUP3 ADD MSTORE PUSH1 0x64 ADD PUSH2 0x433 JUMP JUMPDEST PUSH1 0xD8 DUP1 SLOAD PUSH1 0xFF NOT AND PUSH1 0x1 OR SWAP1 SSTORE PUSH2 0x82E PUSH2 0xECB JUMP JUMPDEST PUSH2 0x836 PUSH2 0xEF9 JUMP JUMPDEST PUSH2 0x83E PUSH2 0xF29 JUMP JUMPDEST PUSH2 0x7CE PUSH2 0xF5C JUMP JUMPDEST PUSH2 0x83E PUSH2 0xC75 JUMP JUMPDEST PUSH1 0x0 PUSH1 0xD7 SLOAD PUSH1 0x0 SUB PUSH2 0x860 JUMPI POP PUSH1 0x0 SWAP1 JUMP JUMPDEST PUSH1 0x0 PUSH1 0xD7 SLOAD NUMBER PUSH2 0x870 SWAP2 SWAP1 PUSH2 0x143B JUMP JUMPDEST SWAP1 POP PUSH2 0x893 PUSH2 0x88A PUSH1 0xCD SLOAD DUP4 PUSH2 0xF99 SWAP1 SWAP2 SWAP1 PUSH4 0xFFFFFFFF AND JUMP JUMPDEST PUSH1 0xD4 SLOAD SWAP1 PUSH2 0xD21 JUMP JUMPDEST SWAP2 POP POP SWAP1 JUMP JUMPDEST PUSH2 0x8A1 PUSH2 0xD34 JUMP JUMPDEST PUSH1 0x2 PUSH1 0x65 SLOAD SUB PUSH2 0x8F3 JUMPI PUSH1 0x40 MLOAD PUSH3 0x461BCD PUSH1 0xE5 SHL DUP2 MSTORE PUSH1 0x20 PUSH1 0x4 DUP3 ADD MSTORE PUSH1 0x1F PUSH1 0x24 DUP3 ADD MSTORE PUSH32 0x5265656E7472616E637947756172643A207265656E7472616E742063616C6C00 PUSH1 0x44 DUP3 ADD MSTORE PUSH1 0x64 ADD PUSH2 0x433 JUMP JUMPDEST PUSH1 0x2 PUSH1 0x65 DUP2 SWAP1 SSTORE CALLER PUSH1 0x0 SWAP1 DUP2 MSTORE PUSH1 0xCF PUSH1 0x20 MSTORE PUSH1 0x40 DUP2 KECCAK256 SWAP1 SWAP2 ADD SLOAD SWAP1 JUMPDEST DUP3 DUP2 LT ISZERO PUSH2 0xAAA JUMPI PUSH2 0x94A DUP5 DUP5 DUP4 DUP2 DUP2 LT PUSH2 0x92C JUMPI PUSH2 0x92C PUSH2 0x13DE JUMP JUMPDEST CALLER PUSH1 0x0 SWAP1 DUP2 MSTORE PUSH1 0xCE PUSH1 0x20 SWAP1 DUP2 MSTORE PUSH1 0x40 SWAP1 SWAP2 KECCAK256 SWAP4 SWAP2 MUL ADD CALLDATALOAD SWAP1 POP PUSH2 0xFA5 JUMP JUMPDEST PUSH2 0x996 JUMPI PUSH1 0x40 MLOAD PUSH3 0x461BCD PUSH1 0xE5 SHL DUP2 MSTORE PUSH1 0x20 PUSH1 0x4 DUP3 ADD DUP2 SWAP1 MSTORE PUSH1 0x24 DUP3 ADD MSTORE PUSH32 0x5374616B696E673A20596F7520617265206E6F7420746F6B656E206F776E6572 PUSH1 0x44 DUP3 ADD MSTORE PUSH1 0x64 ADD PUSH2 0x433 JUMP JUMPDEST PUSH1 0xD1 PUSH1 0x0 DUP6 DUP6 DUP5 DUP2 DUP2 LT PUSH2 0x9AC JUMPI PUSH2 0x9AC PUSH2 0x13DE JUMP JUMPDEST SWAP1 POP PUSH1 0x20 MUL ADD CALLDATALOAD DUP2 MSTORE PUSH1 0x20 ADD SWAP1 DUP2 MSTORE PUSH1 0x20 ADD PUSH1 0x0 KECCAK256 SLOAD DUP3 PUSH2 0x9CD SWAP2 SWAP1 PUSH2 0x143B JUMP JUMPDEST SWAP2 POP PUSH2 0xA02 DUP5 DUP5 DUP4 DUP2 DUP2 LT PUSH2 0x9E4 JUMPI PUSH2 0x9E4 PUSH2 0x13DE JUMP JUMPDEST CALLER PUSH1 0x0 SWAP1 DUP2 MSTORE PUSH1 0xCE PUSH1 0x20 SWAP1 DUP2 MSTORE PUSH1 0x40 SWAP1 SWAP2 KECCAK256 SWAP4 SWAP2 MUL ADD CALLDATALOAD SWAP1 POP PUSH2 0xFBD JUMP JUMPDEST POP PUSH1 0xCB SLOAD PUSH1 0x1 PUSH1 0x1 PUSH1 0xA0 SHL SUB AND PUSH4 0x23B872DD ADDRESS CALLER DUP8 DUP8 DUP7 DUP2 DUP2 LT PUSH2 0xA28 JUMPI PUSH2 0xA28 PUSH2 0x13DE JUMP JUMPDEST PUSH1 0x40 MLOAD PUSH1 0x1 PUSH1 0x1 PUSH1 0xE0 SHL SUB NOT PUSH1 0xE0 DUP9 SWAP1 SHL AND DUP2 MSTORE PUSH1 0x1 PUSH1 0x1 PUSH1 0xA0 SHL SUB SWAP6 DUP7 AND PUSH1 0x4 DUP3 ADD MSTORE SWAP5 SWAP1 SWAP4 AND PUSH1 0x24 DUP6 ADD MSTORE POP PUSH1 0x20 SWAP1 SWAP2 MUL ADD CALLDATALOAD PUSH1 0x44 DUP3 ADD MSTORE PUSH1 0x64 ADD PUSH1 0x0 PUSH1 0x40 MLOAD DUP1 DUP4 SUB DUP2 PUSH1 0x0 DUP8 DUP1 EXTCODESIZE ISZERO DUP1 ISZERO PUSH2 0xA7F JUMPI PUSH1 0x0 DUP1 REVERT JUMPDEST POP GAS CALL ISZERO DUP1 ISZERO PUSH2 0xA93 JUMPI RETURNDATASIZE PUSH1 0x0 DUP1 RETURNDATACOPY RETURNDATASIZE PUSH1 0x0 REVERT JUMPDEST POP POP POP POP DUP1 DUP1 PUSH2 0xAA2 SWAP1 PUSH2 0x140A JUMP JUMPDEST SWAP2 POP POP PUSH2 0x90F JUMP JUMPDEST POP PUSH2 0xAB5 CALLER DUP3 PUSH2 0xD86 JUMP JUMPDEST POP POP PUSH1 0x1 PUSH1 0x65 SSTORE POP JUMP JUMPDEST PUSH1 0x0 DUP2 PUSH1 0x0 SUB PUSH2 0xAD1 JUMPI POP PUSH1 0x0 PUSH2 0x594 JUMP JUMPDEST PUSH1 0x0 PUSH2 0xAE5 DUP5 PUSH2 0xADF PUSH2 0x84E JUMP JUMPDEST SWAP1 PUSH2 0xFC9 JUMP JUMPDEST SWAP1 POP DUP1 ISZERO PUSH2 0xB0C JUMPI PUSH1 0xD2 SLOAD PUSH2 0xB04 SWAP1 PUSH2 0xAFE DUP4 DUP7 PUSH2 0xF99 JUMP JUMPDEST SWAP1 PUSH2 0xFD5 JUMP JUMPDEST SWAP2 POP POP PUSH2 0x594 JUMP JUMPDEST POP PUSH1 0x0 SWAP4 SWAP3 POP POP POP JUMP JUMPDEST PUSH2 0xB1E PUSH2 0xC75 JUMP JUMPDEST PUSH1 0xCC DUP1 SLOAD PUSH1 0x1 PUSH1 0x1 PUSH1 0xA0 SHL SUB NOT AND PUSH1 0x1 PUSH1 0x1 PUSH1 0xA0 SHL SUB SWAP3 SWAP1 SWAP3 AND SWAP2 SWAP1 SWAP2 OR SWAP1 SSTORE JUMP JUMPDEST PUSH1 0x1 PUSH1 0x1 PUSH1 0xA0 SHL SUB DUP2 AND PUSH1 0x0 SWAP1 DUP2 MSTORE PUSH1 0xCE PUSH1 0x20 MSTORE PUSH1 0x40 DUP2 KECCAK256 PUSH1 0x60 SWAP2 PUSH2 0xB64 DUP3 PUSH2 0xFE1 JUMP JUMPDEST PUSH8 0xFFFFFFFFFFFFFFFF DUP2 GT ISZERO PUSH2 0xB7C JUMPI PUSH2 0xB7C PUSH2 0x11AC JUMP JUMPDEST PUSH1 0x40 MLOAD SWAP1 DUP1 DUP3 MSTORE DUP1 PUSH1 0x20 MUL PUSH1 0x20 ADD DUP3 ADD PUSH1 0x40 MSTORE DUP1 ISZERO PUSH2 0xBA5 JUMPI DUP2 PUSH1 0x20 ADD PUSH1 0x20 DUP3 MUL DUP1 CALLDATASIZE DUP4 CALLDATACOPY ADD SWAP1 POP JUMPDEST POP SWAP1 POP PUSH1 0x0 JUMPDEST PUSH2 0xBB4 DUP4 PUSH2 0xFE1 JUMP JUMPDEST DUP2 LT ISZERO PUSH2 0xBF4 JUMPI PUSH2 0xBC5 DUP4 DUP3 PUSH2 0xFEB JUMP JUMPDEST DUP3 DUP3 DUP2 MLOAD DUP2 LT PUSH2 0xBD7 JUMPI PUSH2 0xBD7 PUSH2 0x13DE JUMP JUMPDEST PUSH1 0x20 SWAP1 DUP2 MUL SWAP2 SWAP1 SWAP2 ADD ADD MSTORE DUP1 PUSH2 0xBEC DUP2 PUSH2 0x140A JUMP JUMPDEST SWAP2 POP POP PUSH2 0xBAB JUMP JUMPDEST POP SWAP4 SWAP3 POP POP POP JUMP JUMPDEST PUSH2 0xC04 PUSH2 0xC75 JUMP JUMPDEST PUSH1 0x1 PUSH1 0x1 PUSH1 0xA0 SHL SUB DUP2 AND PUSH2 0xC69 JUMPI PUSH1 0x40 MLOAD PUSH3 0x461BCD PUSH1 0xE5 SHL DUP2 MSTORE PUSH1 0x20 PUSH1 0x4 DUP3 ADD MSTORE PUSH1 0x26 PUSH1 0x24 DUP3 ADD MSTORE PUSH32 0x4F776E61626C653A206E6577206F776E657220697320746865207A65726F2061 PUSH1 0x44 DUP3 ADD MSTORE PUSH6 0x646472657373 PUSH1 0xD0 SHL PUSH1 0x64 DUP3 ADD MSTORE PUSH1 0x84 ADD PUSH2 0x433 JUMP JUMPDEST PUSH2 0xC72 DUP2 PUSH2 0xE79 JUMP JUMPDEST POP JUMP JUMPDEST PUSH1 0x33 SLOAD PUSH1 0x1 PUSH1 0x1 PUSH1 0xA0 SHL SUB AND CALLER EQ PUSH2 0x7CE JUMPI PUSH1 0x40 MLOAD PUSH3 0x461BCD PUSH1 0xE5 SHL DUP2 MSTORE PUSH1 0x20 PUSH1 0x4 DUP3 ADD DUP2 SWAP1 MSTORE PUSH1 0x24 DUP3 ADD MSTORE PUSH32 0x4F776E61626C653A2063616C6C6572206973206E6F7420746865206F776E6572 PUSH1 0x44 DUP3 ADD MSTORE PUSH1 0x64 ADD PUSH2 0x433 JUMP JUMPDEST PUSH2 0xCD7 PUSH2 0xFF7 JUMP JUMPDEST PUSH1 0x97 DUP1 SLOAD PUSH1 0xFF NOT AND SWAP1 SSTORE PUSH32 0x5DB9EE0A495BF2E6FF9C91A7834C1BA4FDD244A5E8AA4E537BD38AEAE4B073AA CALLER JUMPDEST PUSH1 0x40 MLOAD PUSH1 0x1 PUSH1 0x1 PUSH1 0xA0 SHL SUB SWAP1 SWAP2 AND DUP2 MSTORE PUSH1 0x20 ADD PUSH1 0x40 MLOAD DUP1 SWAP2 SUB SWAP1 LOG1 JUMP JUMPDEST PUSH1 0x0 PUSH2 0xD2D DUP3 DUP5 PUSH2 0x1423 JUMP JUMPDEST SWAP4 SWAP3 POP POP POP JUMP JUMPDEST PUSH1 0x97 SLOAD PUSH1 0xFF AND ISZERO PUSH2 0x7CE JUMPI PUSH1 0x40 MLOAD PUSH3 0x461BCD PUSH1 0xE5 SHL DUP2 MSTORE PUSH1 0x20 PUSH1 0x4 DUP3 ADD MSTORE PUSH1 0x10 PUSH1 0x24 DUP3 ADD MSTORE PUSH16 0x14185D5CD8589B194E881C185D5CD959 PUSH1 0x82 SHL PUSH1 0x44 DUP3 ADD MSTORE PUSH1 0x64 ADD PUSH2 0x433 JUMP JUMPDEST PUSH1 0x0 PUSH2 0xD2D DUP4 DUP4 PUSH2 0x1040 JUMP JUMPDEST PUSH2 0xD8F DUP3 PUSH2 0x545 JUMP JUMPDEST PUSH1 0x1 PUSH1 0x1 PUSH1 0xA0 SHL SUB DUP4 AND PUSH1 0x0 SWAP1 DUP2 MSTORE PUSH1 0xCF PUSH1 0x20 MSTORE PUSH1 0x40 SWAP1 KECCAK256 SSTORE PUSH2 0xDB0 PUSH2 0x84E JUMP JUMPDEST PUSH1 0x1 PUSH1 0x1 PUSH1 0xA0 SHL SUB DUP4 AND PUSH1 0x0 SWAP1 DUP2 MSTORE PUSH1 0xCF PUSH1 0x20 MSTORE PUSH1 0x40 SWAP1 KECCAK256 PUSH1 0x3 ADD SSTORE PUSH1 0xD2 SLOAD PUSH1 0xD3 SLOAD GT PUSH2 0xE0F JUMPI PUSH2 0xE00 PUSH2 0xDF7 PUSH1 0xD6 SLOAD PUSH2 0x2C5 PUSH1 0xD3 SLOAD PUSH1 0xD2 SLOAD PUSH2 0xFC9 SWAP1 SWAP2 SWAP1 PUSH4 0xFFFFFFFF AND JUMP JUMPDEST PUSH1 0xD5 SLOAD SWAP1 PUSH2 0xD21 JUMP JUMPDEST PUSH1 0xD5 SSTORE PUSH2 0xE0B PUSH2 0x84E JUMP JUMPDEST PUSH1 0xD6 SSTORE JUMPDEST PUSH1 0x1 PUSH1 0x1 PUSH1 0xA0 SHL SUB DUP3 AND PUSH1 0x0 SWAP1 DUP2 MSTORE PUSH1 0xCF PUSH1 0x20 MSTORE PUSH1 0x40 SWAP1 KECCAK256 PUSH1 0x2 ADD SLOAD PUSH1 0xD3 SLOAD PUSH2 0xE43 SWAP2 DUP4 SWAP2 PUSH2 0xE3D SWAP2 PUSH2 0xFC9 JUMP JUMPDEST SWAP1 PUSH2 0xD21 JUMP JUMPDEST PUSH1 0xD3 DUP2 SWAP1 SSTORE PUSH1 0xD2 SLOAD DUP2 GT ISZERO PUSH2 0xE59 JUMPI PUSH1 0xD3 SLOAD PUSH1 0xD2 SSTORE JUMPDEST POP PUSH1 0x1 PUSH1 0x1 PUSH1 0xA0 SHL SUB SWAP1 SWAP2 AND PUSH1 0x0 SWAP1 DUP2 MSTORE PUSH1 0xCF PUSH1 0x20 MSTORE PUSH1 0x40 SWAP1 KECCAK256 PUSH1 0x2 ADD SSTORE JUMP JUMPDEST PUSH1 0x33 DUP1 SLOAD PUSH1 0x1 PUSH1 0x1 PUSH1 0xA0 SHL SUB DUP4 DUP2 AND PUSH1 0x1 PUSH1 0x1 PUSH1 0xA0 SHL SUB NOT DUP4 AND DUP2 OR SWAP1 SWAP4 SSTORE PUSH1 0x40 MLOAD SWAP2 AND SWAP2 SWAP1 DUP3 SWAP1 PUSH32 0x8BE0079C531659141344CD1FD0A4F28419497F9722A3DAAFE3B4186F6B6457E0 SWAP1 PUSH1 0x0 SWAP1 LOG3 POP POP JUMP JUMPDEST PUSH1 0x0 SLOAD PUSH2 0x100 SWAP1 DIV PUSH1 0xFF AND PUSH2 0xEF2 JUMPI PUSH1 0x40 MLOAD PUSH3 0x461BCD PUSH1 0xE5 SHL DUP2 MSTORE PUSH1 0x4 ADD PUSH2 0x433 SWAP1 PUSH2 0x1452 JUMP JUMPDEST PUSH1 0x1 PUSH1 0x65 SSTORE JUMP JUMPDEST PUSH1 0x0 SLOAD PUSH2 0x100 SWAP1 DIV PUSH1 0xFF AND PUSH2 0xF20 JUMPI PUSH1 0x40 MLOAD PUSH3 0x461BCD PUSH1 0xE5 SHL DUP2 MSTORE PUSH1 0x4 ADD PUSH2 0x433 SWAP1 PUSH2 0x1452 JUMP JUMPDEST PUSH2 0x7CE CALLER PUSH2 0xE79 JUMP JUMPDEST PUSH1 0x0 SLOAD PUSH2 0x100 SWAP1 DIV PUSH1 0xFF AND PUSH2 0xF50 JUMPI PUSH1 0x40 MLOAD PUSH3 0x461BCD PUSH1 0xE5 SHL DUP2 MSTORE PUSH1 0x4 ADD PUSH2 0x433 SWAP1 PUSH2 0x1452 JUMP JUMPDEST PUSH1 0x97 DUP1 SLOAD PUSH1 0xFF NOT AND SWAP1 SSTORE JUMP JUMPDEST PUSH2 0xF64 PUSH2 0xD34 JUMP JUMPDEST PUSH1 0x97 DUP1 SLOAD PUSH1 0xFF NOT AND PUSH1 0x1 OR SWAP1 SSTORE PUSH32 0x62E78CEA01BEE320CD4E420270B5EA74000D11B0C9F74754EBDBFC544B05A258 PUSH2 0xD04 CALLER SWAP1 JUMP JUMPDEST PUSH1 0x0 PUSH2 0xD2D DUP3 DUP5 PUSH2 0x149D JUMP JUMPDEST PUSH1 0x0 DUP2 DUP2 MSTORE PUSH1 0x1 DUP4 ADD PUSH1 0x20 MSTORE PUSH1 0x40 DUP2 KECCAK256 SLOAD ISZERO ISZERO PUSH2 0xD2D JUMP JUMPDEST PUSH1 0x0 PUSH2 0xD2D DUP4 DUP4 PUSH2 0x108F JUMP JUMPDEST PUSH1 0x0 PUSH2 0xD2D DUP3 DUP5 PUSH2 0x143B JUMP JUMPDEST PUSH1 0x0 PUSH2 0xD2D DUP3 DUP5 PUSH2 0x14BC JUMP JUMPDEST PUSH1 0x0 PUSH2 0x594 DUP3 SLOAD SWAP1 JUMP JUMPDEST PUSH1 0x0 PUSH2 0xD2D DUP4 DUP4 PUSH2 0x1182 JUMP JUMPDEST PUSH1 0x97 SLOAD PUSH1 0xFF AND PUSH2 0x7CE JUMPI PUSH1 0x40 MLOAD PUSH3 0x461BCD PUSH1 0xE5 SHL DUP2 MSTORE PUSH1 0x20 PUSH1 0x4 DUP3 ADD MSTORE PUSH1 0x14 PUSH1 0x24 DUP3 ADD MSTORE PUSH20 0x14185D5CD8589B194E881B9BDD081C185D5CD959 PUSH1 0x62 SHL PUSH1 0x44 DUP3 ADD MSTORE PUSH1 0x64 ADD PUSH2 0x433 JUMP JUMPDEST PUSH1 0x0 DUP2 DUP2 MSTORE PUSH1 0x1 DUP4 ADD PUSH1 0x20 MSTORE PUSH1 0x40 DUP2 KECCAK256 SLOAD PUSH2 0x1087 JUMPI POP DUP2 SLOAD PUSH1 0x1 DUP2 DUP2 ADD DUP5 SSTORE PUSH1 0x0 DUP5 DUP2 MSTORE PUSH1 0x20 DUP1 DUP3 KECCAK256 SWAP1 SWAP4 ADD DUP5 SWAP1 SSTORE DUP5 SLOAD DUP5 DUP3 MSTORE DUP3 DUP7 ADD SWAP1 SWAP4 MSTORE PUSH1 0x40 SWAP1 KECCAK256 SWAP2 SWAP1 SWAP2 SSTORE PUSH2 0x594 JUMP JUMPDEST POP PUSH1 0x0 PUSH2 0x594 JUMP JUMPDEST PUSH1 0x0 DUP2 DUP2 MSTORE PUSH1 0x1 DUP4 ADD PUSH1 0x20 MSTORE PUSH1 0x40 DUP2 KECCAK256 SLOAD DUP1 ISZERO PUSH2 0x1178 JUMPI PUSH1 0x0 PUSH2 0x10B3 PUSH1 0x1 DUP4 PUSH2 0x143B JUMP JUMPDEST DUP6 SLOAD SWAP1 SWAP2 POP PUSH1 0x0 SWAP1 PUSH2 0x10C7 SWAP1 PUSH1 0x1 SWAP1 PUSH2 0x143B JUMP JUMPDEST SWAP1 POP DUP2 DUP2 EQ PUSH2 0x112C JUMPI PUSH1 0x0 DUP7 PUSH1 0x0 ADD DUP3 DUP2 SLOAD DUP2 LT PUSH2 0x10E7 JUMPI PUSH2 0x10E7 PUSH2 0x13DE JUMP JUMPDEST SWAP1 PUSH1 0x0 MSTORE PUSH1 0x20 PUSH1 0x0 KECCAK256 ADD SLOAD SWAP1 POP DUP1 DUP8 PUSH1 0x0 ADD DUP5 DUP2 SLOAD DUP2 LT PUSH2 0x110A JUMPI PUSH2 0x110A PUSH2 0x13DE JUMP JUMPDEST PUSH1 0x0 SWAP2 DUP3 MSTORE PUSH1 0x20 DUP1 DUP4 KECCAK256 SWAP1 SWAP2 ADD SWAP3 SWAP1 SWAP3 SSTORE SWAP2 DUP3 MSTORE PUSH1 0x1 DUP9 ADD SWAP1 MSTORE PUSH1 0x40 SWAP1 KECCAK256 DUP4 SWAP1 SSTORE JUMPDEST DUP6 SLOAD DUP7 SWAP1 DUP1 PUSH2 0x113D JUMPI PUSH2 0x113D PUSH2 0x14DE JUMP JUMPDEST PUSH1 0x1 SWAP1 SUB DUP2 DUP2 SWAP1 PUSH1 0x0 MSTORE PUSH1 0x20 PUSH1 0x0 KECCAK256 ADD PUSH1 0x0 SWAP1 SSTORE SWAP1 SSTORE DUP6 PUSH1 0x1 ADD PUSH1 0x0 DUP7 DUP2 MSTORE PUSH1 0x20 ADD SWAP1 DUP2 MSTORE PUSH1 0x20 ADD PUSH1 0x0 KECCAK256 PUSH1 0x0 SWAP1 SSTORE PUSH1 0x1 SWAP4 POP POP POP POP PUSH2 0x594 JUMP JUMPDEST PUSH1 0x0 SWAP2 POP POP PUSH2 0x594 JUMP JUMPDEST PUSH1 0x0 DUP3 PUSH1 0x0 ADD DUP3 DUP2 SLOAD DUP2 LT PUSH2 0x1199 JUMPI PUSH2 0x1199 PUSH2 0x13DE JUMP JUMPDEST SWAP1 PUSH1 0x0 MSTORE PUSH1 0x20 PUSH1 0x0 KECCAK256 ADD SLOAD SWAP1 POP SWAP3 SWAP2 POP POP JUMP JUMPDEST PUSH4 0x4E487B71 PUSH1 0xE0 SHL PUSH1 0x0 MSTORE PUSH1 0x41 PUSH1 0x4 MSTORE PUSH1 0x24 PUSH1 0x0 REVERT JUMPDEST PUSH1 0x0 DUP3 PUSH1 0x1F DUP4 ADD SLT PUSH2 0x11D3 JUMPI PUSH1 0x0 DUP1 REVERT JUMPDEST DUP2 CALLDATALOAD PUSH1 0x20 PUSH8 0xFFFFFFFFFFFFFFFF DUP1 DUP4 GT ISZERO PUSH2 0x11F0 JUMPI PUSH2 0x11F0 PUSH2 0x11AC JUMP JUMPDEST DUP3 PUSH1 0x5 SHL PUSH1 0x40 MLOAD PUSH1 0x1F NOT PUSH1 0x3F DUP4 ADD AND DUP2 ADD DUP2 DUP2 LT DUP5 DUP3 GT OR ISZERO PUSH2 0x1215 JUMPI PUSH2 0x1215 PUSH2 0x11AC JUMP JUMPDEST PUSH1 0x40 MSTORE SWAP4 DUP5 MSTORE DUP6 DUP2 ADD DUP4 ADD SWAP4 DUP4 DUP2 ADD SWAP3 POP DUP8 DUP6 GT ISZERO PUSH2 0x1233 JUMPI PUSH1 0x0 DUP1 REVERT JUMPDEST DUP4 DUP8 ADD SWAP2 POP JUMPDEST DUP5 DUP3 LT ISZERO PUSH2 0x1252 JUMPI DUP2 CALLDATALOAD DUP4 MSTORE SWAP2 DUP4 ADD SWAP2 SWAP1 DUP4 ADD SWAP1 PUSH2 0x1239 JUMP JUMPDEST SWAP8 SWAP7 POP POP POP POP POP POP POP JUMP JUMPDEST PUSH1 0x0 DUP1 PUSH1 0x40 DUP4 DUP6 SUB SLT ISZERO PUSH2 0x1270 JUMPI PUSH1 0x0 DUP1 REVERT JUMPDEST DUP3 CALLDATALOAD PUSH8 0xFFFFFFFFFFFFFFFF DUP1 DUP3 GT ISZERO PUSH2 0x1288 JUMPI PUSH1 0x0 DUP1 REVERT JUMPDEST PUSH2 0x1294 DUP7 DUP4 DUP8 ADD PUSH2 0x11C2 JUMP JUMPDEST SWAP4 POP PUSH1 0x20 DUP6 ADD CALLDATALOAD SWAP2 POP DUP1 DUP3 GT ISZERO PUSH2 0x12AA JUMPI PUSH1 0x0 DUP1 REVERT JUMPDEST POP PUSH2 0x12B7 DUP6 DUP3 DUP7 ADD PUSH2 0x11C2 JUMP JUMPDEST SWAP2 POP POP SWAP3 POP SWAP3 SWAP1 POP JUMP JUMPDEST PUSH1 0x0 PUSH1 0x20 DUP3 DUP5 SUB SLT ISZERO PUSH2 0x12D3 JUMPI PUSH1 0x0 DUP1 REVERT JUMPDEST POP CALLDATALOAD SWAP2 SWAP1 POP JUMP JUMPDEST PUSH1 0x0 PUSH1 0x20 DUP3 DUP5 SUB SLT ISZERO PUSH2 0x12EC JUMPI PUSH1 0x0 DUP1 REVERT JUMPDEST DUP2 CALLDATALOAD PUSH1 0x1 PUSH1 0x1 PUSH1 0xA0 SHL SUB DUP2 AND DUP2 EQ PUSH2 0xD2D JUMPI PUSH1 0x0 DUP1 REVERT JUMPDEST PUSH1 0x0 DUP1 PUSH1 0x20 DUP4 DUP6 SUB SLT ISZERO PUSH2 0x1316 JUMPI PUSH1 0x0 DUP1 REVERT JUMPDEST DUP3 CALLDATALOAD PUSH8 0xFFFFFFFFFFFFFFFF DUP1 DUP3 GT ISZERO PUSH2 0x132E JUMPI PUSH1 0x0 DUP1 REVERT JUMPDEST DUP2 DUP6 ADD SWAP2 POP DUP6 PUSH1 0x1F DUP4 ADD SLT PUSH2 0x1342 JUMPI PUSH1 0x0 DUP1 REVERT JUMPDEST DUP2 CALLDATALOAD DUP2 DUP2 GT ISZERO PUSH2 0x1351 JUMPI PUSH1 0x0 DUP1 REVERT JUMPDEST DUP7 PUSH1 0x20 DUP3 PUSH1 0x5 SHL DUP6 ADD ADD GT ISZERO PUSH2 0x1366 JUMPI PUSH1 0x0 DUP1 REVERT JUMPDEST PUSH1 0x20 SWAP3 SWAP1 SWAP3 ADD SWAP7 SWAP2 SWAP6 POP SWAP1 SWAP4 POP POP POP POP JUMP JUMPDEST PUSH1 0x0 DUP1 PUSH1 0x40 DUP4 DUP6 SUB SLT ISZERO PUSH2 0x138B JUMPI PUSH1 0x0 DUP1 REVERT JUMPDEST POP POP DUP1 CALLDATALOAD SWAP3 PUSH1 0x20 SWAP1 SWAP2 ADD CALLDATALOAD SWAP2 POP JUMP JUMPDEST PUSH1 0x20 DUP1 DUP3 MSTORE DUP3 MLOAD DUP3 DUP3 ADD DUP2 SWAP1 MSTORE PUSH1 0x0 SWAP2 SWAP1 DUP5 DUP3 ADD SWAP1 PUSH1 0x40 DUP6 ADD SWAP1 DUP5 JUMPDEST DUP2 DUP2 LT ISZERO PUSH2 0x13D2 JUMPI DUP4 MLOAD DUP4 MSTORE SWAP3 DUP5 ADD SWAP3 SWAP2 DUP5 ADD SWAP2 PUSH1 0x1 ADD PUSH2 0x13B6 JUMP JUMPDEST POP SWAP1 SWAP7 SWAP6 POP POP POP POP POP POP JUMP JUMPDEST PUSH4 0x4E487B71 PUSH1 0xE0 SHL PUSH1 0x0 MSTORE PUSH1 0x32 PUSH1 0x4 MSTORE PUSH1 0x24 PUSH1 0x0 REVERT JUMPDEST PUSH4 0x4E487B71 PUSH1 0xE0 SHL PUSH1 0x0 MSTORE PUSH1 0x11 PUSH1 0x4 MSTORE PUSH1 0x24 PUSH1 0x0 REVERT JUMPDEST PUSH1 0x0 PUSH1 0x1 DUP3 ADD PUSH2 0x141C JUMPI PUSH2 0x141C PUSH2 0x13F4 JUMP JUMPDEST POP PUSH1 0x1 ADD SWAP1 JUMP JUMPDEST PUSH1 0x0 DUP3 NOT DUP3 GT ISZERO PUSH2 0x1436 JUMPI PUSH2 0x1436 PUSH2 0x13F4 JUMP JUMPDEST POP ADD SWAP1 JUMP JUMPDEST PUSH1 0x0 DUP3 DUP3 LT ISZERO PUSH2 0x144D JUMPI PUSH2 0x144D PUSH2 0x13F4 JUMP JUMPDEST POP SUB SWAP1 JUMP JUMPDEST PUSH1 0x20 DUP1 DUP3 MSTORE PUSH1 0x2B SWAP1 DUP3 ADD MSTORE PUSH32 0x496E697469616C697A61626C653A20636F6E7472616374206973206E6F742069 PUSH1 0x40 DUP3 ADD MSTORE PUSH11 0x6E697469616C697A696E67 PUSH1 0xA8 SHL PUSH1 0x60 DUP3 ADD MSTORE PUSH1 0x80 ADD SWAP1 JUMP JUMPDEST PUSH1 0x0 DUP2 PUSH1 0x0 NOT DIV DUP4 GT DUP3 ISZERO ISZERO AND ISZERO PUSH2 0x14B7 JUMPI PUSH2 0x14B7 PUSH2 0x13F4 JUMP JUMPDEST POP MUL SWAP1 JUMP JUMPDEST PUSH1 0x0 DUP3 PUSH2 0x14D9 JUMPI PUSH4 0x4E487B71 PUSH1 0xE0 SHL PUSH1 0x0 MSTORE PUSH1 0x12 PUSH1 0x4 MSTORE PUSH1 0x24 PUSH1 0x0 REVERT JUMPDEST POP DIV SWAP1 JUMP JUMPDEST PUSH4 0x4E487B71 PUSH1 0xE0 SHL PUSH1 0x0 MSTORE PUSH1 0x31 PUSH1 0x4 MSTORE PUSH1 0x24 PUSH1 0x0 REVERT INVALID LOG2 PUSH5 0x6970667358 0x22 SLT KECCAK256 PUSH30 0x1879FB70B6E85F0BC555DF75D1EB72566E24E11325D2949DFAD333EA197F PUSH5 0x64736F6C63 NUMBER STOP ADDMOD 0xD STOP CALLER "},"methodIdentifiers":{"allocatedPower()":"a15d5316","deposit(uint256[])":"598b8e71","depositsOf(address)":"e3a9db1a","earnedLastPeriod(uint256,uint256)":"b181e5ff","earnings(address)":"543fd313","harvest()":"4641257d","initialize()":"8129fc1c","nftContract()":"d56d229d","owner()":"8da5cb5b","pause()":"8456cb59","paused()":"5c975abb","rate()":"2c4e722e","reclaimable()":"99b72ccb","reclaimableLastReleased()":"ed18a6ba","released()":"96132521","releasedCorrection()":"ed9074c1","renounceOwnership()":"715018a6","reservedPower()":"c16e0461","setNftContract(address)":"52f5ad77","setPower(uint256[],uint256[])":"17909b7d","setRate(uint256)":"34fcf437","setTokenContract(address)":"bbcd5bbe","tokenContract()":"55a373d6","transferOwnership(address)":"f2fde38b","unpause()":"3f4ba83a","withdraw(uint256[])":"983d95ce"}}}}}