{"contracts/MutantStaking.sol":{"MutantStaking":{"abi":[{"anonymous":false,"inputs":[{"indexed":false,"internalType":"address","name":"staker","type":"address"},{"indexed":false,"internalType":"uint256","name":"amount","type":"uint256"}],"name":"Harvested","type":"event"},{"anonymous":false,"inputs":[{"indexed":false,"internalType":"uint8","name":"version","type":"uint8"}],"name":"Initialized","type":"event"},{"anonymous":false,"inputs":[{"indexed":true,"internalType":"address","name":"previousOwner","type":"address"},{"indexed":true,"internalType":"address","name":"newOwner","type":"address"}],"name":"OwnershipTransferred","type":"event"},{"anonymous":false,"inputs":[{"indexed":false,"internalType":"address","name":"account","type":"address"}],"name":"Paused","type":"event"},{"anonymous":false,"inputs":[{"indexed":false,"internalType":"address","name":"account","type":"address"}],"name":"Unpaused","type":"event"},{"inputs":[],"name":"allocatedPower","outputs":[{"internalType":"uint256","name":"","type":"uint256"}],"stateMutability":"view","type":"function"},{"inputs":[{"internalType":"uint256[]","name":"tokenIds","type":"uint256[]"}],"name":"deposit","outputs":[],"stateMutability":"nonpayable","type":"function"},{"inputs":[{"internalType":"address","name":"account","type":"address"}],"name":"depositsOf","outputs":[{"internalType":"uint256[]","name":"","type":"uint256[]"}],"stateMutability":"view","type":"function"},{"inputs":[{"internalType":"uint256","name":"_lastReleased","type":"uint256"},{"internalType":"uint256","name":"_power","type":"uint256"}],"name":"earnedLastPeriod","outputs":[{"internalType":"uint256","name":"","type":"uint256"}],"stateMutability":"view","type":"function"},{"inputs":[{"internalType":"address","name":"_staker","type":"address"}],"name":"earnings","outputs":[{"internalType":"uint256","name":"","type":"uint256"}],"stateMutability":"view","type":"function"},{"inputs":[],"name":"harvest","outputs":[],"stateMutability":"nonpayable","type":"function"},{"inputs":[],"name":"initialize","outputs":[],"stateMutability":"nonpayable","type":"function"},{"inputs":[],"name":"nftContract","outputs":[{"internalType":"address","name":"","type":"address"}],"stateMutability":"view","type":"function"},{"inputs":[],"name":"owner","outputs":[{"internalType":"address","name":"","type":"address"}],"stateMutability":"view","type":"function"},{"inputs":[],"name":"pause","outputs":[],"stateMutability":"nonpayable","type":"function"},{"inputs":[],"name":"paused","outputs":[{"internalType":"bool","name":"","type":"bool"}],"stateMutability":"view","type":"function"},{"inputs":[],"name":"rate","outputs":[{"internalType":"uint256","name":"","type":"uint256"}],"stateMutability":"view","type":"function"},{"inputs":[],"name":"reclaimable","outputs":[{"internalType":"uint256","name":"","type":"uint256"}],"stateMutability":"view","type":"function"},{"inputs":[],"name":"reclaimableLastReleased","outputs":[{"internalType":"uint256","name":"","type":"uint256"}],"stateMutability":"view","type":"function"},{"inputs":[],"name":"released","outputs":[{"internalType":"uint256","name":"","type":"uint256"}],"stateMutability":"view","type":"function"},{"inputs":[],"name":"releasedCorrection","outputs":[{"internalType":"uint256","name":"","type":"uint256"}],"stateMutability":"view","type":"function"},{"inputs":[],"name":"renounceOwnership","outputs":[],"stateMutability":"nonpayable","type":"function"},{"inputs":[],"name":"reservedPower","outputs":[{"internalType":"uint256","name":"","type":"uint256"}],"stateMutability":"view","type":"function"},{"inputs":[{"internalType":"address","name":"_nftContract","type":"address"}],"name":"setNftContract","outputs":[],"stateMutability":"nonpayable","type":"function"},{"inputs":[{"internalType":"uint256[]","name":"_ids","type":"uint256[]"},{"internalType":"uint256[]","name":"_power","type":"uint256[]"}],"name":"setPower","outputs":[],"stateMutability":"nonpayable","type":"function"},{"inputs":[{"internalType":"uint256","name":"_rate","type":"uint256"}],"name":"setRate","outputs":[],"stateMutability":"nonpayable","type":"function"},{"inputs":[{"internalType":"address","name":"_tokenContract","type":"address"}],"name":"setTokenContract","outputs":[],"stateMutability":"nonpayable","type":"function"},{"inputs":[],"name":"tokenContract","outputs":[{"internalType":"address","name":"","type":"address"}],"stateMutability":"view","type":"function"},{"inputs":[{"internalType":"address","name":"newOwner","type":"address"}],"name":"transferOwnership","outputs":[],"stateMutability":"nonpayable","type":"function"},{"inputs":[],"name":"unpause","outputs":[],"stateMutability":"nonpayable","type":"function"},{"inputs":[{"internalType":"uint256[]","name":"tokenIds","type":"uint256[]"}],"name":"withdraw","outputs":[],"stateMutability":"nonpayable","type":"function"}],"evm":{"bytecode":{"linkReferences":{},"object":"6080604052600060d481905560d581905560d681905560d75560d8805460ff1916905534801561002e57600080fd5b5061158f8061003e6000396000f3fe608060405234801561001057600080fd5b506004361061018e5760003560e01c80638da5cb5b116100de578063bbcd5bbe11610097578063e3a9db1a11610071578063e3a9db1a146102f9578063ed18a6ba14610319578063ed9074c114610322578063f2fde38b1461032b57600080fd5b8063bbcd5bbe146102ca578063c16e0461146102dd578063d56d229d146102e657600080fd5b80638da5cb5b14610279578063961325211461028a578063983d95ce1461029257806399b72ccb146102a5578063a15d5316146102ae578063b181e5ff146102b757600080fd5b8063543fd3131161014b5780635c975abb116101255780635c975abb1461024b578063715018a6146102615780638129fc1c146102695780638456cb591461027157600080fd5b8063543fd313146101fa57806355a373d61461020d578063598b8e711461023857600080fd5b806317909b7d146101935780632c4e722e146101a857806334fcf437146101c45780633f4ba83a146101d75780634641257d146101df57806352f5ad77146101e7575b600080fd5b6101a66101a13660046112c2565b61033e565b005b6101b160cd5481565b6040519081526020015b60405180910390f35b6101a66101d2366004611326565b6103c2565b6101a66103cf565b6101a66103e5565b6101a66101f536600461133f565b610580565b6101b161020836600461133f565b6105aa565b60cc54610220906001600160a01b031681565b6040516001600160a01b0390911681526020016101bb565b6101a6610246366004611368565b6105ff565b60975460ff1660405190151581526020016101bb565b6101a6610821565b6101a6610835565b6101a66108ab565b6033546001600160a01b0316610220565b6101b16108b3565b6101a66102a0366004611368565b6108fe565b6101b160d55481565b6101b160d35481565b6101b16102c53660046113dd565b610b24565b6101a66102d836600461133f565b610b7b565b6101b160d25481565b60cb54610220906001600160a01b031681565b61030c61030736600461133f565b610ba5565b6040516101bb91906113ff565b6101b160d65481565b6101b160d45481565b6101a661033936600461133f565b610c61565b610346610cda565b805182511461035457600080fd5b60005b82518110156103bd5781818151811061037257610372611443565b602002602001015160d1600085848151811061039057610390611443565b602002602001015181526020019081526020016000208190555080806103b59061146f565b915050610357565b505050565b6103ca610cda565b60cd55565b6103d7610cda565b6103df610d34565b4360d755565b60026065540361043c5760405162461bcd60e51b815260206004820152601f60248201527f5265656e7472616e637947756172643a207265656e7472616e742063616c6c0060448201526064015b60405180910390fd5b6002606555600061044c336105aa565b9050600081116104955760405162461bcd60e51b81526020600482015260146024820152734e46545374616b653a204e6f207265776172647360601b6044820152606401610433565b33600090815260cf60205260408120556104ad6108b3565b33600090815260cf602052604081206003019190915560d480548392906104d5908490611488565b909155505060cc546040516340c10f1960e01b8152336004820152602481018390526001600160a01b03909116906340c10f1990604401600060405180830381600087803b15801561052657600080fd5b505af115801561053a573d6000803e3d6000fd5b505060408051338152602081018590527f121c5042302bae5fc561fbc64368f297ca60a880878e1e3a7f7e9380377260bf935001905060405180910390a1506001606555565b610588610cda565b60cb80546001600160a01b0319166001600160a01b0392909216919091179055565b6001600160a01b038116600090815260cf6020526040812060038101546002909101546105f9916105da91610b24565b6001600160a01b038416600090815260cf602052604090205490610d86565b92915050565b610607610d99565b33600090815260cf60209081526040808320815160808101835281548152600182015493810184905260028201549281019290925260030154606082015291036106ed57604051806080016040528060008152602001438152602001600081526020016106726108b3565b905233600081815260cf60209081526040808320855181559185015160018084019190915590850151600283015560609094015160039091015560d08054938401815590527fe89d44c8fd6a9bac8af33ce47f56337617d449bf7ff3956b618c646de829cbcb90910180546001600160a01b03191690911790555b604081015160005b838110156108105760cb546001600160a01b03166323b872dd333088888681811061072257610722611443565b6040516001600160e01b031960e088901b1681526001600160a01b03958616600482015294909316602485015250602090910201356044820152606401600060405180830381600087803b15801561077957600080fd5b505af115801561078d573d6000803e3d6000fd5b505050506107c48585838181106107a6576107a6611443565b33600090815260ce6020908152604090912093910201359050610ddf565b5060d160008686848181106107db576107db611443565b90506020020135815260200190815260200160002054826107fc9190611488565b9150806108088161146f565b9150506106f5565b5061081b3382610deb565b50505050565b610829610cda565b6108336000610ede565b565b60d85460ff161561087e5760405162461bcd60e51b8152602060048201526013602482015272105b1c9958591e481a5b9a5d1a585b1a5e9959606a1b6044820152606401610433565b60d8805460ff19166001179055610893610f30565b61089b610f5e565b6108a3610f8e565b610833610fc1565b6108a3610cda565b600060d7546000036108c55750600090565b600060d754436108d591906114a0565b90506108f86108ef60cd5483610ffe90919063ffffffff16565b60d45490610d86565b91505090565b610906610d99565b6002606554036109585760405162461bcd60e51b815260206004820152601f60248201527f5265656e7472616e637947756172643a207265656e7472616e742063616c6c006044820152606401610433565b6002606581905533600090815260cf6020526040812090910154905b82811015610b0f576109af84848381811061099157610991611443565b33600090815260ce602090815260409091209391020135905061100a565b6109fb5760405162461bcd60e51b815260206004820181905260248201527f5374616b696e673a20596f7520617265206e6f7420746f6b656e206f776e65726044820152606401610433565b60d16000858584818110610a1157610a11611443565b9050602002013581526020019081526020016000205482610a3291906114a0565b9150610a67848483818110610a4957610a49611443565b33600090815260ce6020908152604090912093910201359050611022565b5060cb546001600160a01b03166323b872dd3033878786818110610a8d57610a8d611443565b6040516001600160e01b031960e088901b1681526001600160a01b03958616600482015294909316602485015250602090910201356044820152606401600060405180830381600087803b158015610ae457600080fd5b505af1158015610af8573d6000803e3d6000fd5b505050508080610b079061146f565b915050610974565b50610b1a3382610deb565b5050600160655550565b600081600003610b36575060006105f9565b6000610b4a84610b446108b3565b9061102e565b90508015610b715760d254610b6990610b638386610ffe565b9061103a565b9150506105f9565b5060009392505050565b610b83610cda565b60cc80546001600160a01b0319166001600160a01b0392909216919091179055565b6001600160a01b038116600090815260ce60205260408120606091610bc982611046565b67ffffffffffffffff811115610be157610be1611211565b604051908082528060200260200182016040528015610c0a578160200160208202803683370190505b50905060005b610c1983611046565b811015610c5957610c2a8382611050565b828281518110610c3c57610c3c611443565b602090810291909101015280610c518161146f565b915050610c10565b509392505050565b610c69610cda565b6001600160a01b038116610cce5760405162461bcd60e51b815260206004820152602660248201527f4f776e61626c653a206e6577206f776e657220697320746865207a65726f206160448201526564647265737360d01b6064820152608401610433565b610cd781610ede565b50565b6033546001600160a01b031633146108335760405162461bcd60e51b815260206004820181905260248201527f4f776e61626c653a2063616c6c6572206973206e6f7420746865206f776e65726044820152606401610433565b610d3c61105c565b6097805460ff191690557f5db9ee0a495bf2e6ff9c91a7834c1ba4fdd244a5e8aa4e537bd38aeae4b073aa335b6040516001600160a01b03909116815260200160405180910390a1565b6000610d928284611488565b9392505050565b60975460ff16156108335760405162461bcd60e51b815260206004820152601060248201526f14185d5cd8589b194e881c185d5cd95960821b6044820152606401610433565b6000610d9283836110a5565b610df4826105aa565b6001600160a01b038316600090815260cf6020526040902055610e156108b3565b6001600160a01b038316600090815260cf602052604090206003015560d25460d35411610e7457610e65610e5c60d6546102c560d35460d25461102e90919063ffffffff16565b60d55490610d86565b60d555610e706108b3565b60d6555b6001600160a01b038216600090815260cf602052604090206002015460d354610ea8918391610ea29161102e565b90610d86565b60d381905560d254811115610ebe5760d35460d2555b506001600160a01b03909116600090815260cf6020526040902060020155565b603380546001600160a01b038381166001600160a01b0319831681179093556040519116919082907f8be0079c531659141344cd1fd0a4f28419497f9722a3daafe3b4186f6b6457e090600090a35050565b600054610100900460ff16610f575760405162461bcd60e51b8152600401610433906114b7565b6001606555565b600054610100900460ff16610f855760405162461bcd60e51b8152600401610433906114b7565b61083333610ede565b600054610100900460ff16610fb55760405162461bcd60e51b8152600401610433906114b7565b6097805460ff19169055565b610fc9610d99565b6097805460ff191660011790557f62e78cea01bee320cd4e420270b5ea74000d11b0c9f74754ebdbfc544b05a258610d693390565b6000610d928284611502565b60008181526001830160205260408120541515610d92565b6000610d9283836110f4565b6000610d9282846114a0565b6000610d928284611521565b60006105f9825490565b6000610d9283836111e7565b60975460ff166108335760405162461bcd60e51b815260206004820152601460248201527314185d5cd8589b194e881b9bdd081c185d5cd95960621b6044820152606401610433565b60008181526001830160205260408120546110ec575081546001818101845560008481526020808220909301849055845484825282860190935260409020919091556105f9565b5060006105f9565b600081815260018301602052604081205480156111dd5760006111186001836114a0565b855490915060009061112c906001906114a0565b905081811461119157600086600001828154811061114c5761114c611443565b906000526020600020015490508087600001848154811061116f5761116f611443565b6000918252602080832090910192909255918252600188019052604090208390555b85548690806111a2576111a2611543565b6001900381819060005260206000200160009055905585600101600086815260200190815260200160002060009055600193505050506105f9565b60009150506105f9565b60008260000182815481106111fe576111fe611443565b9060005260206000200154905092915050565b634e487b7160e01b600052604160045260246000fd5b600082601f83011261123857600080fd5b8135602067ffffffffffffffff8083111561125557611255611211565b8260051b604051601f19603f8301168101818110848211171561127a5761127a611211565b60405293845285810183019383810192508785111561129857600080fd5b83870191505b848210156112b75781358352918301919083019061129e565b979650505050505050565b600080604083850312156112d557600080fd5b823567ffffffffffffffff808211156112ed57600080fd5b6112f986838701611227565b9350602085013591508082111561130f57600080fd5b5061131c85828601611227565b9150509250929050565b60006020828403121561133857600080fd5b5035919050565b60006020828403121561135157600080fd5b81356001600160a01b0381168114610d9257600080fd5b6000806020838503121561137b57600080fd5b823567ffffffffffffffff8082111561139357600080fd5b818501915085601f8301126113a757600080fd5b8135818111156113b657600080fd5b8660208260051b85010111156113cb57600080fd5b60209290920196919550909350505050565b600080604083850312156113f057600080fd5b50508035926020909101359150565b6020808252825182820181905260009190848201906040850190845b818110156114375783518352928401929184019160010161141b565b50909695505050505050565b634e487b7160e01b600052603260045260246000fd5b634e487b7160e01b600052601160045260246000fd5b60006001820161148157611481611459565b5060010190565b6000821982111561149b5761149b611459565b500190565b6000828210156114b2576114b2611459565b500390565b6020808252602b908201527f496e697469616c697a61626c653a20636f6e7472616374206973206e6f74206960408201526a6e697469616c697a696e6760a81b606082015260800190565b600081600019048311821515161561151c5761151c611459565b500290565b60008261153e57634e487b7160e01b600052601260045260246000fd5b500490565b634e487b7160e01b600052603160045260246000fdfea264697066735822122007ae4845aaf691752a8913e7811bf5b2b0fcc1acc2e473ba65086e5edc230ad564736f6c634300080d0033","opcodes":"PUSH1 0x80 PUSH1 0x40 MSTORE PUSH1 0x0 PUSH1 0xD4 DUP2 SWAP1 SSTORE PUSH1 0xD5 DUP2 SWAP1 SSTORE PUSH1 0xD6 DUP2 SWAP1 SSTORE PUSH1 0xD7 SSTORE PUSH1 0xD8 DUP1 SLOAD PUSH1 0xFF NOT AND SWAP1 SSTORE CALLVALUE DUP1 ISZERO PUSH2 0x2E JUMPI PUSH1 0x0 DUP1 REVERT JUMPDEST POP PUSH2 0x158F DUP1 PUSH2 0x3E PUSH1 0x0 CODECOPY PUSH1 0x0 RETURN INVALID PUSH1 0x80 PUSH1 0x40 MSTORE CALLVALUE DUP1 ISZERO PUSH2 0x10 JUMPI PUSH1 0x0 DUP1 REVERT JUMPDEST POP PUSH1 0x4 CALLDATASIZE LT PUSH2 0x18E JUMPI PUSH1 0x0 CALLDATALOAD PUSH1 0xE0 SHR DUP1 PUSH4 0x8DA5CB5B GT PUSH2 0xDE JUMPI DUP1 PUSH4 0xBBCD5BBE GT PUSH2 0x97 JUMPI DUP1 PUSH4 0xE3A9DB1A GT PUSH2 0x71 JUMPI DUP1 PUSH4 0xE3A9DB1A EQ PUSH2 0x2F9 JUMPI DUP1 PUSH4 0xED18A6BA EQ PUSH2 0x319 JUMPI DUP1 PUSH4 0xED9074C1 EQ PUSH2 0x322 JUMPI DUP1 PUSH4 0xF2FDE38B EQ PUSH2 0x32B JUMPI PUSH1 0x0 DUP1 REVERT JUMPDEST DUP1 PUSH4 0xBBCD5BBE EQ PUSH2 0x2CA JUMPI DUP1 PUSH4 0xC16E0461 EQ PUSH2 0x2DD JUMPI DUP1 PUSH4 0xD56D229D EQ PUSH2 0x2E6 JUMPI PUSH1 0x0 DUP1 REVERT JUMPDEST DUP1 PUSH4 0x8DA5CB5B EQ PUSH2 0x279 JUMPI DUP1 PUSH4 0x96132521 EQ PUSH2 0x28A JUMPI DUP1 PUSH4 0x983D95CE EQ PUSH2 0x292 JUMPI DUP1 PUSH4 0x99B72CCB EQ PUSH2 0x2A5 JUMPI DUP1 PUSH4 0xA15D5316 EQ PUSH2 0x2AE JUMPI DUP1 PUSH4 0xB181E5FF EQ PUSH2 0x2B7 JUMPI PUSH1 0x0 DUP1 REVERT JUMPDEST DUP1 PUSH4 0x543FD313 GT PUSH2 0x14B JUMPI DUP1 PUSH4 0x5C975ABB GT PUSH2 0x125 JUMPI DUP1 PUSH4 0x5C975ABB EQ PUSH2 0x24B JUMPI DUP1 PUSH4 0x715018A6 EQ PUSH2 0x261 JUMPI DUP1 PUSH4 0x8129FC1C EQ PUSH2 0x269 JUMPI DUP1 PUSH4 0x8456CB59 EQ PUSH2 0x271 JUMPI PUSH1 0x0 DUP1 REVERT JUMPDEST DUP1 PUSH4 0x543FD313 EQ PUSH2 0x1FA JUMPI DUP1 PUSH4 0x55A373D6 EQ PUSH2 0x20D JUMPI DUP1 PUSH4 0x598B8E71 EQ PUSH2 0x238 JUMPI PUSH1 0x0 DUP1 REVERT JUMPDEST DUP1 PUSH4 0x17909B7D EQ PUSH2 0x193 JUMPI DUP1 PUSH4 0x2C4E722E EQ PUSH2 0x1A8 JUMPI DUP1 PUSH4 0x34FCF437 EQ PUSH2 0x1C4 JUMPI DUP1 PUSH4 0x3F4BA83A EQ PUSH2 0x1D7 JUMPI DUP1 PUSH4 0x4641257D EQ PUSH2 0x1DF JUMPI DUP1 PUSH4 0x52F5AD77 EQ PUSH2 0x1E7 JUMPI JUMPDEST PUSH1 0x0 DUP1 REVERT JUMPDEST PUSH2 0x1A6 PUSH2 0x1A1 CALLDATASIZE PUSH1 0x4 PUSH2 0x12C2 JUMP JUMPDEST PUSH2 0x33E JUMP JUMPDEST STOP JUMPDEST PUSH2 0x1B1 PUSH1 0xCD SLOAD DUP2 JUMP JUMPDEST PUSH1 0x40 MLOAD SWAP1 DUP2 MSTORE PUSH1 0x20 ADD JUMPDEST PUSH1 0x40 MLOAD DUP1 SWAP2 SUB SWAP1 RETURN JUMPDEST PUSH2 0x1A6 PUSH2 0x1D2 CALLDATASIZE PUSH1 0x4 PUSH2 0x1326 JUMP JUMPDEST PUSH2 0x3C2 JUMP JUMPDEST PUSH2 0x1A6 PUSH2 0x3CF JUMP JUMPDEST PUSH2 0x1A6 PUSH2 0x3E5 JUMP JUMPDEST PUSH2 0x1A6 PUSH2 0x1F5 CALLDATASIZE PUSH1 0x4 PUSH2 0x133F JUMP JUMPDEST PUSH2 0x580 JUMP JUMPDEST PUSH2 0x1B1 PUSH2 0x208 CALLDATASIZE PUSH1 0x4 PUSH2 0x133F JUMP JUMPDEST PUSH2 0x5AA JUMP JUMPDEST PUSH1 0xCC SLOAD PUSH2 0x220 SWAP1 PUSH1 0x1 PUSH1 0x1 PUSH1 0xA0 SHL SUB AND DUP2 JUMP JUMPDEST PUSH1 0x40 MLOAD PUSH1 0x1 PUSH1 0x1 PUSH1 0xA0 SHL SUB SWAP1 SWAP2 AND DUP2 MSTORE PUSH1 0x20 ADD PUSH2 0x1BB JUMP JUMPDEST PUSH2 0x1A6 PUSH2 0x246 CALLDATASIZE PUSH1 0x4 PUSH2 0x1368 JUMP JUMPDEST PUSH2 0x5FF JUMP JUMPDEST PUSH1 0x97 SLOAD PUSH1 0xFF AND PUSH1 0x40 MLOAD SWAP1 ISZERO ISZERO DUP2 MSTORE PUSH1 0x20 ADD PUSH2 0x1BB JUMP JUMPDEST PUSH2 0x1A6 PUSH2 0x821 JUMP JUMPDEST PUSH2 0x1A6 PUSH2 0x835 JUMP JUMPDEST PUSH2 0x1A6 PUSH2 0x8AB JUMP JUMPDEST PUSH1 0x33 SLOAD PUSH1 0x1 PUSH1 0x1 PUSH1 0xA0 SHL SUB AND PUSH2 0x220 JUMP JUMPDEST PUSH2 0x1B1 PUSH2 0x8B3 JUMP JUMPDEST PUSH2 0x1A6 PUSH2 0x2A0 CALLDATASIZE PUSH1 0x4 PUSH2 0x1368 JUMP JUMPDEST PUSH2 0x8FE JUMP JUMPDEST PUSH2 0x1B1 PUSH1 0xD5 SLOAD DUP2 JUMP JUMPDEST PUSH2 0x1B1 PUSH1 0xD3 SLOAD DUP2 JUMP JUMPDEST PUSH2 0x1B1 PUSH2 0x2C5 CALLDATASIZE PUSH1 0x4 PUSH2 0x13DD JUMP JUMPDEST PUSH2 0xB24 JUMP JUMPDEST PUSH2 0x1A6 PUSH2 0x2D8 CALLDATASIZE PUSH1 0x4 PUSH2 0x133F JUMP JUMPDEST PUSH2 0xB7B JUMP JUMPDEST PUSH2 0x1B1 PUSH1 0xD2 SLOAD DUP2 JUMP JUMPDEST PUSH1 0xCB SLOAD PUSH2 0x220 SWAP1 PUSH1 0x1 PUSH1 0x1 PUSH1 0xA0 SHL SUB AND DUP2 JUMP JUMPDEST PUSH2 0x30C PUSH2 0x307 CALLDATASIZE PUSH1 0x4 PUSH2 0x133F JUMP JUMPDEST PUSH2 0xBA5 JUMP JUMPDEST PUSH1 0x40 MLOAD PUSH2 0x1BB SWAP2 SWAP1 PUSH2 0x13FF JUMP JUMPDEST PUSH2 0x1B1 PUSH1 0xD6 SLOAD DUP2 JUMP JUMPDEST PUSH2 0x1B1 PUSH1 0xD4 SLOAD DUP2 JUMP JUMPDEST PUSH2 0x1A6 PUSH2 0x339 CALLDATASIZE PUSH1 0x4 PUSH2 0x133F JUMP JUMPDEST PUSH2 0xC61 JUMP JUMPDEST PUSH2 0x346 PUSH2 0xCDA JUMP JUMPDEST DUP1 MLOAD DUP3 MLOAD EQ PUSH2 0x354 JUMPI PUSH1 0x0 DUP1 REVERT JUMPDEST PUSH1 0x0 JUMPDEST DUP3 MLOAD DUP2 LT ISZERO PUSH2 0x3BD JUMPI DUP2 DUP2 DUP2 MLOAD DUP2 LT PUSH2 0x372 JUMPI PUSH2 0x372 PUSH2 0x1443 JUMP JUMPDEST PUSH1 0x20 MUL PUSH1 0x20 ADD ADD MLOAD PUSH1 0xD1 PUSH1 0x0 DUP6 DUP5 DUP2 MLOAD DUP2 LT PUSH2 0x390 JUMPI PUSH2 0x390 PUSH2 0x1443 JUMP JUMPDEST PUSH1 0x20 MUL PUSH1 0x20 ADD ADD MLOAD DUP2 MSTORE PUSH1 0x20 ADD SWAP1 DUP2 MSTORE PUSH1 0x20 ADD PUSH1 0x0 KECCAK256 DUP2 SWAP1 SSTORE POP DUP1 DUP1 PUSH2 0x3B5 SWAP1 PUSH2 0x146F JUMP JUMPDEST SWAP2 POP POP PUSH2 0x357 JUMP JUMPDEST POP POP POP JUMP JUMPDEST PUSH2 0x3CA PUSH2 0xCDA JUMP JUMPDEST PUSH1 0xCD SSTORE JUMP JUMPDEST PUSH2 0x3D7 PUSH2 0xCDA JUMP JUMPDEST PUSH2 0x3DF PUSH2 0xD34 JUMP JUMPDEST NUMBER PUSH1 0xD7 SSTORE JUMP JUMPDEST PUSH1 0x2 PUSH1 0x65 SLOAD SUB PUSH2 0x43C JUMPI PUSH1 0x40 MLOAD PUSH3 0x461BCD PUSH1 0xE5 SHL DUP2 MSTORE PUSH1 0x20 PUSH1 0x4 DUP3 ADD MSTORE PUSH1 0x1F PUSH1 0x24 DUP3 ADD MSTORE PUSH32 0x5265656E7472616E637947756172643A207265656E7472616E742063616C6C00 PUSH1 0x44 DUP3 ADD MSTORE PUSH1 0x64 ADD JUMPDEST PUSH1 0x40 MLOAD DUP1 SWAP2 SUB SWAP1 REVERT JUMPDEST PUSH1 0x2 PUSH1 0x65 SSTORE PUSH1 0x0 PUSH2 0x44C CALLER PUSH2 0x5AA JUMP JUMPDEST SWAP1 POP PUSH1 0x0 DUP2 GT PUSH2 0x495 JUMPI PUSH1 0x40 MLOAD PUSH3 0x461BCD PUSH1 0xE5 SHL DUP2 MSTORE PUSH1 0x20 PUSH1 0x4 DUP3 ADD MSTORE PUSH1 0x14 PUSH1 0x24 DUP3 ADD MSTORE PUSH20 0x4E46545374616B653A204E6F2072657761726473 PUSH1 0x60 SHL PUSH1 0x44 DUP3 ADD MSTORE PUSH1 0x64 ADD PUSH2 0x433 JUMP JUMPDEST CALLER PUSH1 0x0 SWAP1 DUP2 MSTORE PUSH1 0xCF PUSH1 0x20 MSTORE PUSH1 0x40 DUP2 KECCAK256 SSTORE PUSH2 0x4AD PUSH2 0x8B3 JUMP JUMPDEST CALLER PUSH1 0x0 SWAP1 DUP2 MSTORE PUSH1 0xCF PUSH1 0x20 MSTORE PUSH1 0x40 DUP2 KECCAK256 PUSH1 0x3 ADD SWAP2 SWAP1 SWAP2 SSTORE PUSH1 0xD4 DUP1 SLOAD DUP4 SWAP3 SWAP1 PUSH2 0x4D5 SWAP1 DUP5 SWAP1 PUSH2 0x1488 JUMP JUMPDEST SWAP1 SWAP2 SSTORE POP POP PUSH1 0xCC SLOAD PUSH1 0x40 MLOAD PUSH4 0x40C10F19 PUSH1 0xE0 SHL DUP2 MSTORE CALLER PUSH1 0x4 DUP3 ADD MSTORE PUSH1 0x24 DUP2 ADD DUP4 SWAP1 MSTORE PUSH1 0x1 PUSH1 0x1 PUSH1 0xA0 SHL SUB SWAP1 SWAP2 AND SWAP1 PUSH4 0x40C10F19 SWAP1 PUSH1 0x44 ADD PUSH1 0x0 PUSH1 0x40 MLOAD DUP1 DUP4 SUB DUP2 PUSH1 0x0 DUP8 DUP1 EXTCODESIZE ISZERO DUP1 ISZERO PUSH2 0x526 JUMPI PUSH1 0x0 DUP1 REVERT JUMPDEST POP GAS CALL ISZERO DUP1 ISZERO PUSH2 0x53A JUMPI RETURNDATASIZE PUSH1 0x0 DUP1 RETURNDATACOPY RETURNDATASIZE PUSH1 0x0 REVERT JUMPDEST POP POP PUSH1 0x40 DUP1 MLOAD CALLER DUP2 MSTORE PUSH1 0x20 DUP2 ADD DUP6 SWAP1 MSTORE PUSH32 0x121C5042302BAE5FC561FBC64368F297CA60A880878E1E3A7F7E9380377260BF SWAP4 POP ADD SWAP1 POP PUSH1 0x40 MLOAD DUP1 SWAP2 SUB SWAP1 LOG1 POP PUSH1 0x1 PUSH1 0x65 SSTORE JUMP JUMPDEST PUSH2 0x588 PUSH2 0xCDA JUMP JUMPDEST PUSH1 0xCB DUP1 SLOAD PUSH1 0x1 PUSH1 0x1 PUSH1 0xA0 SHL SUB NOT AND PUSH1 0x1 PUSH1 0x1 PUSH1 0xA0 SHL SUB SWAP3 SWAP1 SWAP3 AND SWAP2 SWAP1 SWAP2 OR SWAP1 SSTORE JUMP JUMPDEST PUSH1 0x1 PUSH1 0x1 PUSH1 0xA0 SHL SUB DUP2 AND PUSH1 0x0 SWAP1 DUP2 MSTORE PUSH1 0xCF PUSH1 0x20 MSTORE PUSH1 0x40 DUP2 KECCAK256 PUSH1 0x3 DUP2 ADD SLOAD PUSH1 0x2 SWAP1 SWAP2 ADD SLOAD PUSH2 0x5F9 SWAP2 PUSH2 0x5DA SWAP2 PUSH2 0xB24 JUMP JUMPDEST PUSH1 0x1 PUSH1 0x1 PUSH1 0xA0 SHL SUB DUP5 AND PUSH1 0x0 SWAP1 DUP2 MSTORE PUSH1 0xCF PUSH1 0x20 MSTORE PUSH1 0x40 SWAP1 KECCAK256 SLOAD SWAP1 PUSH2 0xD86 JUMP JUMPDEST SWAP3 SWAP2 POP POP JUMP JUMPDEST PUSH2 0x607 PUSH2 0xD99 JUMP JUMPDEST CALLER PUSH1 0x0 SWAP1 DUP2 MSTORE PUSH1 0xCF PUSH1 0x20 SWAP1 DUP2 MSTORE PUSH1 0x40 DUP1 DUP4 KECCAK256 DUP2 MLOAD PUSH1 0x80 DUP2 ADD DUP4 MSTORE DUP2 SLOAD DUP2 MSTORE PUSH1 0x1 DUP3 ADD SLOAD SWAP4 DUP2 ADD DUP5 SWAP1 MSTORE PUSH1 0x2 DUP3 ADD SLOAD SWAP3 DUP2 ADD SWAP3 SWAP1 SWAP3 MSTORE PUSH1 0x3 ADD SLOAD PUSH1 0x60 DUP3 ADD MSTORE SWAP2 SUB PUSH2 0x6ED JUMPI PUSH1 0x40 MLOAD DUP1 PUSH1 0x80 ADD PUSH1 0x40 MSTORE DUP1 PUSH1 0x0 DUP2 MSTORE PUSH1 0x20 ADD NUMBER DUP2 MSTORE PUSH1 0x20 ADD PUSH1 0x0 DUP2 MSTORE PUSH1 0x20 ADD PUSH2 0x672 PUSH2 0x8B3 JUMP JUMPDEST SWAP1 MSTORE CALLER PUSH1 0x0 DUP2 DUP2 MSTORE PUSH1 0xCF PUSH1 0x20 SWAP1 DUP2 MSTORE PUSH1 0x40 DUP1 DUP4 KECCAK256 DUP6 MLOAD DUP2 SSTORE SWAP2 DUP6 ADD MLOAD PUSH1 0x1 DUP1 DUP5 ADD SWAP2 SWAP1 SWAP2 SSTORE SWAP1 DUP6 ADD MLOAD PUSH1 0x2 DUP4 ADD SSTORE PUSH1 0x60 SWAP1 SWAP5 ADD MLOAD PUSH1 0x3 SWAP1 SWAP2 ADD SSTORE PUSH1 0xD0 DUP1 SLOAD SWAP4 DUP5 ADD DUP2 SSTORE SWAP1 MSTORE PUSH32 0xE89D44C8FD6A9BAC8AF33CE47F56337617D449BF7FF3956B618C646DE829CBCB SWAP1 SWAP2 ADD DUP1 SLOAD PUSH1 0x1 PUSH1 0x1 PUSH1 0xA0 SHL SUB NOT AND SWAP1 SWAP2 OR SWAP1 SSTORE JUMPDEST PUSH1 0x40 DUP2 ADD MLOAD PUSH1 0x0 JUMPDEST DUP4 DUP2 LT ISZERO PUSH2 0x810 JUMPI PUSH1 0xCB SLOAD PUSH1 0x1 PUSH1 0x1 PUSH1 0xA0 SHL SUB AND PUSH4 0x23B872DD CALLER ADDRESS DUP9 DUP9 DUP7 DUP2 DUP2 LT PUSH2 0x722 JUMPI PUSH2 0x722 PUSH2 0x1443 JUMP JUMPDEST PUSH1 0x40 MLOAD PUSH1 0x1 PUSH1 0x1 PUSH1 0xE0 SHL SUB NOT PUSH1 0xE0 DUP9 SWAP1 SHL AND DUP2 MSTORE PUSH1 0x1 PUSH1 0x1 PUSH1 0xA0 SHL SUB SWAP6 DUP7 AND PUSH1 0x4 DUP3 ADD MSTORE SWAP5 SWAP1 SWAP4 AND PUSH1 0x24 DUP6 ADD MSTORE POP PUSH1 0x20 SWAP1 SWAP2 MUL ADD CALLDATALOAD PUSH1 0x44 DUP3 ADD MSTORE PUSH1 0x64 ADD PUSH1 0x0 PUSH1 0x40 MLOAD DUP1 DUP4 SUB DUP2 PUSH1 0x0 DUP8 DUP1 EXTCODESIZE ISZERO DUP1 ISZERO PUSH2 0x779 JUMPI PUSH1 0x0 DUP1 REVERT JUMPDEST POP GAS CALL ISZERO DUP1 ISZERO PUSH2 0x78D JUMPI RETURNDATASIZE PUSH1 0x0 DUP1 RETURNDATACOPY RETURNDATASIZE PUSH1 0x0 REVERT JUMPDEST POP POP POP POP PUSH2 0x7C4 DUP6 DUP6 DUP4 DUP2 DUP2 LT PUSH2 0x7A6 JUMPI PUSH2 0x7A6 PUSH2 0x1443 JUMP JUMPDEST CALLER PUSH1 0x0 SWAP1 DUP2 MSTORE PUSH1 0xCE PUSH1 0x20 SWAP1 DUP2 MSTORE PUSH1 0x40 SWAP1 SWAP2 KECCAK256 SWAP4 SWAP2 MUL ADD CALLDATALOAD SWAP1 POP PUSH2 0xDDF JUMP JUMPDEST POP PUSH1 0xD1 PUSH1 0x0 DUP7 DUP7 DUP5 DUP2 DUP2 LT PUSH2 0x7DB JUMPI PUSH2 0x7DB PUSH2 0x1443 JUMP JUMPDEST SWAP1 POP PUSH1 0x20 MUL ADD CALLDATALOAD DUP2 MSTORE PUSH1 0x20 ADD SWAP1 DUP2 MSTORE PUSH1 0x20 ADD PUSH1 0x0 KECCAK256 SLOAD DUP3 PUSH2 0x7FC SWAP2 SWAP1 PUSH2 0x1488 JUMP JUMPDEST SWAP2 POP DUP1 PUSH2 0x808 DUP2 PUSH2 0x146F JUMP JUMPDEST SWAP2 POP POP PUSH2 0x6F5 JUMP JUMPDEST POP PUSH2 0x81B CALLER DUP3 PUSH2 0xDEB JUMP JUMPDEST POP POP POP POP JUMP JUMPDEST PUSH2 0x829 PUSH2 0xCDA JUMP JUMPDEST PUSH2 0x833 PUSH1 0x0 PUSH2 0xEDE JUMP JUMPDEST JUMP JUMPDEST PUSH1 0xD8 SLOAD PUSH1 0xFF AND ISZERO PUSH2 0x87E JUMPI PUSH1 0x40 MLOAD PUSH3 0x461BCD PUSH1 0xE5 SHL DUP2 MSTORE PUSH1 0x20 PUSH1 0x4 DUP3 ADD MSTORE PUSH1 0x13 PUSH1 0x24 DUP3 ADD MSTORE PUSH19 0x105B1C9958591E481A5B9A5D1A585B1A5E9959 PUSH1 0x6A SHL PUSH1 0x44 DUP3 ADD MSTORE PUSH1 0x64 ADD PUSH2 0x433 JUMP JUMPDEST PUSH1 0xD8 DUP1 SLOAD PUSH1 0xFF NOT AND PUSH1 0x1 OR SWAP1 SSTORE PUSH2 0x893 PUSH2 0xF30 JUMP JUMPDEST PUSH2 0x89B PUSH2 0xF5E JUMP JUMPDEST PUSH2 0x8A3 PUSH2 0xF8E JUMP JUMPDEST PUSH2 0x833 PUSH2 0xFC1 JUMP JUMPDEST PUSH2 0x8A3 PUSH2 0xCDA JUMP JUMPDEST PUSH1 0x0 PUSH1 0xD7 SLOAD PUSH1 0x0 SUB PUSH2 0x8C5 JUMPI POP PUSH1 0x0 SWAP1 JUMP JUMPDEST PUSH1 0x0 PUSH1 0xD7 SLOAD NUMBER PUSH2 0x8D5 SWAP2 SWAP1 PUSH2 0x14A0 JUMP JUMPDEST SWAP1 POP PUSH2 0x8F8 PUSH2 0x8EF PUSH1 0xCD SLOAD DUP4 PUSH2 0xFFE SWAP1 SWAP2 SWAP1 PUSH4 0xFFFFFFFF AND JUMP JUMPDEST PUSH1 0xD4 SLOAD SWAP1 PUSH2 0xD86 JUMP JUMPDEST SWAP2 POP POP SWAP1 JUMP JUMPDEST PUSH2 0x906 PUSH2 0xD99 JUMP JUMPDEST PUSH1 0x2 PUSH1 0x65 SLOAD SUB PUSH2 0x958 JUMPI PUSH1 0x40 MLOAD PUSH3 0x461BCD PUSH1 0xE5 SHL DUP2 MSTORE PUSH1 0x20 PUSH1 0x4 DUP3 ADD MSTORE PUSH1 0x1F PUSH1 0x24 DUP3 ADD MSTORE PUSH32 0x5265656E7472616E637947756172643A207265656E7472616E742063616C6C00 PUSH1 0x44 DUP3 ADD MSTORE PUSH1 0x64 ADD PUSH2 0x433 JUMP JUMPDEST PUSH1 0x2 PUSH1 0x65 DUP2 SWAP1 SSTORE CALLER PUSH1 0x0 SWAP1 DUP2 MSTORE PUSH1 0xCF PUSH1 0x20 MSTORE PUSH1 0x40 DUP2 KECCAK256 SWAP1 SWAP2 ADD SLOAD SWAP1 JUMPDEST DUP3 DUP2 LT ISZERO PUSH2 0xB0F JUMPI PUSH2 0x9AF DUP5 DUP5 DUP4 DUP2 DUP2 LT PUSH2 0x991 JUMPI PUSH2 0x991 PUSH2 0x1443 JUMP JUMPDEST CALLER PUSH1 0x0 SWAP1 DUP2 MSTORE PUSH1 0xCE PUSH1 0x20 SWAP1 DUP2 MSTORE PUSH1 0x40 SWAP1 SWAP2 KECCAK256 SWAP4 SWAP2 MUL ADD CALLDATALOAD SWAP1 POP PUSH2 0x100A JUMP JUMPDEST PUSH2 0x9FB JUMPI PUSH1 0x40 MLOAD PUSH3 0x461BCD PUSH1 0xE5 SHL DUP2 MSTORE PUSH1 0x20 PUSH1 0x4 DUP3 ADD DUP2 SWAP1 MSTORE PUSH1 0x24 DUP3 ADD MSTORE PUSH32 0x5374616B696E673A20596F7520617265206E6F7420746F6B656E206F776E6572 PUSH1 0x44 DUP3 ADD MSTORE PUSH1 0x64 ADD PUSH2 0x433 JUMP JUMPDEST PUSH1 0xD1 PUSH1 0x0 DUP6 DUP6 DUP5 DUP2 DUP2 LT PUSH2 0xA11 JUMPI PUSH2 0xA11 PUSH2 0x1443 JUMP JUMPDEST SWAP1 POP PUSH1 0x20 MUL ADD CALLDATALOAD DUP2 MSTORE PUSH1 0x20 ADD SWAP1 DUP2 MSTORE PUSH1 0x20 ADD PUSH1 0x0 KECCAK256 SLOAD DUP3 PUSH2 0xA32 SWAP2 SWAP1 PUSH2 0x14A0 JUMP JUMPDEST SWAP2 POP PUSH2 0xA67 DUP5 DUP5 DUP4 DUP2 DUP2 LT PUSH2 0xA49 JUMPI PUSH2 0xA49 PUSH2 0x1443 JUMP JUMPDEST CALLER PUSH1 0x0 SWAP1 DUP2 MSTORE PUSH1 0xCE PUSH1 0x20 SWAP1 DUP2 MSTORE PUSH1 0x40 SWAP1 SWAP2 KECCAK256 SWAP4 SWAP2 MUL ADD CALLDATALOAD SWAP1 POP PUSH2 0x1022 JUMP JUMPDEST POP PUSH1 0xCB SLOAD PUSH1 0x1 PUSH1 0x1 PUSH1 0xA0 SHL SUB AND PUSH4 0x23B872DD ADDRESS CALLER DUP8 DUP8 DUP7 DUP2 DUP2 LT PUSH2 0xA8D JUMPI PUSH2 0xA8D PUSH2 0x1443 JUMP JUMPDEST PUSH1 0x40 MLOAD PUSH1 0x1 PUSH1 0x1 PUSH1 0xE0 SHL SUB NOT PUSH1 0xE0 DUP9 SWAP1 SHL AND DUP2 MSTORE PUSH1 0x1 PUSH1 0x1 PUSH1 0xA0 SHL SUB SWAP6 DUP7 AND PUSH1 0x4 DUP3 ADD MSTORE SWAP5 SWAP1 SWAP4 AND PUSH1 0x24 DUP6 ADD MSTORE POP PUSH1 0x20 SWAP1 SWAP2 MUL ADD CALLDATALOAD PUSH1 0x44 DUP3 ADD MSTORE PUSH1 0x64 ADD PUSH1 0x0 PUSH1 0x40 MLOAD DUP1 DUP4 SUB DUP2 PUSH1 0x0 DUP8 DUP1 EXTCODESIZE ISZERO DUP1 ISZERO PUSH2 0xAE4 JUMPI PUSH1 0x0 DUP1 REVERT JUMPDEST POP GAS CALL ISZERO DUP1 ISZERO PUSH2 0xAF8 JUMPI RETURNDATASIZE PUSH1 0x0 DUP1 RETURNDATACOPY RETURNDATASIZE PUSH1 0x0 REVERT JUMPDEST POP POP POP POP DUP1 DUP1 PUSH2 0xB07 SWAP1 PUSH2 0x146F JUMP JUMPDEST SWAP2 POP POP PUSH2 0x974 JUMP JUMPDEST POP PUSH2 0xB1A CALLER DUP3 PUSH2 0xDEB JUMP JUMPDEST POP POP PUSH1 0x1 PUSH1 0x65 SSTORE POP JUMP JUMPDEST PUSH1 0x0 DUP2 PUSH1 0x0 SUB PUSH2 0xB36 JUMPI POP PUSH1 0x0 PUSH2 0x5F9 JUMP JUMPDEST PUSH1 0x0 PUSH2 0xB4A DUP5 PUSH2 0xB44 PUSH2 0x8B3 JUMP JUMPDEST SWAP1 PUSH2 0x102E JUMP JUMPDEST SWAP1 POP DUP1 ISZERO PUSH2 0xB71 JUMPI PUSH1 0xD2 SLOAD PUSH2 0xB69 SWAP1 PUSH2 0xB63 DUP4 DUP7 PUSH2 0xFFE JUMP JUMPDEST SWAP1 PUSH2 0x103A JUMP JUMPDEST SWAP2 POP POP PUSH2 0x5F9 JUMP JUMPDEST POP PUSH1 0x0 SWAP4 SWAP3 POP POP POP JUMP JUMPDEST PUSH2 0xB83 PUSH2 0xCDA JUMP JUMPDEST PUSH1 0xCC DUP1 SLOAD PUSH1 0x1 PUSH1 0x1 PUSH1 0xA0 SHL SUB NOT AND PUSH1 0x1 PUSH1 0x1 PUSH1 0xA0 SHL SUB SWAP3 SWAP1 SWAP3 AND SWAP2 SWAP1 SWAP2 OR SWAP1 SSTORE JUMP JUMPDEST PUSH1 0x1 PUSH1 0x1 PUSH1 0xA0 SHL SUB DUP2 AND PUSH1 0x0 SWAP1 DUP2 MSTORE PUSH1 0xCE PUSH1 0x20 MSTORE PUSH1 0x40 DUP2 KECCAK256 PUSH1 0x60 SWAP2 PUSH2 0xBC9 DUP3 PUSH2 0x1046 JUMP JUMPDEST PUSH8 0xFFFFFFFFFFFFFFFF DUP2 GT ISZERO PUSH2 0xBE1 JUMPI PUSH2 0xBE1 PUSH2 0x1211 JUMP JUMPDEST PUSH1 0x40 MLOAD SWAP1 DUP1 DUP3 MSTORE DUP1 PUSH1 0x20 MUL PUSH1 0x20 ADD DUP3 ADD PUSH1 0x40 MSTORE DUP1 ISZERO PUSH2 0xC0A JUMPI DUP2 PUSH1 0x20 ADD PUSH1 0x20 DUP3 MUL DUP1 CALLDATASIZE DUP4 CALLDATACOPY ADD SWAP1 POP JUMPDEST POP SWAP1 POP PUSH1 0x0 JUMPDEST PUSH2 0xC19 DUP4 PUSH2 0x1046 JUMP JUMPDEST DUP2 LT ISZERO PUSH2 0xC59 JUMPI PUSH2 0xC2A DUP4 DUP3 PUSH2 0x1050 JUMP JUMPDEST DUP3 DUP3 DUP2 MLOAD DUP2 LT PUSH2 0xC3C JUMPI PUSH2 0xC3C PUSH2 0x1443 JUMP JUMPDEST PUSH1 0x20 SWAP1 DUP2 MUL SWAP2 SWAP1 SWAP2 ADD ADD MSTORE DUP1 PUSH2 0xC51 DUP2 PUSH2 0x146F JUMP JUMPDEST SWAP2 POP POP PUSH2 0xC10 JUMP JUMPDEST POP SWAP4 SWAP3 POP POP POP JUMP JUMPDEST PUSH2 0xC69 PUSH2 0xCDA JUMP JUMPDEST PUSH1 0x1 PUSH1 0x1 PUSH1 0xA0 SHL SUB DUP2 AND PUSH2 0xCCE JUMPI PUSH1 0x40 MLOAD PUSH3 0x461BCD PUSH1 0xE5 SHL DUP2 MSTORE PUSH1 0x20 PUSH1 0x4 DUP3 ADD MSTORE PUSH1 0x26 PUSH1 0x24 DUP3 ADD MSTORE PUSH32 0x4F776E61626C653A206E6577206F776E657220697320746865207A65726F2061 PUSH1 0x44 DUP3 ADD MSTORE PUSH6 0x646472657373 PUSH1 0xD0 SHL PUSH1 0x64 DUP3 ADD MSTORE PUSH1 0x84 ADD PUSH2 0x433 JUMP JUMPDEST PUSH2 0xCD7 DUP2 PUSH2 0xEDE JUMP JUMPDEST POP JUMP JUMPDEST PUSH1 0x33 SLOAD PUSH1 0x1 PUSH1 0x1 PUSH1 0xA0 SHL SUB AND CALLER EQ PUSH2 0x833 JUMPI PUSH1 0x40 MLOAD PUSH3 0x461BCD PUSH1 0xE5 SHL DUP2 MSTORE PUSH1 0x20 PUSH1 0x4 DUP3 ADD DUP2 SWAP1 MSTORE PUSH1 0x24 DUP3 ADD MSTORE PUSH32 0x4F776E61626C653A2063616C6C6572206973206E6F7420746865206F776E6572 PUSH1 0x44 DUP3 ADD MSTORE PUSH1 0x64 ADD PUSH2 0x433 JUMP JUMPDEST PUSH2 0xD3C PUSH2 0x105C JUMP JUMPDEST PUSH1 0x97 DUP1 SLOAD PUSH1 0xFF NOT AND SWAP1 SSTORE PUSH32 0x5DB9EE0A495BF2E6FF9C91A7834C1BA4FDD244A5E8AA4E537BD38AEAE4B073AA CALLER JUMPDEST PUSH1 0x40 MLOAD PUSH1 0x1 PUSH1 0x1 PUSH1 0xA0 SHL SUB SWAP1 SWAP2 AND DUP2 MSTORE PUSH1 0x20 ADD PUSH1 0x40 MLOAD DUP1 SWAP2 SUB SWAP1 LOG1 JUMP JUMPDEST PUSH1 0x0 PUSH2 0xD92 DUP3 DUP5 PUSH2 0x1488 JUMP JUMPDEST SWAP4 SWAP3 POP POP POP JUMP JUMPDEST PUSH1 0x97 SLOAD PUSH1 0xFF AND ISZERO PUSH2 0x833 JUMPI PUSH1 0x40 MLOAD PUSH3 0x461BCD PUSH1 0xE5 SHL DUP2 MSTORE PUSH1 0x20 PUSH1 0x4 DUP3 ADD MSTORE PUSH1 0x10 PUSH1 0x24 DUP3 ADD MSTORE PUSH16 0x14185D5CD8589B194E881C185D5CD959 PUSH1 0x82 SHL PUSH1 0x44 DUP3 ADD MSTORE PUSH1 0x64 ADD PUSH2 0x433 JUMP JUMPDEST PUSH1 0x0 PUSH2 0xD92 DUP4 DUP4 PUSH2 0x10A5 JUMP JUMPDEST PUSH2 0xDF4 DUP3 PUSH2 0x5AA JUMP JUMPDEST PUSH1 0x1 PUSH1 0x1 PUSH1 0xA0 SHL SUB DUP4 AND PUSH1 0x0 SWAP1 DUP2 MSTORE PUSH1 0xCF PUSH1 0x20 MSTORE PUSH1 0x40 SWAP1 KECCAK256 SSTORE PUSH2 0xE15 PUSH2 0x8B3 JUMP JUMPDEST PUSH1 0x1 PUSH1 0x1 PUSH1 0xA0 SHL SUB DUP4 AND PUSH1 0x0 SWAP1 DUP2 MSTORE PUSH1 0xCF PUSH1 0x20 MSTORE PUSH1 0x40 SWAP1 KECCAK256 PUSH1 0x3 ADD SSTORE PUSH1 0xD2 SLOAD PUSH1 0xD3 SLOAD GT PUSH2 0xE74 JUMPI PUSH2 0xE65 PUSH2 0xE5C PUSH1 0xD6 SLOAD PUSH2 0x2C5 PUSH1 0xD3 SLOAD PUSH1 0xD2 SLOAD PUSH2 0x102E SWAP1 SWAP2 SWAP1 PUSH4 0xFFFFFFFF AND JUMP JUMPDEST PUSH1 0xD5 SLOAD SWAP1 PUSH2 0xD86 JUMP JUMPDEST PUSH1 0xD5 SSTORE PUSH2 0xE70 PUSH2 0x8B3 JUMP JUMPDEST PUSH1 0xD6 SSTORE JUMPDEST PUSH1 0x1 PUSH1 0x1 PUSH1 0xA0 SHL SUB DUP3 AND PUSH1 0x0 SWAP1 DUP2 MSTORE PUSH1 0xCF PUSH1 0x20 MSTORE PUSH1 0x40 SWAP1 KECCAK256 PUSH1 0x2 ADD SLOAD PUSH1 0xD3 SLOAD PUSH2 0xEA8 SWAP2 DUP4 SWAP2 PUSH2 0xEA2 SWAP2 PUSH2 0x102E JUMP JUMPDEST SWAP1 PUSH2 0xD86 JUMP JUMPDEST PUSH1 0xD3 DUP2 SWAP1 SSTORE PUSH1 0xD2 SLOAD DUP2 GT ISZERO PUSH2 0xEBE JUMPI PUSH1 0xD3 SLOAD PUSH1 0xD2 SSTORE JUMPDEST POP PUSH1 0x1 PUSH1 0x1 PUSH1 0xA0 SHL SUB SWAP1 SWAP2 AND PUSH1 0x0 SWAP1 DUP2 MSTORE PUSH1 0xCF PUSH1 0x20 MSTORE PUSH1 0x40 SWAP1 KECCAK256 PUSH1 0x2 ADD SSTORE JUMP JUMPDEST PUSH1 0x33 DUP1 SLOAD PUSH1 0x1 PUSH1 0x1 PUSH1 0xA0 SHL SUB DUP4 DUP2 AND PUSH1 0x1 PUSH1 0x1 PUSH1 0xA0 SHL SUB NOT DUP4 AND DUP2 OR SWAP1 SWAP4 SSTORE PUSH1 0x40 MLOAD SWAP2 AND SWAP2 SWAP1 DUP3 SWAP1 PUSH32 0x8BE0079C531659141344CD1FD0A4F28419497F9722A3DAAFE3B4186F6B6457E0 SWAP1 PUSH1 0x0 SWAP1 LOG3 POP POP JUMP JUMPDEST PUSH1 0x0 SLOAD PUSH2 0x100 SWAP1 DIV PUSH1 0xFF AND PUSH2 0xF57 JUMPI PUSH1 0x40 MLOAD PUSH3 0x461BCD PUSH1 0xE5 SHL DUP2 MSTORE PUSH1 0x4 ADD PUSH2 0x433 SWAP1 PUSH2 0x14B7 JUMP JUMPDEST PUSH1 0x1 PUSH1 0x65 SSTORE JUMP JUMPDEST PUSH1 0x0 SLOAD PUSH2 0x100 SWAP1 DIV PUSH1 0xFF AND PUSH2 0xF85 JUMPI PUSH1 0x40 MLOAD PUSH3 0x461BCD PUSH1 0xE5 SHL DUP2 MSTORE PUSH1 0x4 ADD PUSH2 0x433 SWAP1 PUSH2 0x14B7 JUMP JUMPDEST PUSH2 0x833 CALLER PUSH2 0xEDE JUMP JUMPDEST PUSH1 0x0 SLOAD PUSH2 0x100 SWAP1 DIV PUSH1 0xFF AND PUSH2 0xFB5 JUMPI PUSH1 0x40 MLOAD PUSH3 0x461BCD PUSH1 0xE5 SHL DUP2 MSTORE PUSH1 0x4 ADD PUSH2 0x433 SWAP1 PUSH2 0x14B7 JUMP JUMPDEST PUSH1 0x97 DUP1 SLOAD PUSH1 0xFF NOT AND SWAP1 SSTORE JUMP JUMPDEST PUSH2 0xFC9 PUSH2 0xD99 JUMP JUMPDEST PUSH1 0x97 DUP1 SLOAD PUSH1 0xFF NOT AND PUSH1 0x1 OR SWAP1 SSTORE PUSH32 0x62E78CEA01BEE320CD4E420270B5EA74000D11B0C9F74754EBDBFC544B05A258 PUSH2 0xD69 CALLER SWAP1 JUMP JUMPDEST PUSH1 0x0 PUSH2 0xD92 DUP3 DUP5 PUSH2 0x1502 JUMP JUMPDEST PUSH1 0x0 DUP2 DUP2 MSTORE PUSH1 0x1 DUP4 ADD PUSH1 0x20 MSTORE PUSH1 0x40 DUP2 KECCAK256 SLOAD ISZERO ISZERO PUSH2 0xD92 JUMP JUMPDEST PUSH1 0x0 PUSH2 0xD92 DUP4 DUP4 PUSH2 0x10F4 JUMP JUMPDEST PUSH1 0x0 PUSH2 0xD92 DUP3 DUP5 PUSH2 0x14A0 JUMP JUMPDEST PUSH1 0x0 PUSH2 0xD92 DUP3 DUP5 PUSH2 0x1521 JUMP JUMPDEST PUSH1 0x0 PUSH2 0x5F9 DUP3 SLOAD SWAP1 JUMP JUMPDEST PUSH1 0x0 PUSH2 0xD92 DUP4 DUP4 PUSH2 0x11E7 JUMP JUMPDEST PUSH1 0x97 SLOAD PUSH1 0xFF AND PUSH2 0x833 JUMPI PUSH1 0x40 MLOAD PUSH3 0x461BCD PUSH1 0xE5 SHL DUP2 MSTORE PUSH1 0x20 PUSH1 0x4 DUP3 ADD MSTORE PUSH1 0x14 PUSH1 0x24 DUP3 ADD MSTORE PUSH20 0x14185D5CD8589B194E881B9BDD081C185D5CD959 PUSH1 0x62 SHL PUSH1 0x44 DUP3 ADD MSTORE PUSH1 0x64 ADD PUSH2 0x433 JUMP JUMPDEST PUSH1 0x0 DUP2 DUP2 MSTORE PUSH1 0x1 DUP4 ADD PUSH1 0x20 MSTORE PUSH1 0x40 DUP2 KECCAK256 SLOAD PUSH2 0x10EC JUMPI POP DUP2 SLOAD PUSH1 0x1 DUP2 DUP2 ADD DUP5 SSTORE PUSH1 0x0 DUP5 DUP2 MSTORE PUSH1 0x20 DUP1 DUP3 KECCAK256 SWAP1 SWAP4 ADD DUP5 SWAP1 SSTORE DUP5 SLOAD DUP5 DUP3 MSTORE DUP3 DUP7 ADD SWAP1 SWAP4 MSTORE PUSH1 0x40 SWAP1 KECCAK256 SWAP2 SWAP1 SWAP2 SSTORE PUSH2 0x5F9 JUMP JUMPDEST POP PUSH1 0x0 PUSH2 0x5F9 JUMP JUMPDEST PUSH1 0x0 DUP2 DUP2 MSTORE PUSH1 0x1 DUP4 ADD PUSH1 0x20 MSTORE PUSH1 0x40 DUP2 KECCAK256 SLOAD DUP1 ISZERO PUSH2 0x11DD JUMPI PUSH1 0x0 PUSH2 0x1118 PUSH1 0x1 DUP4 PUSH2 0x14A0 JUMP JUMPDEST DUP6 SLOAD SWAP1 SWAP2 POP PUSH1 0x0 SWAP1 PUSH2 0x112C SWAP1 PUSH1 0x1 SWAP1 PUSH2 0x14A0 JUMP JUMPDEST SWAP1 POP DUP2 DUP2 EQ PUSH2 0x1191 JUMPI PUSH1 0x0 DUP7 PUSH1 0x0 ADD DUP3 DUP2 SLOAD DUP2 LT PUSH2 0x114C JUMPI PUSH2 0x114C PUSH2 0x1443 JUMP JUMPDEST SWAP1 PUSH1 0x0 MSTORE PUSH1 0x20 PUSH1 0x0 KECCAK256 ADD SLOAD SWAP1 POP DUP1 DUP8 PUSH1 0x0 ADD DUP5 DUP2 SLOAD DUP2 LT PUSH2 0x116F JUMPI PUSH2 0x116F PUSH2 0x1443 JUMP JUMPDEST PUSH1 0x0 SWAP2 DUP3 MSTORE PUSH1 0x20 DUP1 DUP4 KECCAK256 SWAP1 SWAP2 ADD SWAP3 SWAP1 SWAP3 SSTORE SWAP2 DUP3 MSTORE PUSH1 0x1 DUP9 ADD SWAP1 MSTORE PUSH1 0x40 SWAP1 KECCAK256 DUP4 SWAP1 SSTORE JUMPDEST DUP6 SLOAD DUP7 SWAP1 DUP1 PUSH2 0x11A2 JUMPI PUSH2 0x11A2 PUSH2 0x1543 JUMP JUMPDEST PUSH1 0x1 SWAP1 SUB DUP2 DUP2 SWAP1 PUSH1 0x0 MSTORE PUSH1 0x20 PUSH1 0x0 KECCAK256 ADD PUSH1 0x0 SWAP1 SSTORE SWAP1 SSTORE DUP6 PUSH1 0x1 ADD PUSH1 0x0 DUP7 DUP2 MSTORE PUSH1 0x20 ADD SWAP1 DUP2 MSTORE PUSH1 0x20 ADD PUSH1 0x0 KECCAK256 PUSH1 0x0 SWAP1 SSTORE PUSH1 0x1 SWAP4 POP POP POP POP PUSH2 0x5F9 JUMP JUMPDEST PUSH1 0x0 SWAP2 POP POP PUSH2 0x5F9 JUMP JUMPDEST PUSH1 0x0 DUP3 PUSH1 0x0 ADD DUP3 DUP2 SLOAD DUP2 LT PUSH2 0x11FE JUMPI PUSH2 0x11FE PUSH2 0x1443 JUMP JUMPDEST SWAP1 PUSH1 0x0 MSTORE PUSH1 0x20 PUSH1 0x0 KECCAK256 ADD SLOAD SWAP1 POP SWAP3 SWAP2 POP POP JUMP JUMPDEST PUSH4 0x4E487B71 PUSH1 0xE0 SHL PUSH1 0x0 MSTORE PUSH1 0x41 PUSH1 0x4 MSTORE PUSH1 0x24 PUSH1 0x0 REVERT JUMPDEST PUSH1 0x0 DUP3 PUSH1 0x1F DUP4 ADD SLT PUSH2 0x1238 JUMPI PUSH1 0x0 DUP1 REVERT JUMPDEST DUP2 CALLDATALOAD PUSH1 0x20 PUSH8 0xFFFFFFFFFFFFFFFF DUP1 DUP4 GT ISZERO PUSH2 0x1255 JUMPI PUSH2 0x1255 PUSH2 0x1211 JUMP JUMPDEST DUP3 PUSH1 0x5 SHL PUSH1 0x40 MLOAD PUSH1 0x1F NOT PUSH1 0x3F DUP4 ADD AND DUP2 ADD DUP2 DUP2 LT DUP5 DUP3 GT OR ISZERO PUSH2 0x127A JUMPI PUSH2 0x127A PUSH2 0x1211 JUMP JUMPDEST PUSH1 0x40 MSTORE SWAP4 DUP5 MSTORE DUP6 DUP2 ADD DUP4 ADD SWAP4 DUP4 DUP2 ADD SWAP3 POP DUP8 DUP6 GT ISZERO PUSH2 0x1298 JUMPI PUSH1 0x0 DUP1 REVERT JUMPDEST DUP4 DUP8 ADD SWAP2 POP JUMPDEST DUP5 DUP3 LT ISZERO PUSH2 0x12B7 JUMPI DUP2 CALLDATALOAD DUP4 MSTORE SWAP2 DUP4 ADD SWAP2 SWAP1 DUP4 ADD SWAP1 PUSH2 0x129E JUMP JUMPDEST SWAP8 SWAP7 POP POP POP POP POP POP POP JUMP JUMPDEST PUSH1 0x0 DUP1 PUSH1 0x40 DUP4 DUP6 SUB SLT ISZERO PUSH2 0x12D5 JUMPI PUSH1 0x0 DUP1 REVERT JUMPDEST DUP3 CALLDATALOAD PUSH8 0xFFFFFFFFFFFFFFFF DUP1 DUP3 GT ISZERO PUSH2 0x12ED JUMPI PUSH1 0x0 DUP1 REVERT JUMPDEST PUSH2 0x12F9 DUP7 DUP4 DUP8 ADD PUSH2 0x1227 JUMP JUMPDEST SWAP4 POP PUSH1 0x20 DUP6 ADD CALLDATALOAD SWAP2 POP DUP1 DUP3 GT ISZERO PUSH2 0x130F JUMPI PUSH1 0x0 DUP1 REVERT JUMPDEST POP PUSH2 0x131C DUP6 DUP3 DUP7 ADD PUSH2 0x1227 JUMP JUMPDEST SWAP2 POP POP SWAP3 POP SWAP3 SWAP1 POP JUMP JUMPDEST PUSH1 0x0 PUSH1 0x20 DUP3 DUP5 SUB SLT ISZERO PUSH2 0x1338 JUMPI PUSH1 0x0 DUP1 REVERT JUMPDEST POP CALLDATALOAD SWAP2 SWAP1 POP JUMP JUMPDEST PUSH1 0x0 PUSH1 0x20 DUP3 DUP5 SUB SLT ISZERO PUSH2 0x1351 JUMPI PUSH1 0x0 DUP1 REVERT JUMPDEST DUP2 CALLDATALOAD PUSH1 0x1 PUSH1 0x1 PUSH1 0xA0 SHL SUB DUP2 AND DUP2 EQ PUSH2 0xD92 JUMPI PUSH1 0x0 DUP1 REVERT JUMPDEST PUSH1 0x0 DUP1 PUSH1 0x20 DUP4 DUP6 SUB SLT ISZERO PUSH2 0x137B JUMPI PUSH1 0x0 DUP1 REVERT JUMPDEST DUP3 CALLDATALOAD PUSH8 0xFFFFFFFFFFFFFFFF DUP1 DUP3 GT ISZERO PUSH2 0x1393 JUMPI PUSH1 0x0 DUP1 REVERT JUMPDEST DUP2 DUP6 ADD SWAP2 POP DUP6 PUSH1 0x1F DUP4 ADD SLT PUSH2 0x13A7 JUMPI PUSH1 0x0 DUP1 REVERT JUMPDEST DUP2 CALLDATALOAD DUP2 DUP2 GT ISZERO PUSH2 0x13B6 JUMPI PUSH1 0x0 DUP1 REVERT JUMPDEST DUP7 PUSH1 0x20 DUP3 PUSH1 0x5 SHL DUP6 ADD ADD GT ISZERO PUSH2 0x13CB JUMPI PUSH1 0x0 DUP1 REVERT JUMPDEST PUSH1 0x20 SWAP3 SWAP1 SWAP3 ADD SWAP7 SWAP2 SWAP6 POP SWAP1 SWAP4 POP POP POP POP JUMP JUMPDEST PUSH1 0x0 DUP1 PUSH1 0x40 DUP4 DUP6 SUB SLT ISZERO PUSH2 0x13F0 JUMPI PUSH1 0x0 DUP1 REVERT JUMPDEST POP POP DUP1 CALLDATALOAD SWAP3 PUSH1 0x20 SWAP1 SWAP2 ADD CALLDATALOAD SWAP2 POP JUMP JUMPDEST PUSH1 0x20 DUP1 DUP3 MSTORE DUP3 MLOAD DUP3 DUP3 ADD DUP2 SWAP1 MSTORE PUSH1 0x0 SWAP2 SWAP1 DUP5 DUP3 ADD SWAP1 PUSH1 0x40 DUP6 ADD SWAP1 DUP5 JUMPDEST DUP2 DUP2 LT ISZERO PUSH2 0x1437 JUMPI DUP4 MLOAD DUP4 MSTORE SWAP3 DUP5 ADD SWAP3 SWAP2 DUP5 ADD SWAP2 PUSH1 0x1 ADD PUSH2 0x141B JUMP JUMPDEST POP SWAP1 SWAP7 SWAP6 POP POP POP POP POP POP JUMP JUMPDEST PUSH4 0x4E487B71 PUSH1 0xE0 SHL PUSH1 0x0 MSTORE PUSH1 0x32 PUSH1 0x4 MSTORE PUSH1 0x24 PUSH1 0x0 REVERT JUMPDEST PUSH4 0x4E487B71 PUSH1 0xE0 SHL PUSH1 0x0 MSTORE PUSH1 0x11 PUSH1 0x4 MSTORE PUSH1 0x24 PUSH1 0x0 REVERT JUMPDEST PUSH1 0x0 PUSH1 0x1 DUP3 ADD PUSH2 0x1481 JUMPI PUSH2 0x1481 PUSH2 0x1459 JUMP JUMPDEST POP PUSH1 0x1 ADD SWAP1 JUMP JUMPDEST PUSH1 0x0 DUP3 NOT DUP3 GT ISZERO PUSH2 0x149B JUMPI PUSH2 0x149B PUSH2 0x1459 JUMP JUMPDEST POP ADD SWAP1 JUMP JUMPDEST PUSH1 0x0 DUP3 DUP3 LT ISZERO PUSH2 0x14B2 JUMPI PUSH2 0x14B2 PUSH2 0x1459 JUMP JUMPDEST POP SUB SWAP1 JUMP JUMPDEST PUSH1 0x20 DUP1 DUP3 MSTORE PUSH1 0x2B SWAP1 DUP3 ADD MSTORE PUSH32 0x496E697469616C697A61626C653A20636F6E7472616374206973206E6F742069 PUSH1 0x40 DUP3 ADD MSTORE PUSH11 0x6E697469616C697A696E67 PUSH1 0xA8 SHL PUSH1 0x60 DUP3 ADD MSTORE PUSH1 0x80 ADD SWAP1 JUMP JUMPDEST PUSH1 0x0 DUP2 PUSH1 0x0 NOT DIV DUP4 GT DUP3 ISZERO ISZERO AND ISZERO PUSH2 0x151C JUMPI PUSH2 0x151C PUSH2 0x1459 JUMP JUMPDEST POP MUL SWAP1 JUMP JUMPDEST PUSH1 0x0 DUP3 PUSH2 0x153E JUMPI PUSH4 0x4E487B71 PUSH1 0xE0 SHL PUSH1 0x0 MSTORE PUSH1 0x12 PUSH1 0x4 MSTORE PUSH1 0x24 PUSH1 0x0 REVERT JUMPDEST POP DIV SWAP1 JUMP JUMPDEST PUSH4 0x4E487B71 PUSH1 0xE0 SHL PUSH1 0x0 MSTORE PUSH1 0x31 PUSH1 0x4 MSTORE PUSH1 0x24 PUSH1 0x0 REVERT INVALID LOG2 PUSH5 0x6970667358 0x22 SLT KECCAK256 SMOD 0xAE BASEFEE GASLIMIT 0xAA 0xF6 SWAP2 PUSH22 0x2A8913E7811BF5B2B0FCC1ACC2E473BA65086E5EDC23 EXP 0xD5 PUSH5 0x736F6C6343 STOP ADDMOD 0xD STOP CALLER "},"methodIdentifiers":{"allocatedPower()":"a15d5316","deposit(uint256[])":"598b8e71","depositsOf(address)":"e3a9db1a","earnedLastPeriod(uint256,uint256)":"b181e5ff","earnings(address)":"543fd313","harvest()":"4641257d","initialize()":"8129fc1c","nftContract()":"d56d229d","owner()":"8da5cb5b","pause()":"8456cb59","paused()":"5c975abb","rate()":"2c4e722e","reclaimable()":"99b72ccb","reclaimableLastReleased()":"ed18a6ba","released()":"96132521","releasedCorrection()":"ed9074c1","renounceOwnership()":"715018a6","reservedPower()":"c16e0461","setNftContract(address)":"52f5ad77","setPower(uint256[],uint256[])":"17909b7d","setRate(uint256)":"34fcf437","setTokenContract(address)":"bbcd5bbe","tokenContract()":"55a373d6","transferOwnership(address)":"f2fde38b","unpause()":"3f4ba83a","withdraw(uint256[])":"983d95ce"}}}}}