{"contracts/MutantStaking.sol":{"MutantStaking":{"abi":[{"anonymous":false,"inputs":[{"indexed":false,"internalType":"address","name":"staker","type":"address"},{"indexed":false,"internalType":"uint256","name":"amount","type":"uint256"}],"name":"Harvested","type":"event"},{"anonymous":false,"inputs":[{"indexed":false,"internalType":"uint8","name":"version","type":"uint8"}],"name":"Initialized","type":"event"},{"anonymous":false,"inputs":[{"indexed":true,"internalType":"address","name":"previousOwner","type":"address"},{"indexed":true,"internalType":"address","name":"newOwner","type":"address"}],"name":"OwnershipTransferred","type":"event"},{"anonymous":false,"inputs":[{"indexed":false,"internalType":"address","name":"account","type":"address"}],"name":"Paused","type":"event"},{"anonymous":false,"inputs":[{"indexed":false,"internalType":"address","name":"account","type":"address"}],"name":"Unpaused","type":"event"},{"inputs":[],"name":"allocatedPower","outputs":[{"internalType":"uint256","name":"","type":"uint256"}],"stateMutability":"view","type":"function"},{"inputs":[{"internalType":"uint256[]","name":"tokenIds","type":"uint256[]"}],"name":"deposit","outputs":[],"stateMutability":"nonpayable","type":"function"},{"inputs":[{"internalType":"address","name":"account","type":"address"}],"name":"depositsOf","outputs":[{"internalType":"uint256[]","name":"","type":"uint256[]"}],"stateMutability":"view","type":"function"},{"inputs":[{"internalType":"uint256","name":"_lastReleased","type":"uint256"},{"internalType":"uint256","name":"_power","type":"uint256"}],"name":"earnedLastPeriod","outputs":[{"internalType":"uint256","name":"","type":"uint256"}],"stateMutability":"view","type":"function"},{"inputs":[{"internalType":"address","name":"_staker","type":"address"}],"name":"earnings","outputs":[{"internalType":"uint256","name":"","type":"uint256"}],"stateMutability":"view","type":"function"},{"inputs":[],"name":"harvest","outputs":[],"stateMutability":"nonpayable","type":"function"},{"inputs":[{"internalType":"address","name":"_nftContract","type":"address"},{"internalType":"address","name":"_tokenContract","type":"address"},{"internalType":"uint256","name":"_rate","type":"uint256"}],"name":"initialize","outputs":[],"stateMutability":"nonpayable","type":"function"},{"inputs":[],"name":"nftContract","outputs":[{"internalType":"address","name":"","type":"address"}],"stateMutability":"view","type":"function"},{"inputs":[],"name":"owner","outputs":[{"internalType":"address","name":"","type":"address"}],"stateMutability":"view","type":"function"},{"inputs":[],"name":"pause","outputs":[],"stateMutability":"nonpayable","type":"function"},{"inputs":[],"name":"paused","outputs":[{"internalType":"bool","name":"","type":"bool"}],"stateMutability":"view","type":"function"},{"inputs":[],"name":"rate","outputs":[{"internalType":"uint256","name":"","type":"uint256"}],"stateMutability":"view","type":"function"},{"inputs":[],"name":"reclaimable","outputs":[{"internalType":"uint256","name":"","type":"uint256"}],"stateMutability":"view","type":"function"},{"inputs":[],"name":"reclaimableLastReleased","outputs":[{"internalType":"uint256","name":"","type":"uint256"}],"stateMutability":"view","type":"function"},{"inputs":[],"name":"released","outputs":[{"internalType":"uint256","name":"","type":"uint256"}],"stateMutability":"view","type":"function"},{"inputs":[],"name":"releasedCorrection","outputs":[{"internalType":"uint256","name":"","type":"uint256"}],"stateMutability":"view","type":"function"},{"inputs":[],"name":"renounceOwnership","outputs":[],"stateMutability":"nonpayable","type":"function"},{"inputs":[],"name":"reservedPower","outputs":[{"internalType":"uint256","name":"","type":"uint256"}],"stateMutability":"view","type":"function"},{"inputs":[{"internalType":"uint256","name":"_rate","type":"uint256"}],"name":"setRate","outputs":[],"stateMutability":"nonpayable","type":"function"},{"inputs":[],"name":"tokenContract","outputs":[{"internalType":"address","name":"","type":"address"}],"stateMutability":"view","type":"function"},{"inputs":[{"internalType":"address","name":"newOwner","type":"address"}],"name":"transferOwnership","outputs":[],"stateMutability":"nonpayable","type":"function"},{"inputs":[],"name":"unpause","outputs":[],"stateMutability":"nonpayable","type":"function"},{"inputs":[{"internalType":"uint256[]","name":"tokenIds","type":"uint256[]"}],"name":"withdraw","outputs":[],"stateMutability":"nonpayable","type":"function"}],"evm":{"bytecode":{"linkReferences":{},"object":"6080604052600060d481905560d581905560d65560d7805460ff1916905534801561002957600080fd5b50611341806100396000396000f3fe608060405234801561001057600080fd5b506004361061014d5760003560e01c80638da5cb5b116100c3578063c16e04611161007c578063c16e04611461026e578063d56d229d14610277578063e3a9db1a1461028a578063ed18a6ba146102aa578063ed9074c1146102b3578063f2fde38b146102bc57600080fd5b80638da5cb5b1461021d578063961325211461022e578063983d95ce1461023657806399b72ccb14610249578063a15d531614610252578063b181e5ff1461025b57600080fd5b8063543fd31311610115578063543fd313146101a657806355a373d6146101b9578063598b8e71146101e45780635c975abb146101f7578063715018a61461020d5780638456cb591461021557600080fd5b80631794bb3c146101525780632c4e722e1461016757806334fcf437146101835780633f4ba83a146101965780634641257d1461019e575b600080fd5b610165610160366004611094565b6102cf565b005b61017060cd5481565b6040519081526020015b60405180910390f35b6101656101913660046110d0565b610384565b610165610391565b6101656103a3565b6101706101b43660046110e9565b6104d4565b60cc546101cc906001600160a01b031681565b6040516001600160a01b03909116815260200161017a565b6101656101f2366004611104565b610529565b60975460ff16604051901515815260200161017a565b61016561074b565b61016561075d565b6033546001600160a01b03166101cc565b61017061076d565b610165610244366004611104565b610782565b61017060d55481565b61017060d35481565b610170610269366004611179565b6109a8565b61017060d25481565b60cb546101cc906001600160a01b031681565b61029d6102983660046110e9565b6109ff565b60405161017a919061119b565b61017060d65481565b61017060d45481565b6101656102ca3660046110e9565b610abb565b60d75460ff161561031d5760405162461bcd60e51b8152602060048201526013602482015272105b1c9958591e481a5b9a5d1a585b1a5e9959606a1b60448201526064015b60405180910390fd5b60d7805460ff19166001179055610332610b34565b61033a610b62565b610342610b92565b60cb80546001600160a01b038086166001600160a01b03199283161790925560cc80549285169290911691909117905560cd81905561037f610bc5565b505050565b61038c610c1f565b60cd55565b610399610c1f565b6103a1610c79565b565b6002606554036103f55760405162461bcd60e51b815260206004820152601f60248201527f5265656e7472616e637947756172643a207265656e7472616e742063616c6c006044820152606401610314565b60026065556000610405336104d4565b90506000811161044e5760405162461bcd60e51b81526020600482015260146024820152734e46545374616b653a204e6f207265776172647360601b6044820152606401610314565b33600090815260cf602052604081205561046661076d565b33600090815260cf602052604081206003019190915560d4805483929061048e9084906111f5565b909155505060408051338152602081018390527f121c5042302bae5fc561fbc64368f297ca60a880878e1e3a7f7e9380377260bf910160405180910390a1506001606555565b6001600160a01b038116600090815260cf60205260408120600381015460029091015461052391610504916109a8565b6001600160a01b038416600090815260cf602052604090205490610cb2565b92915050565b610531610cc5565b33600090815260cf6020908152604080832081516080810183528154815260018201549381018490526002820154928101929092526003015460608201529103610617576040518060800160405280600081526020014381526020016000815260200161059c61076d565b905233600081815260cf60209081526040808320855181559185015160018084019190915590850151600283015560609094015160039091015560d08054938401815590527fe89d44c8fd6a9bac8af33ce47f56337617d449bf7ff3956b618c646de829cbcb90910180546001600160a01b03191690911790555b604081015160005b8381101561073a5760cb546001600160a01b03166323b872dd333088888681811061064c5761064c61120d565b6040516001600160e01b031960e088901b1681526001600160a01b03958616600482015294909316602485015250602090910201356044820152606401600060405180830381600087803b1580156106a357600080fd5b505af11580156106b7573d6000803e3d6000fd5b505050506106ee8585838181106106d0576106d061120d565b33600090815260ce6020908152604090912093910201359050610d0b565b5060d160008686848181106107055761070561120d565b905060200201358152602001908152602001600020548261072691906111f5565b91508061073281611223565b91505061061f565b506107453382610d17565b50505050565b610753610c1f565b6103a16000610e13565b610765610c1f565b6103a1610bc5565b60d45460009061077d9047610cb2565b905090565b61078a610cc5565b6002606554036107dc5760405162461bcd60e51b815260206004820152601f60248201527f5265656e7472616e637947756172643a207265656e7472616e742063616c6c006044820152606401610314565b6002606581905533600090815260cf6020526040812090910154905b82811015610993576108338484838181106108155761081561120d565b33600090815260ce6020908152604090912093910201359050610e65565b61087f5760405162461bcd60e51b815260206004820181905260248201527f5374616b696e673a20596f7520617265206e6f7420746f6b656e206f776e65726044820152606401610314565b60d160008585848181106108955761089561120d565b90506020020135815260200190815260200160002054826108b6919061123c565b91506108eb8484838181106108cd576108cd61120d565b33600090815260ce6020908152604090912093910201359050610e7d565b5060cb546001600160a01b03166323b872dd30338787868181106109115761091161120d565b6040516001600160e01b031960e088901b1681526001600160a01b03958616600482015294909316602485015250602090910201356044820152606401600060405180830381600087803b15801561096857600080fd5b505af115801561097c573d6000803e3d6000fd5b50505050808061098b90611223565b9150506107f8565b5061099e3382610d17565b5050600160655550565b6000816000036109ba57506000610523565b60006109ce846109c861076d565b90610e89565b905080156109f55760d2546109ed906109e78386610e95565b90610ea1565b915050610523565b5060009392505050565b6001600160a01b038116600090815260ce60205260408120606091610a2382610ead565b67ffffffffffffffff811115610a3b57610a3b611253565b604051908082528060200260200182016040528015610a64578160200160208202803683370190505b50905060005b610a7383610ead565b811015610ab357610a848382610eb7565b828281518110610a9657610a9661120d565b602090810291909101015280610aab81611223565b915050610a6a565b509392505050565b610ac3610c1f565b6001600160a01b038116610b285760405162461bcd60e51b815260206004820152602660248201527f4f776e61626c653a206e6577206f776e657220697320746865207a65726f206160448201526564647265737360d01b6064820152608401610314565b610b3181610e13565b50565b600054610100900460ff16610b5b5760405162461bcd60e51b815260040161031490611269565b6001606555565b600054610100900460ff16610b895760405162461bcd60e51b815260040161031490611269565b6103a133610e13565b600054610100900460ff16610bb95760405162461bcd60e51b815260040161031490611269565b6097805460ff19169055565b610bcd610cc5565b6097805460ff191660011790557f62e78cea01bee320cd4e420270b5ea74000d11b0c9f74754ebdbfc544b05a258610c023390565b6040516001600160a01b03909116815260200160405180910390a1565b6033546001600160a01b031633146103a15760405162461bcd60e51b815260206004820181905260248201527f4f776e61626c653a2063616c6c6572206973206e6f7420746865206f776e65726044820152606401610314565b610c81610ec3565b6097805460ff191690557f5db9ee0a495bf2e6ff9c91a7834c1ba4fdd244a5e8aa4e537bd38aeae4b073aa33610c02565b6000610cbe82846111f5565b9392505050565b60975460ff16156103a15760405162461bcd60e51b815260206004820152601060248201526f14185d5cd8589b194e881c185d5cd95960821b6044820152606401610314565b6000610cbe8383610f0c565b610d20826104d4565b6001600160a01b038316600090815260cf6020526040902055610d4161076d565b6001600160a01b038316600090815260cf6020526040902060038101919091556002015460d25460d35411610da857610d99610d9060d65461026960d35460d254610e8990919063ffffffff16565b60d55490610cb2565b60d555610da461076d565b60d6555b6001600160a01b038316600090815260cf602052604090206002015460d354610ddc918491610dd691610e89565b90610cb2565b60d381905560d254811115610df25760d35460d2555b50506001600160a01b03909116600090815260cf6020526040902060020155565b603380546001600160a01b038381166001600160a01b0319831681179093556040519116919082907f8be0079c531659141344cd1fd0a4f28419497f9722a3daafe3b4186f6b6457e090600090a35050565b60008181526001830160205260408120541515610cbe565b6000610cbe8383610f5b565b6000610cbe828461123c565b6000610cbe82846112b4565b6000610cbe82846112d3565b6000610523825490565b6000610cbe838361104e565b60975460ff166103a15760405162461bcd60e51b815260206004820152601460248201527314185d5cd8589b194e881b9bdd081c185d5cd95960621b6044820152606401610314565b6000818152600183016020526040812054610f5357508154600181810184556000848152602080822090930184905584548482528286019093526040902091909155610523565b506000610523565b60008181526001830160205260408120548015611044576000610f7f60018361123c565b8554909150600090610f939060019061123c565b9050818114610ff8576000866000018281548110610fb357610fb361120d565b9060005260206000200154905080876000018481548110610fd657610fd661120d565b6000918252602080832090910192909255918252600188019052604090208390555b8554869080611009576110096112f5565b600190038181906000526020600020016000905590558560010160008681526020019081526020016000206000905560019350505050610523565b6000915050610523565b60008260000182815481106110655761106561120d565b9060005260206000200154905092915050565b80356001600160a01b038116811461108f57600080fd5b919050565b6000806000606084860312156110a957600080fd5b6110b284611078565b92506110c060208501611078565b9150604084013590509250925092565b6000602082840312156110e257600080fd5b5035919050565b6000602082840312156110fb57600080fd5b610cbe82611078565b6000806020838503121561111757600080fd5b823567ffffffffffffffff8082111561112f57600080fd5b818501915085601f83011261114357600080fd5b81358181111561115257600080fd5b8660208260051b850101111561116757600080fd5b60209290920196919550909350505050565b6000806040838503121561118c57600080fd5b50508035926020909101359150565b6020808252825182820181905260009190848201906040850190845b818110156111d3578351835292840192918401916001016111b7565b50909695505050505050565b634e487b7160e01b600052601160045260246000fd5b60008219821115611208576112086111df565b500190565b634e487b7160e01b600052603260045260246000fd5b600060018201611235576112356111df565b5060010190565b60008282101561124e5761124e6111df565b500390565b634e487b7160e01b600052604160045260246000fd5b6020808252602b908201527f496e697469616c697a61626c653a20636f6e7472616374206973206e6f74206960408201526a6e697469616c697a696e6760a81b606082015260800190565b60008160001904831182151516156112ce576112ce6111df565b500290565b6000826112f057634e487b7160e01b600052601260045260246000fd5b500490565b634e487b7160e01b600052603160045260246000fdfea264697066735822122044749749358862046f1c510ad66d9859e140f637fbcb9a9047ad9ecd380a146864736f6c634300080d0033","opcodes":"PUSH1 0x80 PUSH1 0x40 MSTORE PUSH1 0x0 PUSH1 0xD4 DUP2 SWAP1 SSTORE PUSH1 0xD5 DUP2 SWAP1 SSTORE PUSH1 0xD6 SSTORE PUSH1 0xD7 DUP1 SLOAD PUSH1 0xFF NOT AND SWAP1 SSTORE CALLVALUE DUP1 ISZERO PUSH2 0x29 JUMPI PUSH1 0x0 DUP1 REVERT JUMPDEST POP PUSH2 0x1341 DUP1 PUSH2 0x39 PUSH1 0x0 CODECOPY PUSH1 0x0 RETURN INVALID PUSH1 0x80 PUSH1 0x40 MSTORE CALLVALUE DUP1 ISZERO PUSH2 0x10 JUMPI PUSH1 0x0 DUP1 REVERT JUMPDEST POP PUSH1 0x4 CALLDATASIZE LT PUSH2 0x14D JUMPI PUSH1 0x0 CALLDATALOAD PUSH1 0xE0 SHR DUP1 PUSH4 0x8DA5CB5B GT PUSH2 0xC3 JUMPI DUP1 PUSH4 0xC16E0461 GT PUSH2 0x7C JUMPI DUP1 PUSH4 0xC16E0461 EQ PUSH2 0x26E JUMPI DUP1 PUSH4 0xD56D229D EQ PUSH2 0x277 JUMPI DUP1 PUSH4 0xE3A9DB1A EQ PUSH2 0x28A JUMPI DUP1 PUSH4 0xED18A6BA EQ PUSH2 0x2AA JUMPI DUP1 PUSH4 0xED9074C1 EQ PUSH2 0x2B3 JUMPI DUP1 PUSH4 0xF2FDE38B EQ PUSH2 0x2BC JUMPI PUSH1 0x0 DUP1 REVERT JUMPDEST DUP1 PUSH4 0x8DA5CB5B EQ PUSH2 0x21D JUMPI DUP1 PUSH4 0x96132521 EQ PUSH2 0x22E JUMPI DUP1 PUSH4 0x983D95CE EQ PUSH2 0x236 JUMPI DUP1 PUSH4 0x99B72CCB EQ PUSH2 0x249 JUMPI DUP1 PUSH4 0xA15D5316 EQ PUSH2 0x252 JUMPI DUP1 PUSH4 0xB181E5FF EQ PUSH2 0x25B JUMPI PUSH1 0x0 DUP1 REVERT JUMPDEST DUP1 PUSH4 0x543FD313 GT PUSH2 0x115 JUMPI DUP1 PUSH4 0x543FD313 EQ PUSH2 0x1A6 JUMPI DUP1 PUSH4 0x55A373D6 EQ PUSH2 0x1B9 JUMPI DUP1 PUSH4 0x598B8E71 EQ PUSH2 0x1E4 JUMPI DUP1 PUSH4 0x5C975ABB EQ PUSH2 0x1F7 JUMPI DUP1 PUSH4 0x715018A6 EQ PUSH2 0x20D JUMPI DUP1 PUSH4 0x8456CB59 EQ PUSH2 0x215 JUMPI PUSH1 0x0 DUP1 REVERT JUMPDEST DUP1 PUSH4 0x1794BB3C EQ PUSH2 0x152 JUMPI DUP1 PUSH4 0x2C4E722E EQ PUSH2 0x167 JUMPI DUP1 PUSH4 0x34FCF437 EQ PUSH2 0x183 JUMPI DUP1 PUSH4 0x3F4BA83A EQ PUSH2 0x196 JUMPI DUP1 PUSH4 0x4641257D EQ PUSH2 0x19E JUMPI JUMPDEST PUSH1 0x0 DUP1 REVERT JUMPDEST PUSH2 0x165 PUSH2 0x160 CALLDATASIZE PUSH1 0x4 PUSH2 0x1094 JUMP JUMPDEST PUSH2 0x2CF JUMP JUMPDEST STOP JUMPDEST PUSH2 0x170 PUSH1 0xCD SLOAD DUP2 JUMP JUMPDEST PUSH1 0x40 MLOAD SWAP1 DUP2 MSTORE PUSH1 0x20 ADD JUMPDEST PUSH1 0x40 MLOAD DUP1 SWAP2 SUB SWAP1 RETURN JUMPDEST PUSH2 0x165 PUSH2 0x191 CALLDATASIZE PUSH1 0x4 PUSH2 0x10D0 JUMP JUMPDEST PUSH2 0x384 JUMP JUMPDEST PUSH2 0x165 PUSH2 0x391 JUMP JUMPDEST PUSH2 0x165 PUSH2 0x3A3 JUMP JUMPDEST PUSH2 0x170 PUSH2 0x1B4 CALLDATASIZE PUSH1 0x4 PUSH2 0x10E9 JUMP JUMPDEST PUSH2 0x4D4 JUMP JUMPDEST PUSH1 0xCC SLOAD PUSH2 0x1CC SWAP1 PUSH1 0x1 PUSH1 0x1 PUSH1 0xA0 SHL SUB AND DUP2 JUMP JUMPDEST PUSH1 0x40 MLOAD PUSH1 0x1 PUSH1 0x1 PUSH1 0xA0 SHL SUB SWAP1 SWAP2 AND DUP2 MSTORE PUSH1 0x20 ADD PUSH2 0x17A JUMP JUMPDEST PUSH2 0x165 PUSH2 0x1F2 CALLDATASIZE PUSH1 0x4 PUSH2 0x1104 JUMP JUMPDEST PUSH2 0x529 JUMP JUMPDEST PUSH1 0x97 SLOAD PUSH1 0xFF AND PUSH1 0x40 MLOAD SWAP1 ISZERO ISZERO DUP2 MSTORE PUSH1 0x20 ADD PUSH2 0x17A JUMP JUMPDEST PUSH2 0x165 PUSH2 0x74B JUMP JUMPDEST PUSH2 0x165 PUSH2 0x75D JUMP JUMPDEST PUSH1 0x33 SLOAD PUSH1 0x1 PUSH1 0x1 PUSH1 0xA0 SHL SUB AND PUSH2 0x1CC JUMP JUMPDEST PUSH2 0x170 PUSH2 0x76D JUMP JUMPDEST PUSH2 0x165 PUSH2 0x244 CALLDATASIZE PUSH1 0x4 PUSH2 0x1104 JUMP JUMPDEST PUSH2 0x782 JUMP JUMPDEST PUSH2 0x170 PUSH1 0xD5 SLOAD DUP2 JUMP JUMPDEST PUSH2 0x170 PUSH1 0xD3 SLOAD DUP2 JUMP JUMPDEST PUSH2 0x170 PUSH2 0x269 CALLDATASIZE PUSH1 0x4 PUSH2 0x1179 JUMP JUMPDEST PUSH2 0x9A8 JUMP JUMPDEST PUSH2 0x170 PUSH1 0xD2 SLOAD DUP2 JUMP JUMPDEST PUSH1 0xCB SLOAD PUSH2 0x1CC SWAP1 PUSH1 0x1 PUSH1 0x1 PUSH1 0xA0 SHL SUB AND DUP2 JUMP JUMPDEST PUSH2 0x29D PUSH2 0x298 CALLDATASIZE PUSH1 0x4 PUSH2 0x10E9 JUMP JUMPDEST PUSH2 0x9FF JUMP JUMPDEST PUSH1 0x40 MLOAD PUSH2 0x17A SWAP2 SWAP1 PUSH2 0x119B JUMP JUMPDEST PUSH2 0x170 PUSH1 0xD6 SLOAD DUP2 JUMP JUMPDEST PUSH2 0x170 PUSH1 0xD4 SLOAD DUP2 JUMP JUMPDEST PUSH2 0x165 PUSH2 0x2CA CALLDATASIZE PUSH1 0x4 PUSH2 0x10E9 JUMP JUMPDEST PUSH2 0xABB JUMP JUMPDEST PUSH1 0xD7 SLOAD PUSH1 0xFF AND ISZERO PUSH2 0x31D JUMPI PUSH1 0x40 MLOAD PUSH3 0x461BCD PUSH1 0xE5 SHL DUP2 MSTORE PUSH1 0x20 PUSH1 0x4 DUP3 ADD MSTORE PUSH1 0x13 PUSH1 0x24 DUP3 ADD MSTORE PUSH19 0x105B1C9958591E481A5B9A5D1A585B1A5E9959 PUSH1 0x6A SHL PUSH1 0x44 DUP3 ADD MSTORE PUSH1 0x64 ADD JUMPDEST PUSH1 0x40 MLOAD DUP1 SWAP2 SUB SWAP1 REVERT JUMPDEST PUSH1 0xD7 DUP1 SLOAD PUSH1 0xFF NOT AND PUSH1 0x1 OR SWAP1 SSTORE PUSH2 0x332 PUSH2 0xB34 JUMP JUMPDEST PUSH2 0x33A PUSH2 0xB62 JUMP JUMPDEST PUSH2 0x342 PUSH2 0xB92 JUMP JUMPDEST PUSH1 0xCB DUP1 SLOAD PUSH1 0x1 PUSH1 0x1 PUSH1 0xA0 SHL SUB DUP1 DUP7 AND PUSH1 0x1 PUSH1 0x1 PUSH1 0xA0 SHL SUB NOT SWAP3 DUP4 AND OR SWAP1 SWAP3 SSTORE PUSH1 0xCC DUP1 SLOAD SWAP3 DUP6 AND SWAP3 SWAP1 SWAP2 AND SWAP2 SWAP1 SWAP2 OR SWAP1 SSTORE PUSH1 0xCD DUP2 SWAP1 SSTORE PUSH2 0x37F PUSH2 0xBC5 JUMP JUMPDEST POP POP POP JUMP JUMPDEST PUSH2 0x38C PUSH2 0xC1F JUMP JUMPDEST PUSH1 0xCD SSTORE JUMP JUMPDEST PUSH2 0x399 PUSH2 0xC1F JUMP JUMPDEST PUSH2 0x3A1 PUSH2 0xC79 JUMP JUMPDEST JUMP JUMPDEST PUSH1 0x2 PUSH1 0x65 SLOAD SUB PUSH2 0x3F5 JUMPI PUSH1 0x40 MLOAD PUSH3 0x461BCD PUSH1 0xE5 SHL DUP2 MSTORE PUSH1 0x20 PUSH1 0x4 DUP3 ADD MSTORE PUSH1 0x1F PUSH1 0x24 DUP3 ADD MSTORE PUSH32 0x5265656E7472616E637947756172643A207265656E7472616E742063616C6C00 PUSH1 0x44 DUP3 ADD MSTORE PUSH1 0x64 ADD PUSH2 0x314 JUMP JUMPDEST PUSH1 0x2 PUSH1 0x65 SSTORE PUSH1 0x0 PUSH2 0x405 CALLER PUSH2 0x4D4 JUMP JUMPDEST SWAP1 POP PUSH1 0x0 DUP2 GT PUSH2 0x44E JUMPI PUSH1 0x40 MLOAD PUSH3 0x461BCD PUSH1 0xE5 SHL DUP2 MSTORE PUSH1 0x20 PUSH1 0x4 DUP3 ADD MSTORE PUSH1 0x14 PUSH1 0x24 DUP3 ADD MSTORE PUSH20 0x4E46545374616B653A204E6F2072657761726473 PUSH1 0x60 SHL PUSH1 0x44 DUP3 ADD MSTORE PUSH1 0x64 ADD PUSH2 0x314 JUMP JUMPDEST CALLER PUSH1 0x0 SWAP1 DUP2 MSTORE PUSH1 0xCF PUSH1 0x20 MSTORE PUSH1 0x40 DUP2 KECCAK256 SSTORE PUSH2 0x466 PUSH2 0x76D JUMP JUMPDEST CALLER PUSH1 0x0 SWAP1 DUP2 MSTORE PUSH1 0xCF PUSH1 0x20 MSTORE PUSH1 0x40 DUP2 KECCAK256 PUSH1 0x3 ADD SWAP2 SWAP1 SWAP2 SSTORE PUSH1 0xD4 DUP1 SLOAD DUP4 SWAP3 SWAP1 PUSH2 0x48E SWAP1 DUP5 SWAP1 PUSH2 0x11F5 JUMP JUMPDEST SWAP1 SWAP2 SSTORE POP POP PUSH1 0x40 DUP1 MLOAD CALLER DUP2 MSTORE PUSH1 0x20 DUP2 ADD DUP4 SWAP1 MSTORE PUSH32 0x121C5042302BAE5FC561FBC64368F297CA60A880878E1E3A7F7E9380377260BF SWAP2 ADD PUSH1 0x40 MLOAD DUP1 SWAP2 SUB SWAP1 LOG1 POP PUSH1 0x1 PUSH1 0x65 SSTORE JUMP JUMPDEST PUSH1 0x1 PUSH1 0x1 PUSH1 0xA0 SHL SUB DUP2 AND PUSH1 0x0 SWAP1 DUP2 MSTORE PUSH1 0xCF PUSH1 0x20 MSTORE PUSH1 0x40 DUP2 KECCAK256 PUSH1 0x3 DUP2 ADD SLOAD PUSH1 0x2 SWAP1 SWAP2 ADD SLOAD PUSH2 0x523 SWAP2 PUSH2 0x504 SWAP2 PUSH2 0x9A8 JUMP JUMPDEST PUSH1 0x1 PUSH1 0x1 PUSH1 0xA0 SHL SUB DUP5 AND PUSH1 0x0 SWAP1 DUP2 MSTORE PUSH1 0xCF PUSH1 0x20 MSTORE PUSH1 0x40 SWAP1 KECCAK256 SLOAD SWAP1 PUSH2 0xCB2 JUMP JUMPDEST SWAP3 SWAP2 POP POP JUMP JUMPDEST PUSH2 0x531 PUSH2 0xCC5 JUMP JUMPDEST CALLER PUSH1 0x0 SWAP1 DUP2 MSTORE PUSH1 0xCF PUSH1 0x20 SWAP1 DUP2 MSTORE PUSH1 0x40 DUP1 DUP4 KECCAK256 DUP2 MLOAD PUSH1 0x80 DUP2 ADD DUP4 MSTORE DUP2 SLOAD DUP2 MSTORE PUSH1 0x1 DUP3 ADD SLOAD SWAP4 DUP2 ADD DUP5 SWAP1 MSTORE PUSH1 0x2 DUP3 ADD SLOAD SWAP3 DUP2 ADD SWAP3 SWAP1 SWAP3 MSTORE PUSH1 0x3 ADD SLOAD PUSH1 0x60 DUP3 ADD MSTORE SWAP2 SUB PUSH2 0x617 JUMPI PUSH1 0x40 MLOAD DUP1 PUSH1 0x80 ADD PUSH1 0x40 MSTORE DUP1 PUSH1 0x0 DUP2 MSTORE PUSH1 0x20 ADD NUMBER DUP2 MSTORE PUSH1 0x20 ADD PUSH1 0x0 DUP2 MSTORE PUSH1 0x20 ADD PUSH2 0x59C PUSH2 0x76D JUMP JUMPDEST SWAP1 MSTORE CALLER PUSH1 0x0 DUP2 DUP2 MSTORE PUSH1 0xCF PUSH1 0x20 SWAP1 DUP2 MSTORE PUSH1 0x40 DUP1 DUP4 KECCAK256 DUP6 MLOAD DUP2 SSTORE SWAP2 DUP6 ADD MLOAD PUSH1 0x1 DUP1 DUP5 ADD SWAP2 SWAP1 SWAP2 SSTORE SWAP1 DUP6 ADD MLOAD PUSH1 0x2 DUP4 ADD SSTORE PUSH1 0x60 SWAP1 SWAP5 ADD MLOAD PUSH1 0x3 SWAP1 SWAP2 ADD SSTORE PUSH1 0xD0 DUP1 SLOAD SWAP4 DUP5 ADD DUP2 SSTORE SWAP1 MSTORE PUSH32 0xE89D44C8FD6A9BAC8AF33CE47F56337617D449BF7FF3956B618C646DE829CBCB SWAP1 SWAP2 ADD DUP1 SLOAD PUSH1 0x1 PUSH1 0x1 PUSH1 0xA0 SHL SUB NOT AND SWAP1 SWAP2 OR SWAP1 SSTORE JUMPDEST PUSH1 0x40 DUP2 ADD MLOAD PUSH1 0x0 JUMPDEST DUP4 DUP2 LT ISZERO PUSH2 0x73A JUMPI PUSH1 0xCB SLOAD PUSH1 0x1 PUSH1 0x1 PUSH1 0xA0 SHL SUB AND PUSH4 0x23B872DD CALLER ADDRESS DUP9 DUP9 DUP7 DUP2 DUP2 LT PUSH2 0x64C JUMPI PUSH2 0x64C PUSH2 0x120D JUMP JUMPDEST PUSH1 0x40 MLOAD PUSH1 0x1 PUSH1 0x1 PUSH1 0xE0 SHL SUB NOT PUSH1 0xE0 DUP9 SWAP1 SHL AND DUP2 MSTORE PUSH1 0x1 PUSH1 0x1 PUSH1 0xA0 SHL SUB SWAP6 DUP7 AND PUSH1 0x4 DUP3 ADD MSTORE SWAP5 SWAP1 SWAP4 AND PUSH1 0x24 DUP6 ADD MSTORE POP PUSH1 0x20 SWAP1 SWAP2 MUL ADD CALLDATALOAD PUSH1 0x44 DUP3 ADD MSTORE PUSH1 0x64 ADD PUSH1 0x0 PUSH1 0x40 MLOAD DUP1 DUP4 SUB DUP2 PUSH1 0x0 DUP8 DUP1 EXTCODESIZE ISZERO DUP1 ISZERO PUSH2 0x6A3 JUMPI PUSH1 0x0 DUP1 REVERT JUMPDEST POP GAS CALL ISZERO DUP1 ISZERO PUSH2 0x6B7 JUMPI RETURNDATASIZE PUSH1 0x0 DUP1 RETURNDATACOPY RETURNDATASIZE PUSH1 0x0 REVERT JUMPDEST POP POP POP POP PUSH2 0x6EE DUP6 DUP6 DUP4 DUP2 DUP2 LT PUSH2 0x6D0 JUMPI PUSH2 0x6D0 PUSH2 0x120D JUMP JUMPDEST CALLER PUSH1 0x0 SWAP1 DUP2 MSTORE PUSH1 0xCE PUSH1 0x20 SWAP1 DUP2 MSTORE PUSH1 0x40 SWAP1 SWAP2 KECCAK256 SWAP4 SWAP2 MUL ADD CALLDATALOAD SWAP1 POP PUSH2 0xD0B JUMP JUMPDEST POP PUSH1 0xD1 PUSH1 0x0 DUP7 DUP7 DUP5 DUP2 DUP2 LT PUSH2 0x705 JUMPI PUSH2 0x705 PUSH2 0x120D JUMP JUMPDEST SWAP1 POP PUSH1 0x20 MUL ADD CALLDATALOAD DUP2 MSTORE PUSH1 0x20 ADD SWAP1 DUP2 MSTORE PUSH1 0x20 ADD PUSH1 0x0 KECCAK256 SLOAD DUP3 PUSH2 0x726 SWAP2 SWAP1 PUSH2 0x11F5 JUMP JUMPDEST SWAP2 POP DUP1 PUSH2 0x732 DUP2 PUSH2 0x1223 JUMP JUMPDEST SWAP2 POP POP PUSH2 0x61F JUMP JUMPDEST POP PUSH2 0x745 CALLER DUP3 PUSH2 0xD17 JUMP JUMPDEST POP POP POP POP JUMP JUMPDEST PUSH2 0x753 PUSH2 0xC1F JUMP JUMPDEST PUSH2 0x3A1 PUSH1 0x0 PUSH2 0xE13 JUMP JUMPDEST PUSH2 0x765 PUSH2 0xC1F JUMP JUMPDEST PUSH2 0x3A1 PUSH2 0xBC5 JUMP JUMPDEST PUSH1 0xD4 SLOAD PUSH1 0x0 SWAP1 PUSH2 0x77D SWAP1 SELFBALANCE PUSH2 0xCB2 JUMP JUMPDEST SWAP1 POP SWAP1 JUMP JUMPDEST PUSH2 0x78A PUSH2 0xCC5 JUMP JUMPDEST PUSH1 0x2 PUSH1 0x65 SLOAD SUB PUSH2 0x7DC JUMPI PUSH1 0x40 MLOAD PUSH3 0x461BCD PUSH1 0xE5 SHL DUP2 MSTORE PUSH1 0x20 PUSH1 0x4 DUP3 ADD MSTORE PUSH1 0x1F PUSH1 0x24 DUP3 ADD MSTORE PUSH32 0x5265656E7472616E637947756172643A207265656E7472616E742063616C6C00 PUSH1 0x44 DUP3 ADD MSTORE PUSH1 0x64 ADD PUSH2 0x314 JUMP JUMPDEST PUSH1 0x2 PUSH1 0x65 DUP2 SWAP1 SSTORE CALLER PUSH1 0x0 SWAP1 DUP2 MSTORE PUSH1 0xCF PUSH1 0x20 MSTORE PUSH1 0x40 DUP2 KECCAK256 SWAP1 SWAP2 ADD SLOAD SWAP1 JUMPDEST DUP3 DUP2 LT ISZERO PUSH2 0x993 JUMPI PUSH2 0x833 DUP5 DUP5 DUP4 DUP2 DUP2 LT PUSH2 0x815 JUMPI PUSH2 0x815 PUSH2 0x120D JUMP JUMPDEST CALLER PUSH1 0x0 SWAP1 DUP2 MSTORE PUSH1 0xCE PUSH1 0x20 SWAP1 DUP2 MSTORE PUSH1 0x40 SWAP1 SWAP2 KECCAK256 SWAP4 SWAP2 MUL ADD CALLDATALOAD SWAP1 POP PUSH2 0xE65 JUMP JUMPDEST PUSH2 0x87F JUMPI PUSH1 0x40 MLOAD PUSH3 0x461BCD PUSH1 0xE5 SHL DUP2 MSTORE PUSH1 0x20 PUSH1 0x4 DUP3 ADD DUP2 SWAP1 MSTORE PUSH1 0x24 DUP3 ADD MSTORE PUSH32 0x5374616B696E673A20596F7520617265206E6F7420746F6B656E206F776E6572 PUSH1 0x44 DUP3 ADD MSTORE PUSH1 0x64 ADD PUSH2 0x314 JUMP JUMPDEST PUSH1 0xD1 PUSH1 0x0 DUP6 DUP6 DUP5 DUP2 DUP2 LT PUSH2 0x895 JUMPI PUSH2 0x895 PUSH2 0x120D JUMP JUMPDEST SWAP1 POP PUSH1 0x20 MUL ADD CALLDATALOAD DUP2 MSTORE PUSH1 0x20 ADD SWAP1 DUP2 MSTORE PUSH1 0x20 ADD PUSH1 0x0 KECCAK256 SLOAD DUP3 PUSH2 0x8B6 SWAP2 SWAP1 PUSH2 0x123C JUMP JUMPDEST SWAP2 POP PUSH2 0x8EB DUP5 DUP5 DUP4 DUP2 DUP2 LT PUSH2 0x8CD JUMPI PUSH2 0x8CD PUSH2 0x120D JUMP JUMPDEST CALLER PUSH1 0x0 SWAP1 DUP2 MSTORE PUSH1 0xCE PUSH1 0x20 SWAP1 DUP2 MSTORE PUSH1 0x40 SWAP1 SWAP2 KECCAK256 SWAP4 SWAP2 MUL ADD CALLDATALOAD SWAP1 POP PUSH2 0xE7D JUMP JUMPDEST POP PUSH1 0xCB SLOAD PUSH1 0x1 PUSH1 0x1 PUSH1 0xA0 SHL SUB AND PUSH4 0x23B872DD ADDRESS CALLER DUP8 DUP8 DUP7 DUP2 DUP2 LT PUSH2 0x911 JUMPI PUSH2 0x911 PUSH2 0x120D JUMP JUMPDEST PUSH1 0x40 MLOAD PUSH1 0x1 PUSH1 0x1 PUSH1 0xE0 SHL SUB NOT PUSH1 0xE0 DUP9 SWAP1 SHL AND DUP2 MSTORE PUSH1 0x1 PUSH1 0x1 PUSH1 0xA0 SHL SUB SWAP6 DUP7 AND PUSH1 0x4 DUP3 ADD MSTORE SWAP5 SWAP1 SWAP4 AND PUSH1 0x24 DUP6 ADD MSTORE POP PUSH1 0x20 SWAP1 SWAP2 MUL ADD CALLDATALOAD PUSH1 0x44 DUP3 ADD MSTORE PUSH1 0x64 ADD PUSH1 0x0 PUSH1 0x40 MLOAD DUP1 DUP4 SUB DUP2 PUSH1 0x0 DUP8 DUP1 EXTCODESIZE ISZERO DUP1 ISZERO PUSH2 0x968 JUMPI PUSH1 0x0 DUP1 REVERT JUMPDEST POP GAS CALL ISZERO DUP1 ISZERO PUSH2 0x97C JUMPI RETURNDATASIZE PUSH1 0x0 DUP1 RETURNDATACOPY RETURNDATASIZE PUSH1 0x0 REVERT JUMPDEST POP POP POP POP DUP1 DUP1 PUSH2 0x98B SWAP1 PUSH2 0x1223 JUMP JUMPDEST SWAP2 POP POP PUSH2 0x7F8 JUMP JUMPDEST POP PUSH2 0x99E CALLER DUP3 PUSH2 0xD17 JUMP JUMPDEST POP POP PUSH1 0x1 PUSH1 0x65 SSTORE POP JUMP JUMPDEST PUSH1 0x0 DUP2 PUSH1 0x0 SUB PUSH2 0x9BA JUMPI POP PUSH1 0x0 PUSH2 0x523 JUMP JUMPDEST PUSH1 0x0 PUSH2 0x9CE DUP5 PUSH2 0x9C8 PUSH2 0x76D JUMP JUMPDEST SWAP1 PUSH2 0xE89 JUMP JUMPDEST SWAP1 POP DUP1 ISZERO PUSH2 0x9F5 JUMPI PUSH1 0xD2 SLOAD PUSH2 0x9ED SWAP1 PUSH2 0x9E7 DUP4 DUP7 PUSH2 0xE95 JUMP JUMPDEST SWAP1 PUSH2 0xEA1 JUMP JUMPDEST SWAP2 POP POP PUSH2 0x523 JUMP JUMPDEST POP PUSH1 0x0 SWAP4 SWAP3 POP POP POP JUMP JUMPDEST PUSH1 0x1 PUSH1 0x1 PUSH1 0xA0 SHL SUB DUP2 AND PUSH1 0x0 SWAP1 DUP2 MSTORE PUSH1 0xCE PUSH1 0x20 MSTORE PUSH1 0x40 DUP2 KECCAK256 PUSH1 0x60 SWAP2 PUSH2 0xA23 DUP3 PUSH2 0xEAD JUMP JUMPDEST PUSH8 0xFFFFFFFFFFFFFFFF DUP2 GT ISZERO PUSH2 0xA3B JUMPI PUSH2 0xA3B PUSH2 0x1253 JUMP JUMPDEST PUSH1 0x40 MLOAD SWAP1 DUP1 DUP3 MSTORE DUP1 PUSH1 0x20 MUL PUSH1 0x20 ADD DUP3 ADD PUSH1 0x40 MSTORE DUP1 ISZERO PUSH2 0xA64 JUMPI DUP2 PUSH1 0x20 ADD PUSH1 0x20 DUP3 MUL DUP1 CALLDATASIZE DUP4 CALLDATACOPY ADD SWAP1 POP JUMPDEST POP SWAP1 POP PUSH1 0x0 JUMPDEST PUSH2 0xA73 DUP4 PUSH2 0xEAD JUMP JUMPDEST DUP2 LT ISZERO PUSH2 0xAB3 JUMPI PUSH2 0xA84 DUP4 DUP3 PUSH2 0xEB7 JUMP JUMPDEST DUP3 DUP3 DUP2 MLOAD DUP2 LT PUSH2 0xA96 JUMPI PUSH2 0xA96 PUSH2 0x120D JUMP JUMPDEST PUSH1 0x20 SWAP1 DUP2 MUL SWAP2 SWAP1 SWAP2 ADD ADD MSTORE DUP1 PUSH2 0xAAB DUP2 PUSH2 0x1223 JUMP JUMPDEST SWAP2 POP POP PUSH2 0xA6A JUMP JUMPDEST POP SWAP4 SWAP3 POP POP POP JUMP JUMPDEST PUSH2 0xAC3 PUSH2 0xC1F JUMP JUMPDEST PUSH1 0x1 PUSH1 0x1 PUSH1 0xA0 SHL SUB DUP2 AND PUSH2 0xB28 JUMPI PUSH1 0x40 MLOAD PUSH3 0x461BCD PUSH1 0xE5 SHL DUP2 MSTORE PUSH1 0x20 PUSH1 0x4 DUP3 ADD MSTORE PUSH1 0x26 PUSH1 0x24 DUP3 ADD MSTORE PUSH32 0x4F776E61626C653A206E6577206F776E657220697320746865207A65726F2061 PUSH1 0x44 DUP3 ADD MSTORE PUSH6 0x646472657373 PUSH1 0xD0 SHL PUSH1 0x64 DUP3 ADD MSTORE PUSH1 0x84 ADD PUSH2 0x314 JUMP JUMPDEST PUSH2 0xB31 DUP2 PUSH2 0xE13 JUMP JUMPDEST POP JUMP JUMPDEST PUSH1 0x0 SLOAD PUSH2 0x100 SWAP1 DIV PUSH1 0xFF AND PUSH2 0xB5B JUMPI PUSH1 0x40 MLOAD PUSH3 0x461BCD PUSH1 0xE5 SHL DUP2 MSTORE PUSH1 0x4 ADD PUSH2 0x314 SWAP1 PUSH2 0x1269 JUMP JUMPDEST PUSH1 0x1 PUSH1 0x65 SSTORE JUMP JUMPDEST PUSH1 0x0 SLOAD PUSH2 0x100 SWAP1 DIV PUSH1 0xFF AND PUSH2 0xB89 JUMPI PUSH1 0x40 MLOAD PUSH3 0x461BCD PUSH1 0xE5 SHL DUP2 MSTORE PUSH1 0x4 ADD PUSH2 0x314 SWAP1 PUSH2 0x1269 JUMP JUMPDEST PUSH2 0x3A1 CALLER PUSH2 0xE13 JUMP JUMPDEST PUSH1 0x0 SLOAD PUSH2 0x100 SWAP1 DIV PUSH1 0xFF AND PUSH2 0xBB9 JUMPI PUSH1 0x40 MLOAD PUSH3 0x461BCD PUSH1 0xE5 SHL DUP2 MSTORE PUSH1 0x4 ADD PUSH2 0x314 SWAP1 PUSH2 0x1269 JUMP JUMPDEST PUSH1 0x97 DUP1 SLOAD PUSH1 0xFF NOT AND SWAP1 SSTORE JUMP JUMPDEST PUSH2 0xBCD PUSH2 0xCC5 JUMP JUMPDEST PUSH1 0x97 DUP1 SLOAD PUSH1 0xFF NOT AND PUSH1 0x1 OR SWAP1 SSTORE PUSH32 0x62E78CEA01BEE320CD4E420270B5EA74000D11B0C9F74754EBDBFC544B05A258 PUSH2 0xC02 CALLER SWAP1 JUMP JUMPDEST PUSH1 0x40 MLOAD PUSH1 0x1 PUSH1 0x1 PUSH1 0xA0 SHL SUB SWAP1 SWAP2 AND DUP2 MSTORE PUSH1 0x20 ADD PUSH1 0x40 MLOAD DUP1 SWAP2 SUB SWAP1 LOG1 JUMP JUMPDEST PUSH1 0x33 SLOAD PUSH1 0x1 PUSH1 0x1 PUSH1 0xA0 SHL SUB AND CALLER EQ PUSH2 0x3A1 JUMPI PUSH1 0x40 MLOAD PUSH3 0x461BCD PUSH1 0xE5 SHL DUP2 MSTORE PUSH1 0x20 PUSH1 0x4 DUP3 ADD DUP2 SWAP1 MSTORE PUSH1 0x24 DUP3 ADD MSTORE PUSH32 0x4F776E61626C653A2063616C6C6572206973206E6F7420746865206F776E6572 PUSH1 0x44 DUP3 ADD MSTORE PUSH1 0x64 ADD PUSH2 0x314 JUMP JUMPDEST PUSH2 0xC81 PUSH2 0xEC3 JUMP JUMPDEST PUSH1 0x97 DUP1 SLOAD PUSH1 0xFF NOT AND SWAP1 SSTORE PUSH32 0x5DB9EE0A495BF2E6FF9C91A7834C1BA4FDD244A5E8AA4E537BD38AEAE4B073AA CALLER PUSH2 0xC02 JUMP JUMPDEST PUSH1 0x0 PUSH2 0xCBE DUP3 DUP5 PUSH2 0x11F5 JUMP JUMPDEST SWAP4 SWAP3 POP POP POP JUMP JUMPDEST PUSH1 0x97 SLOAD PUSH1 0xFF AND ISZERO PUSH2 0x3A1 JUMPI PUSH1 0x40 MLOAD PUSH3 0x461BCD PUSH1 0xE5 SHL DUP2 MSTORE PUSH1 0x20 PUSH1 0x4 DUP3 ADD MSTORE PUSH1 0x10 PUSH1 0x24 DUP3 ADD MSTORE PUSH16 0x14185D5CD8589B194E881C185D5CD959 PUSH1 0x82 SHL PUSH1 0x44 DUP3 ADD MSTORE PUSH1 0x64 ADD PUSH2 0x314 JUMP JUMPDEST PUSH1 0x0 PUSH2 0xCBE DUP4 DUP4 PUSH2 0xF0C JUMP JUMPDEST PUSH2 0xD20 DUP3 PUSH2 0x4D4 JUMP JUMPDEST PUSH1 0x1 PUSH1 0x1 PUSH1 0xA0 SHL SUB DUP4 AND PUSH1 0x0 SWAP1 DUP2 MSTORE PUSH1 0xCF PUSH1 0x20 MSTORE PUSH1 0x40 SWAP1 KECCAK256 SSTORE PUSH2 0xD41 PUSH2 0x76D JUMP JUMPDEST PUSH1 0x1 PUSH1 0x1 PUSH1 0xA0 SHL SUB DUP4 AND PUSH1 0x0 SWAP1 DUP2 MSTORE PUSH1 0xCF PUSH1 0x20 MSTORE PUSH1 0x40 SWAP1 KECCAK256 PUSH1 0x3 DUP2 ADD SWAP2 SWAP1 SWAP2 SSTORE PUSH1 0x2 ADD SLOAD PUSH1 0xD2 SLOAD PUSH1 0xD3 SLOAD GT PUSH2 0xDA8 JUMPI PUSH2 0xD99 PUSH2 0xD90 PUSH1 0xD6 SLOAD PUSH2 0x269 PUSH1 0xD3 SLOAD PUSH1 0xD2 SLOAD PUSH2 0xE89 SWAP1 SWAP2 SWAP1 PUSH4 0xFFFFFFFF AND JUMP JUMPDEST PUSH1 0xD5 SLOAD SWAP1 PUSH2 0xCB2 JUMP JUMPDEST PUSH1 0xD5 SSTORE PUSH2 0xDA4 PUSH2 0x76D JUMP JUMPDEST PUSH1 0xD6 SSTORE JUMPDEST PUSH1 0x1 PUSH1 0x1 PUSH1 0xA0 SHL SUB DUP4 AND PUSH1 0x0 SWAP1 DUP2 MSTORE PUSH1 0xCF PUSH1 0x20 MSTORE PUSH1 0x40 SWAP1 KECCAK256 PUSH1 0x2 ADD SLOAD PUSH1 0xD3 SLOAD PUSH2 0xDDC SWAP2 DUP5 SWAP2 PUSH2 0xDD6 SWAP2 PUSH2 0xE89 JUMP JUMPDEST SWAP1 PUSH2 0xCB2 JUMP JUMPDEST PUSH1 0xD3 DUP2 SWAP1 SSTORE PUSH1 0xD2 SLOAD DUP2 GT ISZERO PUSH2 0xDF2 JUMPI PUSH1 0xD3 SLOAD PUSH1 0xD2 SSTORE JUMPDEST POP POP PUSH1 0x1 PUSH1 0x1 PUSH1 0xA0 SHL SUB SWAP1 SWAP2 AND PUSH1 0x0 SWAP1 DUP2 MSTORE PUSH1 0xCF PUSH1 0x20 MSTORE PUSH1 0x40 SWAP1 KECCAK256 PUSH1 0x2 ADD SSTORE JUMP JUMPDEST PUSH1 0x33 DUP1 SLOAD PUSH1 0x1 PUSH1 0x1 PUSH1 0xA0 SHL SUB DUP4 DUP2 AND PUSH1 0x1 PUSH1 0x1 PUSH1 0xA0 SHL SUB NOT DUP4 AND DUP2 OR SWAP1 SWAP4 SSTORE PUSH1 0x40 MLOAD SWAP2 AND SWAP2 SWAP1 DUP3 SWAP1 PUSH32 0x8BE0079C531659141344CD1FD0A4F28419497F9722A3DAAFE3B4186F6B6457E0 SWAP1 PUSH1 0x0 SWAP1 LOG3 POP POP JUMP JUMPDEST PUSH1 0x0 DUP2 DUP2 MSTORE PUSH1 0x1 DUP4 ADD PUSH1 0x20 MSTORE PUSH1 0x40 DUP2 KECCAK256 SLOAD ISZERO ISZERO PUSH2 0xCBE JUMP JUMPDEST PUSH1 0x0 PUSH2 0xCBE DUP4 DUP4 PUSH2 0xF5B JUMP JUMPDEST PUSH1 0x0 PUSH2 0xCBE DUP3 DUP5 PUSH2 0x123C JUMP JUMPDEST PUSH1 0x0 PUSH2 0xCBE DUP3 DUP5 PUSH2 0x12B4 JUMP JUMPDEST PUSH1 0x0 PUSH2 0xCBE DUP3 DUP5 PUSH2 0x12D3 JUMP JUMPDEST PUSH1 0x0 PUSH2 0x523 DUP3 SLOAD SWAP1 JUMP JUMPDEST PUSH1 0x0 PUSH2 0xCBE DUP4 DUP4 PUSH2 0x104E JUMP JUMPDEST PUSH1 0x97 SLOAD PUSH1 0xFF AND PUSH2 0x3A1 JUMPI PUSH1 0x40 MLOAD PUSH3 0x461BCD PUSH1 0xE5 SHL DUP2 MSTORE PUSH1 0x20 PUSH1 0x4 DUP3 ADD MSTORE PUSH1 0x14 PUSH1 0x24 DUP3 ADD MSTORE PUSH20 0x14185D5CD8589B194E881B9BDD081C185D5CD959 PUSH1 0x62 SHL PUSH1 0x44 DUP3 ADD MSTORE PUSH1 0x64 ADD PUSH2 0x314 JUMP JUMPDEST PUSH1 0x0 DUP2 DUP2 MSTORE PUSH1 0x1 DUP4 ADD PUSH1 0x20 MSTORE PUSH1 0x40 DUP2 KECCAK256 SLOAD PUSH2 0xF53 JUMPI POP DUP2 SLOAD PUSH1 0x1 DUP2 DUP2 ADD DUP5 SSTORE PUSH1 0x0 DUP5 DUP2 MSTORE PUSH1 0x20 DUP1 DUP3 KECCAK256 SWAP1 SWAP4 ADD DUP5 SWAP1 SSTORE DUP5 SLOAD DUP5 DUP3 MSTORE DUP3 DUP7 ADD SWAP1 SWAP4 MSTORE PUSH1 0x40 SWAP1 KECCAK256 SWAP2 SWAP1 SWAP2 SSTORE PUSH2 0x523 JUMP JUMPDEST POP PUSH1 0x0 PUSH2 0x523 JUMP JUMPDEST PUSH1 0x0 DUP2 DUP2 MSTORE PUSH1 0x1 DUP4 ADD PUSH1 0x20 MSTORE PUSH1 0x40 DUP2 KECCAK256 SLOAD DUP1 ISZERO PUSH2 0x1044 JUMPI PUSH1 0x0 PUSH2 0xF7F PUSH1 0x1 DUP4 PUSH2 0x123C JUMP JUMPDEST DUP6 SLOAD SWAP1 SWAP2 POP PUSH1 0x0 SWAP1 PUSH2 0xF93 SWAP1 PUSH1 0x1 SWAP1 PUSH2 0x123C JUMP JUMPDEST SWAP1 POP DUP2 DUP2 EQ PUSH2 0xFF8 JUMPI PUSH1 0x0 DUP7 PUSH1 0x0 ADD DUP3 DUP2 SLOAD DUP2 LT PUSH2 0xFB3 JUMPI PUSH2 0xFB3 PUSH2 0x120D JUMP JUMPDEST SWAP1 PUSH1 0x0 MSTORE PUSH1 0x20 PUSH1 0x0 KECCAK256 ADD SLOAD SWAP1 POP DUP1 DUP8 PUSH1 0x0 ADD DUP5 DUP2 SLOAD DUP2 LT PUSH2 0xFD6 JUMPI PUSH2 0xFD6 PUSH2 0x120D JUMP JUMPDEST PUSH1 0x0 SWAP2 DUP3 MSTORE PUSH1 0x20 DUP1 DUP4 KECCAK256 SWAP1 SWAP2 ADD SWAP3 SWAP1 SWAP3 SSTORE SWAP2 DUP3 MSTORE PUSH1 0x1 DUP9 ADD SWAP1 MSTORE PUSH1 0x40 SWAP1 KECCAK256 DUP4 SWAP1 SSTORE JUMPDEST DUP6 SLOAD DUP7 SWAP1 DUP1 PUSH2 0x1009 JUMPI PUSH2 0x1009 PUSH2 0x12F5 JUMP JUMPDEST PUSH1 0x1 SWAP1 SUB DUP2 DUP2 SWAP1 PUSH1 0x0 MSTORE PUSH1 0x20 PUSH1 0x0 KECCAK256 ADD PUSH1 0x0 SWAP1 SSTORE SWAP1 SSTORE DUP6 PUSH1 0x1 ADD PUSH1 0x0 DUP7 DUP2 MSTORE PUSH1 0x20 ADD SWAP1 DUP2 MSTORE PUSH1 0x20 ADD PUSH1 0x0 KECCAK256 PUSH1 0x0 SWAP1 SSTORE PUSH1 0x1 SWAP4 POP POP POP POP PUSH2 0x523 JUMP JUMPDEST PUSH1 0x0 SWAP2 POP POP PUSH2 0x523 JUMP JUMPDEST PUSH1 0x0 DUP3 PUSH1 0x0 ADD DUP3 DUP2 SLOAD DUP2 LT PUSH2 0x1065 JUMPI PUSH2 0x1065 PUSH2 0x120D JUMP JUMPDEST SWAP1 PUSH1 0x0 MSTORE PUSH1 0x20 PUSH1 0x0 KECCAK256 ADD SLOAD SWAP1 POP SWAP3 SWAP2 POP POP JUMP JUMPDEST DUP1 CALLDATALOAD PUSH1 0x1 PUSH1 0x1 PUSH1 0xA0 SHL SUB DUP2 AND DUP2 EQ PUSH2 0x108F JUMPI PUSH1 0x0 DUP1 REVERT JUMPDEST SWAP2 SWAP1 POP JUMP JUMPDEST PUSH1 0x0 DUP1 PUSH1 0x0 PUSH1 0x60 DUP5 DUP7 SUB SLT ISZERO PUSH2 0x10A9 JUMPI PUSH1 0x0 DUP1 REVERT JUMPDEST PUSH2 0x10B2 DUP5 PUSH2 0x1078 JUMP JUMPDEST SWAP3 POP PUSH2 0x10C0 PUSH1 0x20 DUP6 ADD PUSH2 0x1078 JUMP JUMPDEST SWAP2 POP PUSH1 0x40 DUP5 ADD CALLDATALOAD SWAP1 POP SWAP3 POP SWAP3 POP SWAP3 JUMP JUMPDEST PUSH1 0x0 PUSH1 0x20 DUP3 DUP5 SUB SLT ISZERO PUSH2 0x10E2 JUMPI PUSH1 0x0 DUP1 REVERT JUMPDEST POP CALLDATALOAD SWAP2 SWAP1 POP JUMP JUMPDEST PUSH1 0x0 PUSH1 0x20 DUP3 DUP5 SUB SLT ISZERO PUSH2 0x10FB JUMPI PUSH1 0x0 DUP1 REVERT JUMPDEST PUSH2 0xCBE DUP3 PUSH2 0x1078 JUMP JUMPDEST PUSH1 0x0 DUP1 PUSH1 0x20 DUP4 DUP6 SUB SLT ISZERO PUSH2 0x1117 JUMPI PUSH1 0x0 DUP1 REVERT JUMPDEST DUP3 CALLDATALOAD PUSH8 0xFFFFFFFFFFFFFFFF DUP1 DUP3 GT ISZERO PUSH2 0x112F JUMPI PUSH1 0x0 DUP1 REVERT JUMPDEST DUP2 DUP6 ADD SWAP2 POP DUP6 PUSH1 0x1F DUP4 ADD SLT PUSH2 0x1143 JUMPI PUSH1 0x0 DUP1 REVERT JUMPDEST DUP2 CALLDATALOAD DUP2 DUP2 GT ISZERO PUSH2 0x1152 JUMPI PUSH1 0x0 DUP1 REVERT JUMPDEST DUP7 PUSH1 0x20 DUP3 PUSH1 0x5 SHL DUP6 ADD ADD GT ISZERO PUSH2 0x1167 JUMPI PUSH1 0x0 DUP1 REVERT JUMPDEST PUSH1 0x20 SWAP3 SWAP1 SWAP3 ADD SWAP7 SWAP2 SWAP6 POP SWAP1 SWAP4 POP POP POP POP JUMP JUMPDEST PUSH1 0x0 DUP1 PUSH1 0x40 DUP4 DUP6 SUB SLT ISZERO PUSH2 0x118C JUMPI PUSH1 0x0 DUP1 REVERT JUMPDEST POP POP DUP1 CALLDATALOAD SWAP3 PUSH1 0x20 SWAP1 SWAP2 ADD CALLDATALOAD SWAP2 POP JUMP JUMPDEST PUSH1 0x20 DUP1 DUP3 MSTORE DUP3 MLOAD DUP3 DUP3 ADD DUP2 SWAP1 MSTORE PUSH1 0x0 SWAP2 SWAP1 DUP5 DUP3 ADD SWAP1 PUSH1 0x40 DUP6 ADD SWAP1 DUP5 JUMPDEST DUP2 DUP2 LT ISZERO PUSH2 0x11D3 JUMPI DUP4 MLOAD DUP4 MSTORE SWAP3 DUP5 ADD SWAP3 SWAP2 DUP5 ADD SWAP2 PUSH1 0x1 ADD PUSH2 0x11B7 JUMP JUMPDEST POP SWAP1 SWAP7 SWAP6 POP POP POP POP POP POP JUMP JUMPDEST PUSH4 0x4E487B71 PUSH1 0xE0 SHL PUSH1 0x0 MSTORE PUSH1 0x11 PUSH1 0x4 MSTORE PUSH1 0x24 PUSH1 0x0 REVERT JUMPDEST PUSH1 0x0 DUP3 NOT DUP3 GT ISZERO PUSH2 0x1208 JUMPI PUSH2 0x1208 PUSH2 0x11DF JUMP JUMPDEST POP ADD SWAP1 JUMP JUMPDEST PUSH4 0x4E487B71 PUSH1 0xE0 SHL PUSH1 0x0 MSTORE PUSH1 0x32 PUSH1 0x4 MSTORE PUSH1 0x24 PUSH1 0x0 REVERT JUMPDEST PUSH1 0x0 PUSH1 0x1 DUP3 ADD PUSH2 0x1235 JUMPI PUSH2 0x1235 PUSH2 0x11DF JUMP JUMPDEST POP PUSH1 0x1 ADD SWAP1 JUMP JUMPDEST PUSH1 0x0 DUP3 DUP3 LT ISZERO PUSH2 0x124E JUMPI PUSH2 0x124E PUSH2 0x11DF JUMP JUMPDEST POP SUB SWAP1 JUMP JUMPDEST PUSH4 0x4E487B71 PUSH1 0xE0 SHL PUSH1 0x0 MSTORE PUSH1 0x41 PUSH1 0x4 MSTORE PUSH1 0x24 PUSH1 0x0 REVERT JUMPDEST PUSH1 0x20 DUP1 DUP3 MSTORE PUSH1 0x2B SWAP1 DUP3 ADD MSTORE PUSH32 0x496E697469616C697A61626C653A20636F6E7472616374206973206E6F742069 PUSH1 0x40 DUP3 ADD MSTORE PUSH11 0x6E697469616C697A696E67 PUSH1 0xA8 SHL PUSH1 0x60 DUP3 ADD MSTORE PUSH1 0x80 ADD SWAP1 JUMP JUMPDEST PUSH1 0x0 DUP2 PUSH1 0x0 NOT DIV DUP4 GT DUP3 ISZERO ISZERO AND ISZERO PUSH2 0x12CE JUMPI PUSH2 0x12CE PUSH2 0x11DF JUMP JUMPDEST POP MUL SWAP1 JUMP JUMPDEST PUSH1 0x0 DUP3 PUSH2 0x12F0 JUMPI PUSH4 0x4E487B71 PUSH1 0xE0 SHL PUSH1 0x0 MSTORE PUSH1 0x12 PUSH1 0x4 MSTORE PUSH1 0x24 PUSH1 0x0 REVERT JUMPDEST POP DIV SWAP1 JUMP JUMPDEST PUSH4 0x4E487B71 PUSH1 0xE0 SHL PUSH1 0x0 MSTORE PUSH1 0x31 PUSH1 0x4 MSTORE PUSH1 0x24 PUSH1 0x0 REVERT INVALID LOG2 PUSH5 0x6970667358 0x22 SLT KECCAK256 DIFFICULTY PUSH21 0x9749358862046F1C510AD66D9859E140F637FBCB9A SWAP1 SELFBALANCE 0xAD SWAP15 0xCD CODESIZE EXP EQ PUSH9 0x64736F6C634300080D STOP CALLER "},"methodIdentifiers":{"allocatedPower()":"a15d5316","deposit(uint256[])":"598b8e71","depositsOf(address)":"e3a9db1a","earnedLastPeriod(uint256,uint256)":"b181e5ff","earnings(address)":"543fd313","harvest()":"4641257d","initialize(address,address,uint256)":"1794bb3c","nftContract()":"d56d229d","owner()":"8da5cb5b","pause()":"8456cb59","paused()":"5c975abb","rate()":"2c4e722e","reclaimable()":"99b72ccb","reclaimableLastReleased()":"ed18a6ba","released()":"96132521","releasedCorrection()":"ed9074c1","renounceOwnership()":"715018a6","reservedPower()":"c16e0461","setRate(uint256)":"34fcf437","tokenContract()":"55a373d6","transferOwnership(address)":"f2fde38b","unpause()":"3f4ba83a","withdraw(uint256[])":"983d95ce"}}}}}