{
  "_format": "hh-sol-artifact-1",
  "contractName": "Proxy",
  "sourceName": "contracts/Proxy.sol",
  "abi": [
    {
      "stateMutability": "payable",
      "type": "fallback"
    },
    {
      "inputs": [],
      "name": "__getDelegate",
      "outputs": [
        {
          "internalType": "address",
          "name": "",
          "type": "address"
        }
      ],
      "stateMutability": "view",
      "type": "function"
    },
    {
      "inputs": [],
      "name": "__getOwner",
      "outputs": [
        {
          "internalType": "address",
          "name": "",
          "type": "address"
        }
      ],
      "stateMutability": "view",
      "type": "function"
    },
    {
      "inputs": [
        {
          "internalType": "address",
          "name": "newOwner",
          "type": "address"
        }
      ],
      "name": "__setOwner",
      "outputs": [],
      "stateMutability": "nonpayable",
      "type": "function"
    },
    {
      "inputs": [
        {
          "internalType": "address",
          "name": "newDelegateAddress",
          "type": "address"
        }
      ],
      "name": "__upgradeDelegate",
      "outputs": [],
      "stateMutability": "nonpayable",
      "type": "function"
    }
  ],
  "bytecode": "0x6080604052600180546001600160a01b0319163317905534801561002257600080fd5b506101e8806100326000396000f3fe60806040526004361061003f5760003560e01c80631716dcb51461007c5780639f199ce31461009c578063c6dff564146100d2578063fe9c89ba146100f2575b6000546001600160a01b03168061005557600080fd5b60405136600082376000803683855af43d806000843e818015610076578184f35b8184fd5b005b34801561008857600080fd5b5061007a610097366004610182565b610110565b3480156100a857600080fd5b506001546001600160a01b03165b6040516001600160a01b03909116815260200160405180910390f35b3480156100de57600080fd5b5061007a6100ed366004610182565b610149565b3480156100fe57600080fd5b506000546001600160a01b03166100b6565b6001546001600160a01b0316331461012757600080fd5b600180546001600160a01b0319166001600160a01b0392909216919091179055565b6001546001600160a01b0316331461016057600080fd5b600080546001600160a01b0319166001600160a01b0392909216919091179055565b60006020828403121561019457600080fd5b81356001600160a01b03811681146101ab57600080fd5b939250505056fea26469706673582212202fabf5dd5d8909978bed837a6c3727edb83ed537b078c3092329abc459ba7db864736f6c634300080d0033",
  "linkReferences": {},
  "deployedLinkReferences": {}
}