{
  "_format": "hh-sol-artifact-1",
  "contractName": "Mutants",
  "sourceName": "contracts/Mutants.sol",
  "abi": [
    {
      "anonymous": false,
      "inputs": [
        {
          "indexed": true,
          "internalType": "address",
          "name": "owner",
          "type": "address"
        },
        {
          "indexed": true,
          "internalType": "address",
          "name": "approved",
          "type": "address"
        },
        {
          "indexed": true,
          "internalType": "uint256",
          "name": "tokenId",
          "type": "uint256"
        }
      ],
      "name": "Approval",
      "type": "event"
    },
    {
      "anonymous": false,
      "inputs": [
        {
          "indexed": true,
          "internalType": "address",
          "name": "owner",
          "type": "address"
        },
        {
          "indexed": true,
          "internalType": "address",
          "name": "operator",
          "type": "address"
        },
        {
          "indexed": false,
          "internalType": "bool",
          "name": "approved",
          "type": "bool"
        }
      ],
      "name": "ApprovalForAll",
      "type": "event"
    },
    {
      "anonymous": false,
      "inputs": [
        {
          "indexed": false,
          "internalType": "uint8",
          "name": "version",
          "type": "uint8"
        }
      ],
      "name": "Initialized",
      "type": "event"
    },
    {
      "anonymous": false,
      "inputs": [
        {
          "indexed": true,
          "internalType": "address",
          "name": "previousOwner",
          "type": "address"
        },
        {
          "indexed": true,
          "internalType": "address",
          "name": "newOwner",
          "type": "address"
        }
      ],
      "name": "OwnershipTransferred",
      "type": "event"
    },
    {
      "anonymous": false,
      "inputs": [
        {
          "indexed": true,
          "internalType": "address",
          "name": "from",
          "type": "address"
        },
        {
          "indexed": true,
          "internalType": "address",
          "name": "to",
          "type": "address"
        },
        {
          "indexed": true,
          "internalType": "uint256",
          "name": "tokenId",
          "type": "uint256"
        }
      ],
      "name": "Transfer",
      "type": "event"
    },
    {
      "inputs": [
        {
          "internalType": "address",
          "name": "to",
          "type": "address"
        },
        {
          "internalType": "uint256",
          "name": "tokenId",
          "type": "uint256"
        }
      ],
      "name": "approve",
      "outputs": [],
      "stateMutability": "nonpayable",
      "type": "function"
    },
    {
      "inputs": [
        {
          "internalType": "address",
          "name": "owner",
          "type": "address"
        }
      ],
      "name": "balanceOf",
      "outputs": [
        {
          "internalType": "uint256",
          "name": "",
          "type": "uint256"
        }
      ],
      "stateMutability": "view",
      "type": "function"
    },
    {
      "inputs": [],
      "name": "costs",
      "outputs": [
        {
          "internalType": "uint256",
          "name": "",
          "type": "uint256"
        }
      ],
      "stateMutability": "view",
      "type": "function"
    },
    {
      "inputs": [
        {
          "internalType": "uint256",
          "name": "tokenId",
          "type": "uint256"
        }
      ],
      "name": "getApproved",
      "outputs": [
        {
          "internalType": "address",
          "name": "",
          "type": "address"
        }
      ],
      "stateMutability": "view",
      "type": "function"
    },
    {
      "inputs": [],
      "name": "initialize",
      "outputs": [],
      "stateMutability": "nonpayable",
      "type": "function"
    },
    {
      "inputs": [
        {
          "internalType": "address",
          "name": "owner",
          "type": "address"
        },
        {
          "internalType": "address",
          "name": "operator",
          "type": "address"
        }
      ],
      "name": "isApprovedForAll",
      "outputs": [
        {
          "internalType": "bool",
          "name": "",
          "type": "bool"
        }
      ],
      "stateMutability": "view",
      "type": "function"
    },
    {
      "inputs": [
        {
          "internalType": "uint256",
          "name": "_amount",
          "type": "uint256"
        }
      ],
      "name": "mint",
      "outputs": [],
      "stateMutability": "payable",
      "type": "function"
    },
    {
      "inputs": [
        {
          "internalType": "address",
          "name": "_receiver",
          "type": "address"
        },
        {
          "internalType": "uint256",
          "name": "_tokenId",
          "type": "uint256"
        }
      ],
      "name": "mintTo",
      "outputs": [],
      "stateMutability": "nonpayable",
      "type": "function"
    },
    {
      "inputs": [
        {
          "internalType": "uint256",
          "name": "_amount",
          "type": "uint256"
        }
      ],
      "name": "mintTrait",
      "outputs": [],
      "stateMutability": "payable",
      "type": "function"
    },
    {
      "inputs": [],
      "name": "name",
      "outputs": [
        {
          "internalType": "string",
          "name": "",
          "type": "string"
        }
      ],
      "stateMutability": "view",
      "type": "function"
    },
    {
      "inputs": [],
      "name": "owner",
      "outputs": [
        {
          "internalType": "address",
          "name": "",
          "type": "address"
        }
      ],
      "stateMutability": "view",
      "type": "function"
    },
    {
      "inputs": [
        {
          "internalType": "uint256",
          "name": "tokenId",
          "type": "uint256"
        }
      ],
      "name": "ownerOf",
      "outputs": [
        {
          "internalType": "address",
          "name": "",
          "type": "address"
        }
      ],
      "stateMutability": "view",
      "type": "function"
    },
    {
      "inputs": [],
      "name": "renounceOwnership",
      "outputs": [],
      "stateMutability": "nonpayable",
      "type": "function"
    },
    {
      "inputs": [
        {
          "internalType": "uint256",
          "name": "_tokenId",
          "type": "uint256"
        },
        {
          "internalType": "uint256",
          "name": "_salePrice",
          "type": "uint256"
        }
      ],
      "name": "royaltyInfo",
      "outputs": [
        {
          "internalType": "address",
          "name": "receiver",
          "type": "address"
        },
        {
          "internalType": "uint256",
          "name": "royalty",
          "type": "uint256"
        }
      ],
      "stateMutability": "view",
      "type": "function"
    },
    {
      "inputs": [
        {
          "internalType": "address",
          "name": "from",
          "type": "address"
        },
        {
          "internalType": "address",
          "name": "to",
          "type": "address"
        },
        {
          "internalType": "uint256",
          "name": "tokenId",
          "type": "uint256"
        }
      ],
      "name": "safeTransferFrom",
      "outputs": [],
      "stateMutability": "nonpayable",
      "type": "function"
    },
    {
      "inputs": [
        {
          "internalType": "address",
          "name": "from",
          "type": "address"
        },
        {
          "internalType": "address",
          "name": "to",
          "type": "address"
        },
        {
          "internalType": "uint256",
          "name": "tokenId",
          "type": "uint256"
        },
        {
          "internalType": "bytes",
          "name": "data",
          "type": "bytes"
        }
      ],
      "name": "safeTransferFrom",
      "outputs": [],
      "stateMutability": "nonpayable",
      "type": "function"
    },
    {
      "inputs": [
        {
          "internalType": "address",
          "name": "operator",
          "type": "address"
        },
        {
          "internalType": "bool",
          "name": "approved",
          "type": "bool"
        }
      ],
      "name": "setApprovalForAll",
      "outputs": [],
      "stateMutability": "nonpayable",
      "type": "function"
    },
    {
      "inputs": [
        {
          "internalType": "string",
          "name": "_newBaseURI",
          "type": "string"
        }
      ],
      "name": "setBaseURI",
      "outputs": [],
      "stateMutability": "nonpayable",
      "type": "function"
    },
    {
      "inputs": [
        {
          "internalType": "uint256",
          "name": "_costs",
          "type": "uint256"
        }
      ],
      "name": "setCosts",
      "outputs": [],
      "stateMutability": "nonpayable",
      "type": "function"
    },
    {
      "inputs": [
        {
          "internalType": "address",
          "name": "_rA",
          "type": "address"
        },
        {
          "internalType": "uint256",
          "name": "_rP",
          "type": "uint256"
        }
      ],
      "name": "setRoyaltyInfo",
      "outputs": [],
      "stateMutability": "nonpayable",
      "type": "function"
    },
    {
      "inputs": [],
      "name": "supply",
      "outputs": [
        {
          "internalType": "uint256",
          "name": "",
          "type": "uint256"
        }
      ],
      "stateMutability": "view",
      "type": "function"
    },
    {
      "inputs": [
        {
          "internalType": "bytes4",
          "name": "interfaceId",
          "type": "bytes4"
        }
      ],
      "name": "supportsInterface",
      "outputs": [
        {
          "internalType": "bool",
          "name": "",
          "type": "bool"
        }
      ],
      "stateMutability": "view",
      "type": "function"
    },
    {
      "inputs": [],
      "name": "symbol",
      "outputs": [
        {
          "internalType": "string",
          "name": "",
          "type": "string"
        }
      ],
      "stateMutability": "view",
      "type": "function"
    },
    {
      "inputs": [
        {
          "internalType": "uint256",
          "name": "index",
          "type": "uint256"
        }
      ],
      "name": "tokenByIndex",
      "outputs": [
        {
          "internalType": "uint256",
          "name": "",
          "type": "uint256"
        }
      ],
      "stateMutability": "view",
      "type": "function"
    },
    {
      "inputs": [
        {
          "internalType": "address",
          "name": "owner",
          "type": "address"
        },
        {
          "internalType": "uint256",
          "name": "index",
          "type": "uint256"
        }
      ],
      "name": "tokenOfOwnerByIndex",
      "outputs": [
        {
          "internalType": "uint256",
          "name": "",
          "type": "uint256"
        }
      ],
      "stateMutability": "view",
      "type": "function"
    },
    {
      "inputs": [
        {
          "internalType": "uint256",
          "name": "_tokenId",
          "type": "uint256"
        }
      ],
      "name": "tokenURI",
      "outputs": [
        {
          "internalType": "string",
          "name": "",
          "type": "string"
        }
      ],
      "stateMutability": "view",
      "type": "function"
    },
    {
      "inputs": [],
      "name": "totalSupply",
      "outputs": [
        {
          "internalType": "uint256",
          "name": "",
          "type": "uint256"
        }
      ],
      "stateMutability": "view",
      "type": "function"
    },
    {
      "inputs": [
        {
          "internalType": "address",
          "name": "from",
          "type": "address"
        },
        {
          "internalType": "address",
          "name": "to",
          "type": "address"
        },
        {
          "internalType": "uint256",
          "name": "tokenId",
          "type": "uint256"
        }
      ],
      "name": "transferFrom",
      "outputs": [],
      "stateMutability": "nonpayable",
      "type": "function"
    },
    {
      "inputs": [
        {
          "internalType": "address",
          "name": "newOwner",
          "type": "address"
        }
      ],
      "name": "transferOwnership",
      "outputs": [],
      "stateMutability": "nonpayable",
      "type": "function"
    },
    {
      "inputs": [
        {
          "internalType": "address",
          "name": "_owner",
          "type": "address"
        }
      ],
      "name": "walletOfOwner",
      "outputs": [
        {
          "internalType": "uint256[]",
          "name": "",
          "type": "uint256[]"
        }
      ],
      "stateMutability": "view",
      "type": "function"
    },
    {
      "inputs": [],
      "name": "withdraw",
      "outputs": [],
      "stateMutability": "payable",
      "type": "function"
    }
  ],
  "bytecode": "0x6080604052662386f26fc100006101005560006101015534801561002257600080fd5b506120de806100326000396000f3fe6080604052600436106101d85760003560e01c806355f804b31161010257806395d89b4111610095578063c87b56dd11610064578063c87b56dd14610523578063e2e784d514610543578063e985e9c514610563578063f2fde38b146105ac57600080fd5b806395d89b41146104ce578063a0712d681461043c578063a22cb465146104e3578063b88d4fde1461050357600080fd5b8063715018a6116100d1578063715018a61461046f578063776d62f6146104845780638129fc1c1461049b5780638da5cb5b146104b057600080fd5b806355f804b3146103fc5780636352211e1461041c5780636aa098cb1461043c57806370a082311461044f57600080fd5b806323b872dd1161017a57806342842e0e1161014957806342842e0e1461036f578063438b63001461038f578063449a52f8146103bc5780634f6ccce7146103dc57600080fd5b806323b872dd146102e85780632a55205a146103085780632f745c59146103475780633ccfd60b1461036757600080fd5b8063081812fc116101b6578063081812fc14610259578063095ea7b31461029157806318160ddd146102b357806322284de6146102c857600080fd5b806301ffc9a7146101dd578063047fc9aa1461021257806306fdde0314610237575b600080fd5b3480156101e957600080fd5b506101fd6101f8366004611aa8565b6105cc565b60405190151581526020015b60405180910390f35b34801561021e57600080fd5b506102296101015481565b604051908152602001610209565b34801561024357600080fd5b5061024c6105fd565b6040516102099190611b24565b34801561026557600080fd5b50610279610274366004611b37565b61068f565b6040516001600160a01b039091168152602001610209565b34801561029d57600080fd5b506102b16102ac366004611b6c565b6106b6565b005b3480156102bf57600080fd5b50609954610229565b3480156102d457600080fd5b506102b16102e3366004611b37565b6107d0565b3480156102f457600080fd5b506102b1610303366004611b96565b6107de565b34801561031457600080fd5b50610328610323366004611bd2565b61080f565b604080516001600160a01b039093168352602083019190915201610209565b34801561035357600080fd5b50610229610362366004611b6c565b610849565b6102b16108df565b34801561037b57600080fd5b506102b161038a366004611b96565b61095b565b34801561039b57600080fd5b506103af6103aa366004611bf4565b610976565b6040516102099190611c0f565b3480156103c857600080fd5b506102b16103d7366004611b6c565b610a18565b3480156103e857600080fd5b506102296103f7366004611b37565b610a2e565b34801561040857600080fd5b506102b1610417366004611cdf565b610ac1565b34801561042857600080fd5b50610279610437366004611b37565b610adc565b6102b161044a366004611b37565b610b3c565b34801561045b57600080fd5b5061022961046a366004611bf4565b610b94565b34801561047b57600080fd5b506102b1610c1a565b34801561049057600080fd5b506102296101005481565b3480156104a757600080fd5b506102b1610c2e565b3480156104bc57600080fd5b5060c9546001600160a01b0316610279565b3480156104da57600080fd5b5061024c610cdb565b3480156104ef57600080fd5b506102b16104fe366004611d28565b610cea565b34801561050f57600080fd5b506102b161051e366004611d64565b610cf5565b34801561052f57600080fd5b5061024c61053e366004611b37565b610d27565b34801561054f57600080fd5b506102b161055e366004611b6c565b610dea565b34801561056f57600080fd5b506101fd61057e366004611de0565b6001600160a01b039182166000908152606a6020908152604080832093909416825291909152205460ff1690565b3480156105b857600080fd5b506102b16105c7366004611bf4565b610e18565b6000636ad56fd360e11b6001600160e01b03198316016105ee57506001919050565b6105f782610e8e565b92915050565b60606065805461060c90611e13565b80601f016020809104026020016040519081016040528092919081815260200182805461063890611e13565b80156106855780601f1061065a57610100808354040283529160200191610685565b820191906000526020600020905b81548152906001019060200180831161066857829003601f168201915b5050505050905090565b600061069a82610eb3565b506000908152606960205260409020546001600160a01b031690565b60006106c182610adc565b9050806001600160a01b0316836001600160a01b0316036107335760405162461bcd60e51b815260206004820152602160248201527f4552433732313a20617070726f76616c20746f2063757272656e74206f776e656044820152603960f91b60648201526084015b60405180910390fd5b336001600160a01b038216148061074f575061074f813361057e565b6107c15760405162461bcd60e51b815260206004820152603e60248201527f4552433732313a20617070726f76652063616c6c6572206973206e6f7420746f60448201527f6b656e206f776e6572206e6f7220617070726f76656420666f7220616c6c0000606482015260840161072a565b6107cb8383610f12565b505050565b6107d8610f80565b61010055565b6107e83382610fda565b6108045760405162461bcd60e51b815260040161072a90611e4d565b6107cb838383611059565b60fd5460fe5460009182916001600160a01b0390911690612710906108349086611eb1565b61083e9190611ee6565b915091509250929050565b600061085483610b94565b82106108b65760405162461bcd60e51b815260206004820152602b60248201527f455243373231456e756d657261626c653a206f776e657220696e646578206f7560448201526a74206f6620626f756e647360a81b606482015260840161072a565b506001600160a01b03919091166000908152609760209081526040808320938352929052205490565b6108e7610f80565b60006108fb60c9546001600160a01b031690565b6001600160a01b03164760405160006040518083038185875af1925050503d8060008114610945576040519150601f19603f3d011682016040523d82523d6000602084013e61094a565b606091505b505090508061095857600080fd5b50565b6107cb83838360405180602001604052806000815250610cf5565b6060600061098383610b94565b905060008167ffffffffffffffff8111156109a0576109a0611c53565b6040519080825280602002602001820160405280156109c9578160200160208202803683370190505b50905060005b82811015610a10576109e18582610849565b8282815181106109f3576109f3611efa565b602090810291909101015280610a0881611f10565b9150506109cf565b509392505050565b610a20610f80565b610a2a8282611200565b5050565b6000610a3960995490565b8210610a9c5760405162461bcd60e51b815260206004820152602c60248201527f455243373231456e756d657261626c653a20676c6f62616c20696e646578206f60448201526b7574206f6620626f756e647360a01b606482015260840161072a565b60998281548110610aaf57610aaf611efa565b90600052602060002001549050919050565b610ac9610f80565b8051610a2a9060ff9060208401906119f9565b6000818152606760205260408120546001600160a01b0316806105f75760405162461bcd60e51b8152602060048201526018602482015277115490cdcc8c4e881a5b9d985b1a59081d1bdad95b88125160421b604482015260640161072a565b60c9546040516001600160a01b03909116903490600081818185875af1925050503d8060008114610b89576040519150601f19603f3d011682016040523d82523d6000602084013e610b8e565b606091505b50505050565b60006001600160a01b038216610bfe5760405162461bcd60e51b815260206004820152602960248201527f4552433732313a2061646472657373207a65726f206973206e6f7420612076616044820152683634b21037bbb732b960b91b606482015260840161072a565b506001600160a01b031660009081526068602052604090205490565b610c22610f80565b610c2c600061134e565b565b6101025460ff1615610c825760405162461bcd60e51b815260206004820152601d60248201527f4e46545374616b653a20416c726561647920696e697469616c697a6564000000604482015260640161072a565b610102805460ff19166001908117909155604080518082018252828152600b60fb1b6020808301829052835180850190945293835292820192909252610cc891906113a0565b610cd06113d1565b610c2c336000610dea565b60606066805461060c90611e13565b610a2a338383611401565b610cff3383610fda565b610d1b5760405162461bcd60e51b815260040161072a90611e4d565b610b8e848484846114cf565b6000818152606760205260409020546060906001600160a01b0316610da65760405162461bcd60e51b815260206004820152602f60248201527f4552433732314d657461646174613a2055524920717565727920666f72206e6f60448201526e3732bc34b9ba32b73a103a37b5b2b760891b606482015260840161072a565b6000610db0611502565b90506000610dbd84611511565b90508181604051602001610dd2929190611f29565b60405160208183030381529060405292505050919050565b610df2610f80565b60fd80546001600160a01b0319166001600160a01b03939093169290921790915560fe55565b610e20610f80565b6001600160a01b038116610e855760405162461bcd60e51b815260206004820152602660248201527f4f776e61626c653a206e6577206f776e657220697320746865207a65726f206160448201526564647265737360d01b606482015260840161072a565b6109588161134e565b60006001600160e01b0319821663780e9d6360e01b14806105f757506105f782611612565b6000818152606760205260409020546001600160a01b03166109585760405162461bcd60e51b8152602060048201526018602482015277115490cdcc8c4e881a5b9d985b1a59081d1bdad95b88125160421b604482015260640161072a565b600081815260696020526040902080546001600160a01b0319166001600160a01b0384169081179091558190610f4782610adc565b6001600160a01b03167f8c5be1e5ebec7d5bd14f71427d1e84f3dd0314c0f7b2291e5b200ac8c7c3b92560405160405180910390a45050565b60c9546001600160a01b03163314610c2c5760405162461bcd60e51b815260206004820181905260248201527f4f776e61626c653a2063616c6c6572206973206e6f7420746865206f776e6572604482015260640161072a565b600080610fe683610adc565b9050806001600160a01b0316846001600160a01b0316148061102d57506001600160a01b038082166000908152606a602090815260408083209388168352929052205460ff165b806110515750836001600160a01b03166110468461068f565b6001600160a01b0316145b949350505050565b826001600160a01b031661106c82610adc565b6001600160a01b0316146110d05760405162461bcd60e51b815260206004820152602560248201527f4552433732313a207472616e736665722066726f6d20696e636f72726563742060448201526437bbb732b960d91b606482015260840161072a565b6001600160a01b0382166111325760405162461bcd60e51b8152602060048201526024808201527f4552433732313a207472616e7366657220746f20746865207a65726f206164646044820152637265737360e01b606482015260840161072a565b61113d838383611662565b611148600082610f12565b6001600160a01b0383166000908152606860205260408120805460019290611171908490611f58565b90915550506001600160a01b038216600090815260686020526040812080546001929061119f908490611f6f565b909155505060008181526067602052604080822080546001600160a01b0319166001600160a01b0386811691821790925591518493918716917fddf252ad1be2c89b69c2b068fc378daa952ba7f163c4a11628f55a4df523b3ef91a4505050565b6001600160a01b0382166112565760405162461bcd60e51b815260206004820181905260248201527f4552433732313a206d696e7420746f20746865207a65726f2061646472657373604482015260640161072a565b6000818152606760205260409020546001600160a01b0316156112bb5760405162461bcd60e51b815260206004820152601c60248201527f4552433732313a20746f6b656e20616c7265616479206d696e74656400000000604482015260640161072a565b6112c760008383611662565b6001600160a01b03821660009081526068602052604081208054600192906112f0908490611f6f565b909155505060008181526067602052604080822080546001600160a01b0319166001600160a01b03861690811790915590518392907fddf252ad1be2c89b69c2b068fc378daa952ba7f163c4a11628f55a4df523b3ef908290a45050565b60c980546001600160a01b038381166001600160a01b0319831681179093556040519116919082907f8be0079c531659141344cd1fd0a4f28419497f9722a3daafe3b4186f6b6457e090600090a35050565b600054610100900460ff166113c75760405162461bcd60e51b815260040161072a90611f87565b610a2a828261171a565b600054610100900460ff166113f85760405162461bcd60e51b815260040161072a90611f87565b610c2c3361134e565b816001600160a01b0316836001600160a01b0316036114625760405162461bcd60e51b815260206004820152601960248201527f4552433732313a20617070726f766520746f2063616c6c657200000000000000604482015260640161072a565b6001600160a01b038381166000818152606a6020908152604080832094871680845294825291829020805460ff191686151590811790915591519182527f17307eab39ab6107e8899845ad3d59bd9653f200f220920489ca2b5937696c31910160405180910390a3505050565b6114da848484611059565b6114e684848484611768565b610b8e5760405162461bcd60e51b815260040161072a90611fd2565b606060ff805461060c90611e13565b6060816000036115385750506040805180820190915260018152600360fc1b602082015290565b8160005b8115611562578061154c81611f10565b915061155b9050600a83611ee6565b915061153c565b60008167ffffffffffffffff81111561157d5761157d611c53565b6040519080825280601f01601f1916602001820160405280156115a7576020820181803683370190505b5090505b8415611051576115bc600183611f58565b91506115c9600a86612024565b6115d4906030611f6f565b60f81b8183815181106115e9576115e9611efa565b60200101906001600160f81b031916908160001a90535061160b600a86611ee6565b94506115ab565b60006001600160e01b031982166380ac58cd60e01b148061164357506001600160e01b03198216635b5e139f60e01b145b806105f757506301ffc9a760e01b6001600160e01b03198316146105f7565b6001600160a01b0383166116bd576116b881609980546000838152609a60205260408120829055600182018355919091527f72a152ddfb8e864297c917af52ea6c1c68aead0fee1a62673fcc7e0c94979d000155565b6116e0565b816001600160a01b0316836001600160a01b0316146116e0576116e08382611869565b6001600160a01b0382166116f7576107cb81611906565b826001600160a01b0316826001600160a01b0316146107cb576107cb82826119b5565b600054610100900460ff166117415760405162461bcd60e51b815260040161072a90611f87565b81516117549060659060208501906119f9565b5080516107cb9060669060208401906119f9565b60006001600160a01b0384163b1561185e57604051630a85bd0160e11b81526001600160a01b0385169063150b7a02906117ac903390899088908890600401612038565b6020604051808303816000875af19250505080156117e7575060408051601f3d908101601f191682019092526117e491810190612075565b60015b611844573d808015611815576040519150601f19603f3d011682016040523d82523d6000602084013e61181a565b606091505b50805160000361183c5760405162461bcd60e51b815260040161072a90611fd2565b805181602001fd5b6001600160e01b031916630a85bd0160e11b149050611051565b506001949350505050565b6000600161187684610b94565b6118809190611f58565b6000838152609860205260409020549091508082146118d3576001600160a01b03841660009081526097602090815260408083208584528252808320548484528184208190558352609890915290208190555b5060009182526098602090815260408084208490556001600160a01b039094168352609781528383209183525290812055565b60995460009061191890600190611f58565b6000838152609a60205260408120546099805493945090928490811061194057611940611efa565b90600052602060002001549050806099838154811061196157611961611efa565b6000918252602080832090910192909255828152609a9091526040808220849055858252812055609980548061199957611999612092565b6001900381819060005260206000200160009055905550505050565b60006119c083610b94565b6001600160a01b039093166000908152609760209081526040808320868452825280832085905593825260989052919091209190915550565b828054611a0590611e13565b90600052602060002090601f016020900481019282611a275760008555611a6d565b82601f10611a4057805160ff1916838001178555611a6d565b82800160010185558215611a6d579182015b82811115611a6d578251825591602001919060010190611a52565b50611a79929150611a7d565b5090565b5b80821115611a795760008155600101611a7e565b6001600160e01b03198116811461095857600080fd5b600060208284031215611aba57600080fd5b8135611ac581611a92565b9392505050565b60005b83811015611ae7578181015183820152602001611acf565b83811115610b8e5750506000910152565b60008151808452611b10816020860160208601611acc565b601f01601f19169290920160200192915050565b602081526000611ac56020830184611af8565b600060208284031215611b4957600080fd5b5035919050565b80356001600160a01b0381168114611b6757600080fd5b919050565b60008060408385031215611b7f57600080fd5b611b8883611b50565b946020939093013593505050565b600080600060608486031215611bab57600080fd5b611bb484611b50565b9250611bc260208501611b50565b9150604084013590509250925092565b60008060408385031215611be557600080fd5b50508035926020909101359150565b600060208284031215611c0657600080fd5b611ac582611b50565b6020808252825182820181905260009190848201906040850190845b81811015611c4757835183529284019291840191600101611c2b565b50909695505050505050565b634e487b7160e01b600052604160045260246000fd5b600067ffffffffffffffff80841115611c8457611c84611c53565b604051601f8501601f19908116603f01168101908282118183101715611cac57611cac611c53565b81604052809350858152868686011115611cc557600080fd5b858560208301376000602087830101525050509392505050565b600060208284031215611cf157600080fd5b813567ffffffffffffffff811115611d0857600080fd5b8201601f81018413611d1957600080fd5b61105184823560208401611c69565b60008060408385031215611d3b57600080fd5b611d4483611b50565b915060208301358015158114611d5957600080fd5b809150509250929050565b60008060008060808587031215611d7a57600080fd5b611d8385611b50565b9350611d9160208601611b50565b925060408501359150606085013567ffffffffffffffff811115611db457600080fd5b8501601f81018713611dc557600080fd5b611dd487823560208401611c69565b91505092959194509250565b60008060408385031215611df357600080fd5b611dfc83611b50565b9150611e0a60208401611b50565b90509250929050565b600181811c90821680611e2757607f821691505b602082108103611e4757634e487b7160e01b600052602260045260246000fd5b50919050565b6020808252602e908201527f4552433732313a2063616c6c6572206973206e6f7420746f6b656e206f776e6560408201526d1c881b9bdc88185c1c1c9bdd995960921b606082015260800190565b634e487b7160e01b600052601160045260246000fd5b6000816000190483118215151615611ecb57611ecb611e9b565b500290565b634e487b7160e01b600052601260045260246000fd5b600082611ef557611ef5611ed0565b500490565b634e487b7160e01b600052603260045260246000fd5b600060018201611f2257611f22611e9b565b5060010190565b60008351611f3b818460208801611acc565b835190830190611f4f818360208801611acc565b01949350505050565b600082821015611f6a57611f6a611e9b565b500390565b60008219821115611f8257611f82611e9b565b500190565b6020808252602b908201527f496e697469616c697a61626c653a20636f6e7472616374206973206e6f74206960408201526a6e697469616c697a696e6760a81b606082015260800190565b60208082526032908201527f4552433732313a207472616e7366657220746f206e6f6e20455243373231526560408201527131b2b4bb32b91034b6b83632b6b2b73a32b960711b606082015260800190565b60008261203357612033611ed0565b500690565b6001600160a01b038581168252841660208201526040810183905260806060820181905260009061206b90830184611af8565b9695505050505050565b60006020828403121561208757600080fd5b8151611ac581611a92565b634e487b7160e01b600052603160045260246000fdfea2646970667358221220933fe796a7edcec71e9cd6493be53b24bb9cbb278348fbf9fd30e77d9911680864736f6c634300080d0033",
  "linkReferences": {},
  "deployedLinkReferences": {}
}