{
  "_format": "hh-sol-artifact-1",
  "contractName": "MutantStaking",
  "sourceName": "contracts/MutantStaking.sol",
  "abi": [
    {
      "anonymous": false,
      "inputs": [
        {
          "indexed": false,
          "internalType": "address",
          "name": "staker",
          "type": "address"
        },
        {
          "indexed": false,
          "internalType": "uint256",
          "name": "amount",
          "type": "uint256"
        }
      ],
      "name": "Harvested",
      "type": "event"
    },
    {
      "anonymous": false,
      "inputs": [
        {
          "indexed": false,
          "internalType": "uint8",
          "name": "version",
          "type": "uint8"
        }
      ],
      "name": "Initialized",
      "type": "event"
    },
    {
      "anonymous": false,
      "inputs": [
        {
          "indexed": true,
          "internalType": "address",
          "name": "previousOwner",
          "type": "address"
        },
        {
          "indexed": true,
          "internalType": "address",
          "name": "newOwner",
          "type": "address"
        }
      ],
      "name": "OwnershipTransferred",
      "type": "event"
    },
    {
      "anonymous": false,
      "inputs": [
        {
          "indexed": false,
          "internalType": "address",
          "name": "account",
          "type": "address"
        }
      ],
      "name": "Paused",
      "type": "event"
    },
    {
      "anonymous": false,
      "inputs": [
        {
          "indexed": false,
          "internalType": "address",
          "name": "account",
          "type": "address"
        }
      ],
      "name": "Unpaused",
      "type": "event"
    },
    {
      "inputs": [],
      "name": "allocatedPower",
      "outputs": [
        {
          "internalType": "uint256",
          "name": "",
          "type": "uint256"
        }
      ],
      "stateMutability": "view",
      "type": "function"
    },
    {
      "inputs": [
        {
          "internalType": "uint256[]",
          "name": "tokenIds",
          "type": "uint256[]"
        }
      ],
      "name": "deposit",
      "outputs": [],
      "stateMutability": "nonpayable",
      "type": "function"
    },
    {
      "inputs": [
        {
          "internalType": "address",
          "name": "account",
          "type": "address"
        }
      ],
      "name": "depositsOf",
      "outputs": [
        {
          "internalType": "uint256[]",
          "name": "",
          "type": "uint256[]"
        }
      ],
      "stateMutability": "view",
      "type": "function"
    },
    {
      "inputs": [
        {
          "internalType": "uint256",
          "name": "_lastReleased",
          "type": "uint256"
        },
        {
          "internalType": "uint256",
          "name": "_power",
          "type": "uint256"
        }
      ],
      "name": "earnedLastPeriod",
      "outputs": [
        {
          "internalType": "uint256",
          "name": "",
          "type": "uint256"
        }
      ],
      "stateMutability": "view",
      "type": "function"
    },
    {
      "inputs": [
        {
          "internalType": "address",
          "name": "_staker",
          "type": "address"
        }
      ],
      "name": "earnings",
      "outputs": [
        {
          "internalType": "uint256",
          "name": "",
          "type": "uint256"
        }
      ],
      "stateMutability": "view",
      "type": "function"
    },
    {
      "inputs": [],
      "name": "harvest",
      "outputs": [],
      "stateMutability": "nonpayable",
      "type": "function"
    },
    {
      "inputs": [],
      "name": "initialize",
      "outputs": [],
      "stateMutability": "nonpayable",
      "type": "function"
    },
    {
      "inputs": [],
      "name": "nftContract",
      "outputs": [
        {
          "internalType": "address",
          "name": "",
          "type": "address"
        }
      ],
      "stateMutability": "view",
      "type": "function"
    },
    {
      "inputs": [],
      "name": "owner",
      "outputs": [
        {
          "internalType": "address",
          "name": "",
          "type": "address"
        }
      ],
      "stateMutability": "view",
      "type": "function"
    },
    {
      "inputs": [],
      "name": "pause",
      "outputs": [],
      "stateMutability": "nonpayable",
      "type": "function"
    },
    {
      "inputs": [],
      "name": "paused",
      "outputs": [
        {
          "internalType": "bool",
          "name": "",
          "type": "bool"
        }
      ],
      "stateMutability": "view",
      "type": "function"
    },
    {
      "inputs": [],
      "name": "rate",
      "outputs": [
        {
          "internalType": "uint256",
          "name": "",
          "type": "uint256"
        }
      ],
      "stateMutability": "view",
      "type": "function"
    },
    {
      "inputs": [],
      "name": "reclaimable",
      "outputs": [
        {
          "internalType": "uint256",
          "name": "",
          "type": "uint256"
        }
      ],
      "stateMutability": "view",
      "type": "function"
    },
    {
      "inputs": [],
      "name": "reclaimableLastReleased",
      "outputs": [
        {
          "internalType": "uint256",
          "name": "",
          "type": "uint256"
        }
      ],
      "stateMutability": "view",
      "type": "function"
    },
    {
      "inputs": [],
      "name": "released",
      "outputs": [
        {
          "internalType": "uint256",
          "name": "",
          "type": "uint256"
        }
      ],
      "stateMutability": "view",
      "type": "function"
    },
    {
      "inputs": [],
      "name": "releasedCorrection",
      "outputs": [
        {
          "internalType": "uint256",
          "name": "",
          "type": "uint256"
        }
      ],
      "stateMutability": "view",
      "type": "function"
    },
    {
      "inputs": [],
      "name": "renounceOwnership",
      "outputs": [],
      "stateMutability": "nonpayable",
      "type": "function"
    },
    {
      "inputs": [],
      "name": "reservedPower",
      "outputs": [
        {
          "internalType": "uint256",
          "name": "",
          "type": "uint256"
        }
      ],
      "stateMutability": "view",
      "type": "function"
    },
    {
      "inputs": [
        {
          "internalType": "address",
          "name": "_nftContract",
          "type": "address"
        }
      ],
      "name": "setNftContract",
      "outputs": [],
      "stateMutability": "nonpayable",
      "type": "function"
    },
    {
      "inputs": [
        {
          "internalType": "uint256[]",
          "name": "_ids",
          "type": "uint256[]"
        },
        {
          "internalType": "uint256[]",
          "name": "_power",
          "type": "uint256[]"
        }
      ],
      "name": "setPower",
      "outputs": [],
      "stateMutability": "nonpayable",
      "type": "function"
    },
    {
      "inputs": [
        {
          "internalType": "uint256",
          "name": "_rate",
          "type": "uint256"
        }
      ],
      "name": "setRate",
      "outputs": [],
      "stateMutability": "nonpayable",
      "type": "function"
    },
    {
      "inputs": [
        {
          "internalType": "address",
          "name": "_tokenContract",
          "type": "address"
        }
      ],
      "name": "setTokenContract",
      "outputs": [],
      "stateMutability": "nonpayable",
      "type": "function"
    },
    {
      "inputs": [],
      "name": "tokenContract",
      "outputs": [
        {
          "internalType": "address",
          "name": "",
          "type": "address"
        }
      ],
      "stateMutability": "view",
      "type": "function"
    },
    {
      "inputs": [
        {
          "internalType": "address",
          "name": "newOwner",
          "type": "address"
        }
      ],
      "name": "transferOwnership",
      "outputs": [],
      "stateMutability": "nonpayable",
      "type": "function"
    },
    {
      "inputs": [],
      "name": "unpause",
      "outputs": [],
      "stateMutability": "nonpayable",
      "type": "function"
    },
    {
      "inputs": [
        {
          "internalType": "uint256[]",
          "name": "tokenIds",
          "type": "uint256[]"
        }
      ],
      "name": "withdraw",
      "outputs": [],
      "stateMutability": "nonpayable",
      "type": "function"
    }
  ],
  "bytecode": "0x6080604052600060d481905560d581905560d681905560d75560d8805460ff1916905534801561002e57600080fd5b5061152a8061003e6000396000f3fe608060405234801561001057600080fd5b506004361061018e5760003560e01c80638da5cb5b116100de578063bbcd5bbe11610097578063e3a9db1a11610071578063e3a9db1a146102f9578063ed18a6ba14610319578063ed9074c114610322578063f2fde38b1461032b57600080fd5b8063bbcd5bbe146102ca578063c16e0461146102dd578063d56d229d146102e657600080fd5b80638da5cb5b14610279578063961325211461028a578063983d95ce1461029257806399b72ccb146102a5578063a15d5316146102ae578063b181e5ff146102b757600080fd5b8063543fd3131161014b5780635c975abb116101255780635c975abb1461024b578063715018a6146102615780638129fc1c146102695780638456cb591461027157600080fd5b8063543fd313146101fa57806355a373d61461020d578063598b8e711461023857600080fd5b806317909b7d146101935780632c4e722e146101a857806334fcf437146101c45780633f4ba83a146101d75780634641257d146101df57806352f5ad77146101e7575b600080fd5b6101a66101a136600461125d565b61033e565b005b6101b160cd5481565b6040519081526020015b60405180910390f35b6101a66101d23660046112c1565b6103c2565b6101a66103cf565b6101a66103e5565b6101a66101f53660046112da565b61051b565b6101b16102083660046112da565b610545565b60cc54610220906001600160a01b031681565b6040516001600160a01b0390911681526020016101bb565b6101a6610246366004611303565b61059a565b60975460ff1660405190151581526020016101bb565b6101a66107bc565b6101a66107d0565b6101a6610846565b6033546001600160a01b0316610220565b6101b161084e565b6101a66102a0366004611303565b610899565b6101b160d55481565b6101b160d35481565b6101b16102c5366004611378565b610abf565b6101a66102d83660046112da565b610b16565b6101b160d25481565b60cb54610220906001600160a01b031681565b61030c6103073660046112da565b610b40565b6040516101bb919061139a565b6101b160d65481565b6101b160d45481565b6101a66103393660046112da565b610bfc565b610346610c75565b805182511461035457600080fd5b60005b82518110156103bd57818181518110610372576103726113de565b602002602001015160d16000858481518110610390576103906113de565b602002602001015181526020019081526020016000208190555080806103b59061140a565b915050610357565b505050565b6103ca610c75565b60cd55565b6103d7610c75565b6103df610ccf565b4360d755565b60026065540361043c5760405162461bcd60e51b815260206004820152601f60248201527f5265656e7472616e637947756172643a207265656e7472616e742063616c6c0060448201526064015b60405180910390fd5b6002606555600061044c33610545565b9050600081116104955760405162461bcd60e51b81526020600482015260146024820152734e46545374616b653a204e6f207265776172647360601b6044820152606401610433565b33600090815260cf60205260408120556104ad61084e565b33600090815260cf602052604081206003019190915560d480548392906104d5908490611423565b909155505060408051338152602081018390527f121c5042302bae5fc561fbc64368f297ca60a880878e1e3a7f7e9380377260bf910160405180910390a1506001606555565b610523610c75565b60cb80546001600160a01b0319166001600160a01b0392909216919091179055565b6001600160a01b038116600090815260cf6020526040812060038101546002909101546105949161057591610abf565b6001600160a01b038416600090815260cf602052604090205490610d21565b92915050565b6105a2610d34565b33600090815260cf6020908152604080832081516080810183528154815260018201549381018490526002820154928101929092526003015460608201529103610688576040518060800160405280600081526020014381526020016000815260200161060d61084e565b905233600081815260cf60209081526040808320855181559185015160018084019190915590850151600283015560609094015160039091015560d08054938401815590527fe89d44c8fd6a9bac8af33ce47f56337617d449bf7ff3956b618c646de829cbcb90910180546001600160a01b03191690911790555b604081015160005b838110156107ab5760cb546001600160a01b03166323b872dd33308888868181106106bd576106bd6113de565b6040516001600160e01b031960e088901b1681526001600160a01b03958616600482015294909316602485015250602090910201356044820152606401600060405180830381600087803b15801561071457600080fd5b505af1158015610728573d6000803e3d6000fd5b5050505061075f858583818110610741576107416113de565b33600090815260ce6020908152604090912093910201359050610d7a565b5060d16000868684818110610776576107766113de565b90506020020135815260200190815260200160002054826107979190611423565b9150806107a38161140a565b915050610690565b506107b63382610d86565b50505050565b6107c4610c75565b6107ce6000610e79565b565b60d85460ff16156108195760405162461bcd60e51b8152602060048201526013602482015272105b1c9958591e481a5b9a5d1a585b1a5e9959606a1b6044820152606401610433565b60d8805460ff1916600117905561082e610ecb565b610836610ef9565b61083e610f29565b6107ce610f5c565b61083e610c75565b600060d7546000036108605750600090565b600060d75443610870919061143b565b905061089361088a60cd5483610f9990919063ffffffff16565b60d45490610d21565b91505090565b6108a1610d34565b6002606554036108f35760405162461bcd60e51b815260206004820152601f60248201527f5265656e7472616e637947756172643a207265656e7472616e742063616c6c006044820152606401610433565b6002606581905533600090815260cf6020526040812090910154905b82811015610aaa5761094a84848381811061092c5761092c6113de565b33600090815260ce6020908152604090912093910201359050610fa5565b6109965760405162461bcd60e51b815260206004820181905260248201527f5374616b696e673a20596f7520617265206e6f7420746f6b656e206f776e65726044820152606401610433565b60d160008585848181106109ac576109ac6113de565b90506020020135815260200190815260200160002054826109cd919061143b565b9150610a028484838181106109e4576109e46113de565b33600090815260ce6020908152604090912093910201359050610fbd565b5060cb546001600160a01b03166323b872dd3033878786818110610a2857610a286113de565b6040516001600160e01b031960e088901b1681526001600160a01b03958616600482015294909316602485015250602090910201356044820152606401600060405180830381600087803b158015610a7f57600080fd5b505af1158015610a93573d6000803e3d6000fd5b505050508080610aa29061140a565b91505061090f565b50610ab53382610d86565b5050600160655550565b600081600003610ad157506000610594565b6000610ae584610adf61084e565b90610fc9565b90508015610b0c5760d254610b0490610afe8386610f99565b90610fd5565b915050610594565b5060009392505050565b610b1e610c75565b60cc80546001600160a01b0319166001600160a01b0392909216919091179055565b6001600160a01b038116600090815260ce60205260408120606091610b6482610fe1565b67ffffffffffffffff811115610b7c57610b7c6111ac565b604051908082528060200260200182016040528015610ba5578160200160208202803683370190505b50905060005b610bb483610fe1565b811015610bf457610bc58382610feb565b828281518110610bd757610bd76113de565b602090810291909101015280610bec8161140a565b915050610bab565b509392505050565b610c04610c75565b6001600160a01b038116610c695760405162461bcd60e51b815260206004820152602660248201527f4f776e61626c653a206e6577206f776e657220697320746865207a65726f206160448201526564647265737360d01b6064820152608401610433565b610c7281610e79565b50565b6033546001600160a01b031633146107ce5760405162461bcd60e51b815260206004820181905260248201527f4f776e61626c653a2063616c6c6572206973206e6f7420746865206f776e65726044820152606401610433565b610cd7610ff7565b6097805460ff191690557f5db9ee0a495bf2e6ff9c91a7834c1ba4fdd244a5e8aa4e537bd38aeae4b073aa335b6040516001600160a01b03909116815260200160405180910390a1565b6000610d2d8284611423565b9392505050565b60975460ff16156107ce5760405162461bcd60e51b815260206004820152601060248201526f14185d5cd8589b194e881c185d5cd95960821b6044820152606401610433565b6000610d2d8383611040565b610d8f82610545565b6001600160a01b038316600090815260cf6020526040902055610db061084e565b6001600160a01b038316600090815260cf602052604090206003015560d25460d35411610e0f57610e00610df760d6546102c560d35460d254610fc990919063ffffffff16565b60d55490610d21565b60d555610e0b61084e565b60d6555b6001600160a01b038216600090815260cf602052604090206002015460d354610e43918391610e3d91610fc9565b90610d21565b60d381905560d254811115610e595760d35460d2555b506001600160a01b03909116600090815260cf6020526040902060020155565b603380546001600160a01b038381166001600160a01b0319831681179093556040519116919082907f8be0079c531659141344cd1fd0a4f28419497f9722a3daafe3b4186f6b6457e090600090a35050565b600054610100900460ff16610ef25760405162461bcd60e51b815260040161043390611452565b6001606555565b600054610100900460ff16610f205760405162461bcd60e51b815260040161043390611452565b6107ce33610e79565b600054610100900460ff16610f505760405162461bcd60e51b815260040161043390611452565b6097805460ff19169055565b610f64610d34565b6097805460ff191660011790557f62e78cea01bee320cd4e420270b5ea74000d11b0c9f74754ebdbfc544b05a258610d043390565b6000610d2d828461149d565b60008181526001830160205260408120541515610d2d565b6000610d2d838361108f565b6000610d2d828461143b565b6000610d2d82846114bc565b6000610594825490565b6000610d2d8383611182565b60975460ff166107ce5760405162461bcd60e51b815260206004820152601460248201527314185d5cd8589b194e881b9bdd081c185d5cd95960621b6044820152606401610433565b600081815260018301602052604081205461108757508154600181810184556000848152602080822090930184905584548482528286019093526040902091909155610594565b506000610594565b600081815260018301602052604081205480156111785760006110b360018361143b565b85549091506000906110c79060019061143b565b905081811461112c5760008660000182815481106110e7576110e76113de565b906000526020600020015490508087600001848154811061110a5761110a6113de565b6000918252602080832090910192909255918252600188019052604090208390555b855486908061113d5761113d6114de565b600190038181906000526020600020016000905590558560010160008681526020019081526020016000206000905560019350505050610594565b6000915050610594565b6000826000018281548110611199576111996113de565b9060005260206000200154905092915050565b634e487b7160e01b600052604160045260246000fd5b600082601f8301126111d357600080fd5b8135602067ffffffffffffffff808311156111f0576111f06111ac565b8260051b604051601f19603f83011681018181108482111715611215576112156111ac565b60405293845285810183019383810192508785111561123357600080fd5b83870191505b8482101561125257813583529183019190830190611239565b979650505050505050565b6000806040838503121561127057600080fd5b823567ffffffffffffffff8082111561128857600080fd5b611294868387016111c2565b935060208501359150808211156112aa57600080fd5b506112b7858286016111c2565b9150509250929050565b6000602082840312156112d357600080fd5b5035919050565b6000602082840312156112ec57600080fd5b81356001600160a01b0381168114610d2d57600080fd5b6000806020838503121561131657600080fd5b823567ffffffffffffffff8082111561132e57600080fd5b818501915085601f83011261134257600080fd5b81358181111561135157600080fd5b8660208260051b850101111561136657600080fd5b60209290920196919550909350505050565b6000806040838503121561138b57600080fd5b50508035926020909101359150565b6020808252825182820181905260009190848201906040850190845b818110156113d2578351835292840192918401916001016113b6565b50909695505050505050565b634e487b7160e01b600052603260045260246000fd5b634e487b7160e01b600052601160045260246000fd5b60006001820161141c5761141c6113f4565b5060010190565b60008219821115611436576114366113f4565b500190565b60008282101561144d5761144d6113f4565b500390565b6020808252602b908201527f496e697469616c697a61626c653a20636f6e7472616374206973206e6f74206960408201526a6e697469616c697a696e6760a81b606082015260800190565b60008160001904831182151516156114b7576114b76113f4565b500290565b6000826114d957634e487b7160e01b600052601260045260246000fd5b500490565b634e487b7160e01b600052603160045260246000fdfea26469706673582212207d1879fb70b6e85f0bc555df75d1eb72566e24e11325d2949dfad333ea197f6464736f6c634300080d0033",
  "linkReferences": {},
  "deployedLinkReferences": {}
}