{
  "_format": "hh-sol-artifact-1",
  "contractName": "MutantStaking",
  "sourceName": "contracts/MutantStaking.sol",
  "abi": [
    {
      "anonymous": false,
      "inputs": [
        {
          "indexed": false,
          "internalType": "address",
          "name": "staker",
          "type": "address"
        },
        {
          "indexed": false,
          "internalType": "uint256",
          "name": "amount",
          "type": "uint256"
        }
      ],
      "name": "Harvested",
      "type": "event"
    },
    {
      "anonymous": false,
      "inputs": [
        {
          "indexed": false,
          "internalType": "uint8",
          "name": "version",
          "type": "uint8"
        }
      ],
      "name": "Initialized",
      "type": "event"
    },
    {
      "anonymous": false,
      "inputs": [
        {
          "indexed": true,
          "internalType": "address",
          "name": "previousOwner",
          "type": "address"
        },
        {
          "indexed": true,
          "internalType": "address",
          "name": "newOwner",
          "type": "address"
        }
      ],
      "name": "OwnershipTransferred",
      "type": "event"
    },
    {
      "anonymous": false,
      "inputs": [
        {
          "indexed": false,
          "internalType": "address",
          "name": "account",
          "type": "address"
        }
      ],
      "name": "Paused",
      "type": "event"
    },
    {
      "anonymous": false,
      "inputs": [
        {
          "indexed": false,
          "internalType": "address",
          "name": "account",
          "type": "address"
        }
      ],
      "name": "Unpaused",
      "type": "event"
    },
    {
      "inputs": [],
      "name": "allocatedPower",
      "outputs": [
        {
          "internalType": "uint256",
          "name": "",
          "type": "uint256"
        }
      ],
      "stateMutability": "view",
      "type": "function"
    },
    {
      "inputs": [
        {
          "internalType": "uint256[]",
          "name": "tokenIds",
          "type": "uint256[]"
        }
      ],
      "name": "deposit",
      "outputs": [],
      "stateMutability": "nonpayable",
      "type": "function"
    },
    {
      "inputs": [
        {
          "internalType": "address",
          "name": "account",
          "type": "address"
        }
      ],
      "name": "depositsOf",
      "outputs": [
        {
          "internalType": "uint256[]",
          "name": "",
          "type": "uint256[]"
        }
      ],
      "stateMutability": "view",
      "type": "function"
    },
    {
      "inputs": [
        {
          "internalType": "uint256",
          "name": "_lastReleased",
          "type": "uint256"
        },
        {
          "internalType": "uint256",
          "name": "_power",
          "type": "uint256"
        }
      ],
      "name": "earnedLastPeriod",
      "outputs": [
        {
          "internalType": "uint256",
          "name": "",
          "type": "uint256"
        }
      ],
      "stateMutability": "view",
      "type": "function"
    },
    {
      "inputs": [
        {
          "internalType": "address",
          "name": "_staker",
          "type": "address"
        }
      ],
      "name": "earnings",
      "outputs": [
        {
          "internalType": "uint256",
          "name": "",
          "type": "uint256"
        }
      ],
      "stateMutability": "view",
      "type": "function"
    },
    {
      "inputs": [],
      "name": "harvest",
      "outputs": [],
      "stateMutability": "nonpayable",
      "type": "function"
    },
    {
      "inputs": [],
      "name": "initialize",
      "outputs": [],
      "stateMutability": "nonpayable",
      "type": "function"
    },
    {
      "inputs": [],
      "name": "nftContract",
      "outputs": [
        {
          "internalType": "address",
          "name": "",
          "type": "address"
        }
      ],
      "stateMutability": "view",
      "type": "function"
    },
    {
      "inputs": [],
      "name": "owner",
      "outputs": [
        {
          "internalType": "address",
          "name": "",
          "type": "address"
        }
      ],
      "stateMutability": "view",
      "type": "function"
    },
    {
      "inputs": [],
      "name": "pause",
      "outputs": [],
      "stateMutability": "nonpayable",
      "type": "function"
    },
    {
      "inputs": [],
      "name": "paused",
      "outputs": [
        {
          "internalType": "bool",
          "name": "",
          "type": "bool"
        }
      ],
      "stateMutability": "view",
      "type": "function"
    },
    {
      "inputs": [],
      "name": "rate",
      "outputs": [
        {
          "internalType": "uint256",
          "name": "",
          "type": "uint256"
        }
      ],
      "stateMutability": "view",
      "type": "function"
    },
    {
      "inputs": [],
      "name": "reclaimable",
      "outputs": [
        {
          "internalType": "uint256",
          "name": "",
          "type": "uint256"
        }
      ],
      "stateMutability": "view",
      "type": "function"
    },
    {
      "inputs": [],
      "name": "reclaimableLastReleased",
      "outputs": [
        {
          "internalType": "uint256",
          "name": "",
          "type": "uint256"
        }
      ],
      "stateMutability": "view",
      "type": "function"
    },
    {
      "inputs": [],
      "name": "released",
      "outputs": [
        {
          "internalType": "uint256",
          "name": "",
          "type": "uint256"
        }
      ],
      "stateMutability": "view",
      "type": "function"
    },
    {
      "inputs": [],
      "name": "releasedCorrection",
      "outputs": [
        {
          "internalType": "uint256",
          "name": "",
          "type": "uint256"
        }
      ],
      "stateMutability": "view",
      "type": "function"
    },
    {
      "inputs": [],
      "name": "renounceOwnership",
      "outputs": [],
      "stateMutability": "nonpayable",
      "type": "function"
    },
    {
      "inputs": [],
      "name": "reservedPower",
      "outputs": [
        {
          "internalType": "uint256",
          "name": "",
          "type": "uint256"
        }
      ],
      "stateMutability": "view",
      "type": "function"
    },
    {
      "inputs": [
        {
          "internalType": "address",
          "name": "_nftContract",
          "type": "address"
        }
      ],
      "name": "setNftContract",
      "outputs": [],
      "stateMutability": "nonpayable",
      "type": "function"
    },
    {
      "inputs": [
        {
          "internalType": "uint256[]",
          "name": "_ids",
          "type": "uint256[]"
        },
        {
          "internalType": "uint256[]",
          "name": "_power",
          "type": "uint256[]"
        }
      ],
      "name": "setPower",
      "outputs": [],
      "stateMutability": "nonpayable",
      "type": "function"
    },
    {
      "inputs": [
        {
          "internalType": "uint256",
          "name": "_rate",
          "type": "uint256"
        }
      ],
      "name": "setRate",
      "outputs": [],
      "stateMutability": "nonpayable",
      "type": "function"
    },
    {
      "inputs": [
        {
          "internalType": "address",
          "name": "_tokenContract",
          "type": "address"
        }
      ],
      "name": "setTokenContract",
      "outputs": [],
      "stateMutability": "nonpayable",
      "type": "function"
    },
    {
      "inputs": [
        {
          "internalType": "address",
          "name": "_staker",
          "type": "address"
        }
      ],
      "name": "stakerPower",
      "outputs": [
        {
          "internalType": "uint256",
          "name": "",
          "type": "uint256"
        }
      ],
      "stateMutability": "view",
      "type": "function"
    },
    {
      "inputs": [],
      "name": "tokenContract",
      "outputs": [
        {
          "internalType": "address",
          "name": "",
          "type": "address"
        }
      ],
      "stateMutability": "view",
      "type": "function"
    },
    {
      "inputs": [
        {
          "internalType": "address",
          "name": "newOwner",
          "type": "address"
        }
      ],
      "name": "transferOwnership",
      "outputs": [],
      "stateMutability": "nonpayable",
      "type": "function"
    },
    {
      "inputs": [],
      "name": "unpause",
      "outputs": [],
      "stateMutability": "nonpayable",
      "type": "function"
    },
    {
      "inputs": [
        {
          "internalType": "uint256[]",
          "name": "tokenIds",
          "type": "uint256[]"
        }
      ],
      "name": "withdraw",
      "outputs": [],
      "stateMutability": "nonpayable",
      "type": "function"
    }
  ],
  "bytecode": "0x6080604052600060d481905560d581905560d681905560d75560d8805460ff1916905534801561002e57600080fd5b506115c28061003e6000396000f3fe608060405234801561001057600080fd5b50600436106101a95760003560e01c80638da5cb5b116100f9578063c16e046111610097578063e8cc115911610071578063e8cc115914610334578063ed18a6ba14610360578063ed9074c114610369578063f2fde38b1461037257600080fd5b8063c16e0461146102f8578063d56d229d14610301578063e3a9db1a1461031457600080fd5b806399b72ccb116100d357806399b72ccb146102c0578063a15d5316146102c9578063b181e5ff146102d2578063bbcd5bbe146102e557600080fd5b80638da5cb5b1461029457806396132521146102a5578063983d95ce146102ad57600080fd5b8063543fd313116101665780635c975abb116101405780635c975abb14610266578063715018a61461027c5780638129fc1c146102845780638456cb591461028c57600080fd5b8063543fd3131461021557806355a373d614610228578063598b8e711461025357600080fd5b806317909b7d146101ae5780632c4e722e146101c357806334fcf437146101df5780633f4ba83a146101f25780634641257d146101fa57806352f5ad7714610202575b600080fd5b6101c16101bc3660046112f5565b610385565b005b6101cc60cd5481565b6040519081526020015b60405180910390f35b6101c16101ed366004611359565b610409565b6101c1610416565b6101c161042c565b6101c1610210366004611372565b6105b3565b6101cc610223366004611372565b6105dd565b60cc5461023b906001600160a01b031681565b6040516001600160a01b0390911681526020016101d6565b6101c161026136600461139b565b610632565b60975460ff1660405190151581526020016101d6565b6101c1610854565b6101c1610868565b6101c16108de565b6033546001600160a01b031661023b565b6101cc6108e6565b6101c16102bb36600461139b565b610931565b6101cc60d55481565b6101cc60d35481565b6101cc6102e0366004611410565b610b57565b6101c16102f3366004611372565b610bae565b6101cc60d25481565b60cb5461023b906001600160a01b031681565b610327610322366004611372565b610bd8565b6040516101d69190611432565b6101cc610342366004611372565b6001600160a01b0316600090815260cf602052604090206002015490565b6101cc60d65481565b6101cc60d45481565b6101c1610380366004611372565b610c94565b61038d610d0d565b805182511461039b57600080fd5b60005b8251811015610404578181815181106103b9576103b9611476565b602002602001015160d160008584815181106103d7576103d7611476565b602002602001015181526020019081526020016000208190555080806103fc906114a2565b91505061039e565b505050565b610411610d0d565b60cd55565b61041e610d0d565b610426610d67565b4360d755565b6002606554036104835760405162461bcd60e51b815260206004820152601f60248201527f5265656e7472616e637947756172643a207265656e7472616e742063616c6c0060448201526064015b60405180910390fd5b60026065556000610493336105dd565b9050600081116104dc5760405162461bcd60e51b81526020600482015260146024820152734e46545374616b653a204e6f207265776172647360601b604482015260640161047a565b33600090815260cf60205260408120556104f46108e6565b33600081815260cf6020526040908190206003019290925560cc5491516340c10f1960e01b81526004810191909152602481018390526001600160a01b03909116906340c10f1990604401600060405180830381600087803b15801561055957600080fd5b505af115801561056d573d6000803e3d6000fd5b505060408051338152602081018590527f121c5042302bae5fc561fbc64368f297ca60a880878e1e3a7f7e9380377260bf935001905060405180910390a1506001606555565b6105bb610d0d565b60cb80546001600160a01b0319166001600160a01b0392909216919091179055565b6001600160a01b038116600090815260cf60205260408120600381015460029091015461062c9161060d91610b57565b6001600160a01b038416600090815260cf602052604090205490610db9565b92915050565b61063a610dcc565b33600090815260cf602090815260408083208151608081018352815481526001820154938101849052600282015492810192909252600301546060820152910361072057604051806080016040528060008152602001438152602001600081526020016106a56108e6565b905233600081815260cf60209081526040808320855181559185015160018084019190915590850151600283015560609094015160039091015560d08054938401815590527fe89d44c8fd6a9bac8af33ce47f56337617d449bf7ff3956b618c646de829cbcb90910180546001600160a01b03191690911790555b604081015160005b838110156108435760cb546001600160a01b03166323b872dd333088888681811061075557610755611476565b6040516001600160e01b031960e088901b1681526001600160a01b03958616600482015294909316602485015250602090910201356044820152606401600060405180830381600087803b1580156107ac57600080fd5b505af11580156107c0573d6000803e3d6000fd5b505050506107f78585838181106107d9576107d9611476565b33600090815260ce6020908152604090912093910201359050610e12565b5060d1600086868481811061080e5761080e611476565b905060200201358152602001908152602001600020548261082f91906114bb565b91508061083b816114a2565b915050610728565b5061084e3382610e1e565b50505050565b61085c610d0d565b6108666000610f11565b565b60d85460ff16156108b15760405162461bcd60e51b8152602060048201526013602482015272105b1c9958591e481a5b9a5d1a585b1a5e9959606a1b604482015260640161047a565b60d8805460ff191660011790556108c6610f63565b6108ce610f91565b6108d6610fc1565b610866610ff4565b6108d6610d0d565b600060d7546000036108f85750600090565b600060d7544361090891906114d3565b905061092b61092260cd548361103190919063ffffffff16565b60d45490610db9565b91505090565b610939610dcc565b60026065540361098b5760405162461bcd60e51b815260206004820152601f60248201527f5265656e7472616e637947756172643a207265656e7472616e742063616c6c00604482015260640161047a565b6002606581905533600090815260cf6020526040812090910154905b82811015610b42576109e28484838181106109c4576109c4611476565b33600090815260ce602090815260409091209391020135905061103d565b610a2e5760405162461bcd60e51b815260206004820181905260248201527f5374616b696e673a20596f7520617265206e6f7420746f6b656e206f776e6572604482015260640161047a565b60d16000858584818110610a4457610a44611476565b9050602002013581526020019081526020016000205482610a6591906114d3565b9150610a9a848483818110610a7c57610a7c611476565b33600090815260ce6020908152604090912093910201359050611055565b5060cb546001600160a01b03166323b872dd3033878786818110610ac057610ac0611476565b6040516001600160e01b031960e088901b1681526001600160a01b03958616600482015294909316602485015250602090910201356044820152606401600060405180830381600087803b158015610b1757600080fd5b505af1158015610b2b573d6000803e3d6000fd5b505050508080610b3a906114a2565b9150506109a7565b50610b4d3382610e1e565b5050600160655550565b600081600003610b695750600061062c565b6000610b7d84610b776108e6565b90611061565b90508015610ba45760d254610b9c90610b968386611031565b9061106d565b91505061062c565b5060009392505050565b610bb6610d0d565b60cc80546001600160a01b0319166001600160a01b0392909216919091179055565b6001600160a01b038116600090815260ce60205260408120606091610bfc82611079565b67ffffffffffffffff811115610c1457610c14611244565b604051908082528060200260200182016040528015610c3d578160200160208202803683370190505b50905060005b610c4c83611079565b811015610c8c57610c5d8382611083565b828281518110610c6f57610c6f611476565b602090810291909101015280610c84816114a2565b915050610c43565b509392505050565b610c9c610d0d565b6001600160a01b038116610d015760405162461bcd60e51b815260206004820152602660248201527f4f776e61626c653a206e6577206f776e657220697320746865207a65726f206160448201526564647265737360d01b606482015260840161047a565b610d0a81610f11565b50565b6033546001600160a01b031633146108665760405162461bcd60e51b815260206004820181905260248201527f4f776e61626c653a2063616c6c6572206973206e6f7420746865206f776e6572604482015260640161047a565b610d6f61108f565b6097805460ff191690557f5db9ee0a495bf2e6ff9c91a7834c1ba4fdd244a5e8aa4e537bd38aeae4b073aa335b6040516001600160a01b03909116815260200160405180910390a1565b6000610dc582846114bb565b9392505050565b60975460ff16156108665760405162461bcd60e51b815260206004820152601060248201526f14185d5cd8589b194e881c185d5cd95960821b604482015260640161047a565b6000610dc583836110d8565b610e27826105dd565b6001600160a01b038316600090815260cf6020526040902055610e486108e6565b6001600160a01b038316600090815260cf602052604090206003015560d25460d35411610ea757610e98610e8f60d6546102e060d35460d25461106190919063ffffffff16565b60d55490610db9565b60d555610ea36108e6565b60d6555b6001600160a01b038216600090815260cf602052604090206002015460d354610edb918391610ed591611061565b90610db9565b60d381905560d254811115610ef15760d35460d2555b506001600160a01b03909116600090815260cf6020526040902060020155565b603380546001600160a01b038381166001600160a01b0319831681179093556040519116919082907f8be0079c531659141344cd1fd0a4f28419497f9722a3daafe3b4186f6b6457e090600090a35050565b600054610100900460ff16610f8a5760405162461bcd60e51b815260040161047a906114ea565b6001606555565b600054610100900460ff16610fb85760405162461bcd60e51b815260040161047a906114ea565b61086633610f11565b600054610100900460ff16610fe85760405162461bcd60e51b815260040161047a906114ea565b6097805460ff19169055565b610ffc610dcc565b6097805460ff191660011790557f62e78cea01bee320cd4e420270b5ea74000d11b0c9f74754ebdbfc544b05a258610d9c3390565b6000610dc58284611535565b60008181526001830160205260408120541515610dc5565b6000610dc58383611127565b6000610dc582846114d3565b6000610dc58284611554565b600061062c825490565b6000610dc5838361121a565b60975460ff166108665760405162461bcd60e51b815260206004820152601460248201527314185d5cd8589b194e881b9bdd081c185d5cd95960621b604482015260640161047a565b600081815260018301602052604081205461111f5750815460018181018455600084815260208082209093018490558454848252828601909352604090209190915561062c565b50600061062c565b6000818152600183016020526040812054801561121057600061114b6001836114d3565b855490915060009061115f906001906114d3565b90508181146111c457600086600001828154811061117f5761117f611476565b90600052602060002001549050808760000184815481106111a2576111a2611476565b6000918252602080832090910192909255918252600188019052604090208390555b85548690806111d5576111d5611576565b60019003818190600052602060002001600090559055856001016000868152602001908152602001600020600090556001935050505061062c565b600091505061062c565b600082600001828154811061123157611231611476565b9060005260206000200154905092915050565b634e487b7160e01b600052604160045260246000fd5b600082601f83011261126b57600080fd5b8135602067ffffffffffffffff8083111561128857611288611244565b8260051b604051601f19603f830116810181811084821117156112ad576112ad611244565b6040529384528581018301938381019250878511156112cb57600080fd5b83870191505b848210156112ea578135835291830191908301906112d1565b979650505050505050565b6000806040838503121561130857600080fd5b823567ffffffffffffffff8082111561132057600080fd5b61132c8683870161125a565b9350602085013591508082111561134257600080fd5b5061134f8582860161125a565b9150509250929050565b60006020828403121561136b57600080fd5b5035919050565b60006020828403121561138457600080fd5b81356001600160a01b0381168114610dc557600080fd5b600080602083850312156113ae57600080fd5b823567ffffffffffffffff808211156113c657600080fd5b818501915085601f8301126113da57600080fd5b8135818111156113e957600080fd5b8660208260051b85010111156113fe57600080fd5b60209290920196919550909350505050565b6000806040838503121561142357600080fd5b50508035926020909101359150565b6020808252825182820181905260009190848201906040850190845b8181101561146a5783518352928401929184019160010161144e565b50909695505050505050565b634e487b7160e01b600052603260045260246000fd5b634e487b7160e01b600052601160045260246000fd5b6000600182016114b4576114b461148c565b5060010190565b600082198211156114ce576114ce61148c565b500190565b6000828210156114e5576114e561148c565b500390565b6020808252602b908201527f496e697469616c697a61626c653a20636f6e7472616374206973206e6f74206960408201526a6e697469616c697a696e6760a81b606082015260800190565b600081600019048311821515161561154f5761154f61148c565b500290565b60008261157157634e487b7160e01b600052601260045260246000fd5b500490565b634e487b7160e01b600052603160045260246000fdfea26469706673582212208b52b51d27f880f3c429d2eb2fa9fe4c44d54e13170e4b37e50cbf5710acbaa264736f6c634300080d0033",
  "linkReferences": {},
  "deployedLinkReferences": {}
}